{
	"contracts/Bet.sol": {
		"FootballBetting": {
			"abi": [
				{
					"inputs": [],
					"stateMutability": "nonpayable",
					"type": "constructor"
				},
				{
					"anonymous": false,
					"inputs": [
						{
							"indexed": false,
							"internalType": "address",
							"name": "creator",
							"type": "address"
						},
						{
							"indexed": true,
							"internalType": "string",
							"name": "betId",
							"type": "string"
						},
						{
							"indexed": false,
							"internalType": "string",
							"name": "option1",
							"type": "string"
						},
						{
							"indexed": false,
							"internalType": "string",
							"name": "option2",
							"type": "string"
						},
						{
							"indexed": false,
							"internalType": "uint256",
							"name": "minimumBetAmount",
							"type": "uint256"
						}
					],
					"name": "BetInstanceCreated",
					"type": "event"
				},
				{
					"anonymous": false,
					"inputs": [
						{
							"indexed": true,
							"internalType": "string",
							"name": "betId",
							"type": "string"
						},
						{
							"indexed": true,
							"internalType": "address",
							"name": "bettor",
							"type": "address"
						},
						{
							"indexed": false,
							"internalType": "uint256",
							"name": "amount",
							"type": "uint256"
						},
						{
							"indexed": false,
							"internalType": "uint8",
							"name": "team",
							"type": "uint8"
						}
					],
					"name": "BetPlaced",
					"type": "event"
				},
				{
					"anonymous": false,
					"inputs": [
						{
							"indexed": true,
							"internalType": "string",
							"name": "betId",
							"type": "string"
						}
					],
					"name": "BettingClosed",
					"type": "event"
				},
				{
					"anonymous": false,
					"inputs": [
						{
							"indexed": true,
							"internalType": "string",
							"name": "betId",
							"type": "string"
						},
						{
							"indexed": false,
							"internalType": "uint8",
							"name": "winningTeam",
							"type": "uint8"
						}
					],
					"name": "BettingResolved",
					"type": "event"
				},
				{
					"inputs": [
						{
							"internalType": "string",
							"name": "_betId",
							"type": "string"
						}
					],
					"name": "closeBetting",
					"outputs": [],
					"stateMutability": "nonpayable",
					"type": "function"
				},
				{
					"inputs": [
						{
							"internalType": "string",
							"name": "_betId",
							"type": "string"
						},
						{
							"internalType": "string",
							"name": "_option1",
							"type": "string"
						},
						{
							"internalType": "string",
							"name": "_option2",
							"type": "string"
						},
						{
							"internalType": "uint256",
							"name": "_minimumBetAmount",
							"type": "uint256"
						}
					],
					"name": "createBetInstance",
					"outputs": [],
					"stateMutability": "nonpayable",
					"type": "function"
				},
				{
					"inputs": [
						{
							"internalType": "string",
							"name": "_betId",
							"type": "string"
						},
						{
							"internalType": "uint8",
							"name": "_winningTeam",
							"type": "uint8"
						}
					],
					"name": "distributeWinnings",
					"outputs": [],
					"stateMutability": "nonpayable",
					"type": "function"
				},
				{
					"inputs": [
						{
							"internalType": "string",
							"name": "_betId",
							"type": "string"
						}
					],
					"name": "getTotalAmounts",
					"outputs": [
						{
							"internalType": "uint256",
							"name": "total",
							"type": "uint256"
						},
						{
							"internalType": "uint256",
							"name": "totaloption1",
							"type": "uint256"
						},
						{
							"internalType": "uint256",
							"name": "totaloption2",
							"type": "uint256"
						},
						{
							"internalType": "bool",
							"name": "isClosed",
							"type": "bool"
						},
						{
							"internalType": "bool",
							"name": "isResolved",
							"type": "bool"
						}
					],
					"stateMutability": "view",
					"type": "function"
				},
				{
					"inputs": [
						{
							"internalType": "string",
							"name": "_betId",
							"type": "string"
						}
					],
					"name": "openBetting",
					"outputs": [],
					"stateMutability": "nonpayable",
					"type": "function"
				},
				{
					"inputs": [
						{
							"internalType": "string",
							"name": "_betId",
							"type": "string"
						},
						{
							"internalType": "uint256",
							"name": "_amount",
							"type": "uint256"
						}
					],
					"name": "placeBetOnoption1",
					"outputs": [],
					"stateMutability": "nonpayable",
					"type": "function"
				},
				{
					"inputs": [
						{
							"internalType": "string",
							"name": "_betId",
							"type": "string"
						},
						{
							"internalType": "uint256",
							"name": "_amount",
							"type": "uint256"
						}
					],
					"name": "placeBetOnoption2",
					"outputs": [],
					"stateMutability": "nonpayable",
					"type": "function"
				}
			],
			"devdoc": {
				"kind": "dev",
				"methods": {},
				"version": 1
			},
			"evm": {
				"assembly": "    /* \"contracts/Bet.sol\":346:6806  contract FootballBetting {... */\n  mstore(0x40, 0x80)\n    /* \"contracts/Bet.sol\":1685:1760  constructor() {... */\n  callvalue\n  dup1\n  iszero\n  tag_1\n  jumpi\n  0x00\n  dup1\n  revert\ntag_1:\n  pop\n    /* \"contracts/Bet.sol\":514:556  0x3d2bD0e15829AA5C362a4144FdF4A1112fa29B5c */\n  0x3d2bd0e15829aa5c362a4144fdf4a1112fa29b5c\n    /* \"contracts/Bet.sol\":1710:1721  bonsaiToken */\n  0x02\n  0x00\n    /* \"contracts/Bet.sol\":1710:1752  bonsaiToken = IERC20(BONSAI_TOKEN_ADDRESS) */\n  0x0100\n  exp\n  dup2\n  sload\n  dup2\n  0xffffffffffffffffffffffffffffffffffffffff\n  mul\n  not\n  and\n  swap1\n  dup4\n  0xffffffffffffffffffffffffffffffffffffffff\n  and\n  mul\n  or\n  swap1\n  sstore\n  pop\n    /* \"contracts/Bet.sol\":346:6806  contract FootballBetting {... */\n  dataSize(sub_0)\n  dup1\n  dataOffset(sub_0)\n  0x00\n  codecopy\n  0x00\n  return\nstop\n\nsub_0: assembly {\n        /* \"contracts/Bet.sol\":346:6806  contract FootballBetting {... */\n      mstore(0x40, 0x80)\n      callvalue\n      dup1\n      iszero\n      tag_1\n      jumpi\n      0x00\n      dup1\n      revert\n    tag_1:\n      pop\n      jumpi(tag_2, lt(calldatasize, 0x04))\n      shr(0xe0, calldataload(0x00))\n      dup1\n      0x85148cce\n      gt\n      tag_10\n      jumpi\n      dup1\n      0x85148cce\n      eq\n      tag_6\n      jumpi\n      dup1\n      0x8d865b3b\n      eq\n      tag_7\n      jumpi\n      dup1\n      0xdd9f4242\n      eq\n      tag_8\n      jumpi\n      dup1\n      0xf85b1ad4\n      eq\n      tag_9\n      jumpi\n      jump(tag_2)\n    tag_10:\n      dup1\n      0x3cfbf721\n      eq\n      tag_3\n      jumpi\n      dup1\n      0x5f4dbd41\n      eq\n      tag_4\n      jumpi\n      dup1\n      0x7fe0dbc7\n      eq\n      tag_5\n      jumpi\n    tag_2:\n      0x00\n      dup1\n      revert\n        /* \"contracts/Bet.sol\":1768:2387  function createBetInstance(string calldata _betId, string calldata _option1, string calldata _option2, uint256 _minimumBetAmount) external {... */\n    tag_3:\n      tag_11\n      0x04\n      dup1\n      calldatasize\n      sub\n      dup2\n      add\n      swap1\n      tag_12\n      swap2\n      swap1\n      tag_13\n      jump\t// in\n    tag_12:\n      tag_14\n      jump\t// in\n    tag_11:\n      stop\n        /* \"contracts/Bet.sol\":2395:3036  function placeBetOnoption1(string calldata _betId, uint256 _amount) external {... */\n    tag_4:\n      tag_15\n      0x04\n      dup1\n      calldatasize\n      sub\n      dup2\n      add\n      swap1\n      tag_16\n      swap2\n      swap1\n      tag_17\n      jump\t// in\n    tag_16:\n      tag_18\n      jump\t// in\n    tag_15:\n      stop\n        /* \"contracts/Bet.sol\":4110:4592  function getTotalAmounts(string calldata _betId) external view returns (uint256 total, uint256 totaloption1, uint256 totaloption2, bool isClosed, bool isResolved) {... */\n    tag_5:\n      tag_19\n      0x04\n      dup1\n      calldatasize\n      sub\n      dup2\n      add\n      swap1\n      tag_20\n      swap2\n      swap1\n      tag_21\n      jump\t// in\n    tag_20:\n      tag_22\n      jump\t// in\n    tag_19:\n      mload(0x40)\n      tag_23\n      swap6\n      swap5\n      swap4\n      swap3\n      swap2\n      swap1\n      tag_24\n      jump\t// in\n    tag_23:\n      mload(0x40)\n      dup1\n      swap2\n      sub\n      swap1\n      return\n        /* \"contracts/Bet.sol\":3916:4102  function openBetting(string calldata _betId) external onlyCreator(_betId) {... */\n    tag_6:\n      tag_25\n      0x04\n      dup1\n      calldatasize\n      sub\n      dup2\n      add\n      swap1\n      tag_26\n      swap2\n      swap1\n      tag_21\n      jump\t// in\n    tag_26:\n      tag_27\n      jump\t// in\n    tag_25:\n      stop\n        /* \"contracts/Bet.sol\":3685:3908  function closeBetting(string calldata _betId) external onlyCreator(_betId) {... */\n    tag_7:\n      tag_28\n      0x04\n      dup1\n      calldatasize\n      sub\n      dup2\n      add\n      swap1\n      tag_29\n      swap2\n      swap1\n      tag_21\n      jump\t// in\n    tag_29:\n      tag_30\n      jump\t// in\n    tag_28:\n      stop\n        /* \"contracts/Bet.sol\":4600:6803  function distributeWinnings(string calldata _betId, uint8 _winningTeam) external onlyCreator(_betId) {... */\n    tag_8:\n      tag_31\n      0x04\n      dup1\n      calldatasize\n      sub\n      dup2\n      add\n      swap1\n      tag_32\n      swap2\n      swap1\n      tag_33\n      jump\t// in\n    tag_32:\n      tag_34\n      jump\t// in\n    tag_31:\n      stop\n        /* \"contracts/Bet.sol\":3044:3677  function placeBetOnoption2(string calldata _betId, uint256 _amount) external {... */\n    tag_9:\n      tag_35\n      0x04\n      dup1\n      calldatasize\n      sub\n      dup2\n      add\n      swap1\n      tag_36\n      swap2\n      swap1\n      tag_17\n      jump\t// in\n    tag_36:\n      tag_37\n      jump\t// in\n    tag_35:\n      stop\n        /* \"contracts/Bet.sol\":1768:2387  function createBetInstance(string calldata _betId, string calldata _option1, string calldata _option2, uint256 _minimumBetAmount) external {... */\n    tag_14:\n        /* \"contracts/Bet.sol\":1967:1968  0 */\n      0x00\n        /* \"contracts/Bet.sol\":1932:1944  betInstances */\n      0x01\n        /* \"contracts/Bet.sol\":1945:1951  _betId */\n      dup9\n      dup9\n        /* \"contracts/Bet.sol\":1932:1952  betInstances[_betId] */\n      mload(0x40)\n      tag_39\n      swap3\n      swap2\n      swap1\n      tag_40\n      jump\t// in\n    tag_39:\n      swap1\n      dup2\n      mstore\n      0x20\n      add\n      mload(0x40)\n      dup1\n      swap2\n      sub\n      swap1\n      keccak256\n        /* \"contracts/Bet.sol\":1932:1955  betInstances[_betId].id */\n      0x00\n      add\n        /* \"contracts/Bet.sol\":1926:1963  bytes(betInstances[_betId].id).length */\n      dup1\n      sload\n      tag_41\n      swap1\n      tag_42\n      jump\t// in\n    tag_41:\n      swap1\n      pop\n        /* \"contracts/Bet.sol\":1926:1968  bytes(betInstances[_betId].id).length == 0 */\n      eq\n        /* \"contracts/Bet.sol\":1918:2013  require(bytes(betInstances[_betId].id).length == 0, \"Bet instance with this ID already exists\") */\n      tag_43\n      jumpi\n      mload(0x40)\n      0x08c379a000000000000000000000000000000000000000000000000000000000\n      dup2\n      mstore\n      0x04\n      add\n      tag_44\n      swap1\n      tag_45\n      jump\t// in\n    tag_44:\n      mload(0x40)\n      dup1\n      swap2\n      sub\n      swap1\n      revert\n    tag_43:\n        /* \"contracts/Bet.sol\":2026:2057  BetInstance storage newInstance */\n      0x00\n        /* \"contracts/Bet.sol\":2060:2072  betInstances */\n      0x01\n        /* \"contracts/Bet.sol\":2073:2079  _betId */\n      dup9\n      dup9\n        /* \"contracts/Bet.sol\":2060:2080  betInstances[_betId] */\n      mload(0x40)\n      tag_46\n      swap3\n      swap2\n      swap1\n      tag_40\n      jump\t// in\n    tag_46:\n      swap1\n      dup2\n      mstore\n      0x20\n      add\n      mload(0x40)\n      dup1\n      swap2\n      sub\n      swap1\n      keccak256\n        /* \"contracts/Bet.sol\":2026:2080  BetInstance storage newInstance = betInstances[_betId] */\n      swap1\n      pop\n        /* \"contracts/Bet.sol\":2108:2114  _betId */\n      dup8\n      dup8\n        /* \"contracts/Bet.sol\":2091:2102  newInstance */\n      dup3\n        /* \"contracts/Bet.sol\":2091:2105  newInstance.id */\n      0x00\n      add\n        /* \"contracts/Bet.sol\":2091:2114  newInstance.id = _betId */\n      swap2\n      dup3\n      tag_47\n      swap3\n      swap2\n      swap1\n      tag_48\n      jump\t// in\n    tag_47:\n      pop\n        /* \"contracts/Bet.sol\":2147:2155  _option1 */\n      dup6\n      dup6\n        /* \"contracts/Bet.sol\":2125:2136  newInstance */\n      dup3\n        /* \"contracts/Bet.sol\":2125:2144  newInstance.option1 */\n      0x01\n      add\n        /* \"contracts/Bet.sol\":2125:2155  newInstance.option1 = _option1 */\n      swap2\n      dup3\n      tag_49\n      swap3\n      swap2\n      swap1\n      tag_48\n      jump\t// in\n    tag_49:\n      pop\n        /* \"contracts/Bet.sol\":2188:2196  _option2 */\n      dup4\n      dup4\n        /* \"contracts/Bet.sol\":2166:2177  newInstance */\n      dup3\n        /* \"contracts/Bet.sol\":2166:2185  newInstance.option2 */\n      0x02\n      add\n        /* \"contracts/Bet.sol\":2166:2196  newInstance.option2 = _option2 */\n      swap2\n      dup3\n      tag_50\n      swap3\n      swap2\n      swap1\n      tag_48\n      jump\t// in\n    tag_50:\n      pop\n        /* \"contracts/Bet.sol\":2229:2239  msg.sender */\n      caller\n        /* \"contracts/Bet.sol\":2207:2218  newInstance */\n      dup2\n        /* \"contracts/Bet.sol\":2207:2226  newInstance.creator */\n      0x09\n      add\n      0x00\n        /* \"contracts/Bet.sol\":2207:2239  newInstance.creator = msg.sender */\n      0x0100\n      exp\n      dup2\n      sload\n      dup2\n      0xffffffffffffffffffffffffffffffffffffffff\n      mul\n      not\n      and\n      swap1\n      dup4\n      0xffffffffffffffffffffffffffffffffffffffff\n      and\n      mul\n      or\n      swap1\n      sstore\n      pop\n        /* \"contracts/Bet.sol\":2269:2286  _minimumBetAmount */\n      dup2\n        /* \"contracts/Bet.sol\":2250:2266  minimumBetAmount */\n      0x00\n        /* \"contracts/Bet.sol\":2250:2286  minimumBetAmount = _minimumBetAmount */\n      dup2\n      swap1\n      sstore\n      pop\n        /* \"contracts/Bet.sol\":2333:2339  _betId */\n      dup8\n      dup8\n        /* \"contracts/Bet.sol\":2302:2379  BetInstanceCreated(msg.sender, _betId, _option1, _option2, _minimumBetAmount) */\n      mload(0x40)\n      tag_51\n      swap3\n      swap2\n      swap1\n      tag_40\n      jump\t// in\n    tag_51:\n      mload(0x40)\n      dup1\n      swap2\n      sub\n      swap1\n      keccak256\n      0xb2bf4cb1e7d2d0aa3dbfb1dc17f06225b4e12b43536a29adeb8e6c58f8d8508c\n        /* \"contracts/Bet.sol\":2321:2331  msg.sender */\n      caller\n        /* \"contracts/Bet.sol\":2341:2349  _option1 */\n      dup9\n      dup9\n        /* \"contracts/Bet.sol\":2351:2359  _option2 */\n      dup9\n      dup9\n        /* \"contracts/Bet.sol\":2361:2378  _minimumBetAmount */\n      dup9\n        /* \"contracts/Bet.sol\":2302:2379  BetInstanceCreated(msg.sender, _betId, _option1, _option2, _minimumBetAmount) */\n      mload(0x40)\n      tag_52\n      swap7\n      swap6\n      swap5\n      swap4\n      swap3\n      swap2\n      swap1\n      tag_53\n      jump\t// in\n    tag_52:\n      mload(0x40)\n      dup1\n      swap2\n      sub\n      swap1\n      log2\n        /* \"contracts/Bet.sol\":1907:2387  {... */\n      pop\n        /* \"contracts/Bet.sol\":1768:2387  function createBetInstance(string calldata _betId, string calldata _option1, string calldata _option2, uint256 _minimumBetAmount) external {... */\n      pop\n      pop\n      pop\n      pop\n      pop\n      pop\n      pop\n      jump\t// out\n        /* \"contracts/Bet.sol\":2395:3036  function placeBetOnoption1(string calldata _betId, uint256 _amount) external {... */\n    tag_18:\n        /* \"contracts/Bet.sol\":2483:2514  BetInstance storage betInstance */\n      0x00\n        /* \"contracts/Bet.sol\":2517:2529  betInstances */\n      0x01\n        /* \"contracts/Bet.sol\":2530:2536  _betId */\n      dup5\n      dup5\n        /* \"contracts/Bet.sol\":2517:2537  betInstances[_betId] */\n      mload(0x40)\n      tag_55\n      swap3\n      swap2\n      swap1\n      tag_40\n      jump\t// in\n    tag_55:\n      swap1\n      dup2\n      mstore\n      0x20\n      add\n      mload(0x40)\n      dup1\n      swap2\n      sub\n      swap1\n      keccak256\n        /* \"contracts/Bet.sol\":2483:2537  BetInstance storage betInstance = betInstances[_betId] */\n      swap1\n      pop\n        /* \"contracts/Bet.sol\":2557:2568  betInstance */\n      dup1\n        /* \"contracts/Bet.sol\":2557:2577  betInstance.isClosed */\n      0x09\n      add\n      0x14\n      swap1\n      sload\n      swap1\n      0x0100\n      exp\n      swap1\n      div\n      0xff\n      and\n        /* \"contracts/Bet.sol\":2556:2577  !betInstance.isClosed */\n      iszero\n        /* \"contracts/Bet.sol\":2548:2599  require(!betInstance.isClosed, \"Betting is closed\") */\n      tag_56\n      jumpi\n      mload(0x40)\n      0x08c379a000000000000000000000000000000000000000000000000000000000\n      dup2\n      mstore\n      0x04\n      add\n      tag_57\n      swap1\n      tag_58\n      jump\t// in\n    tag_57:\n      mload(0x40)\n      dup1\n      swap2\n      sub\n      swap1\n      revert\n    tag_56:\n        /* \"contracts/Bet.sol\":2629:2645  minimumBetAmount */\n      sload(0x00)\n        /* \"contracts/Bet.sol\":2618:2625  _amount */\n      dup3\n        /* \"contracts/Bet.sol\":2618:2645  _amount >= minimumBetAmount */\n      lt\n      iszero\n        /* \"contracts/Bet.sol\":2610:2681  require(_amount >= minimumBetAmount, \"Bet amount is less than minimum\") */\n      tag_59\n      jumpi\n      mload(0x40)\n      0x08c379a000000000000000000000000000000000000000000000000000000000\n      dup2\n      mstore\n      0x04\n      add\n      tag_60\n      swap1\n      tag_61\n      jump\t// in\n    tag_60:\n      mload(0x40)\n      dup1\n      swap2\n      sub\n      swap1\n      revert\n    tag_59:\n        /* \"contracts/Bet.sol\":2702:2713  bonsaiToken */\n      0x02\n      0x00\n      swap1\n      sload\n      swap1\n      0x0100\n      exp\n      swap1\n      div\n      0xffffffffffffffffffffffffffffffffffffffff\n      and\n        /* \"contracts/Bet.sol\":2702:2726  bonsaiToken.transferFrom */\n      0xffffffffffffffffffffffffffffffffffffffff\n      and\n      0x23b872dd\n        /* \"contracts/Bet.sol\":2727:2737  msg.sender */\n      caller\n        /* \"contracts/Bet.sol\":2747:2751  this */\n      address\n        /* \"contracts/Bet.sol\":2754:2761  _amount */\n      dup6\n        /* \"contracts/Bet.sol\":2702:2762  bonsaiToken.transferFrom(msg.sender, address(this), _amount) */\n      mload(0x40)\n      dup5\n      0xffffffff\n      and\n      0xe0\n      shl\n      dup2\n      mstore\n      0x04\n      add\n      tag_62\n      swap4\n      swap3\n      swap2\n      swap1\n      tag_63\n      jump\t// in\n    tag_62:\n      0x20\n      mload(0x40)\n      dup1\n      dup4\n      sub\n      dup2\n      0x00\n      dup8\n      gas\n      call\n      iszero\n      dup1\n      iszero\n      tag_65\n      jumpi\n      returndatasize\n      0x00\n      dup1\n      returndatacopy\n      revert(0x00, returndatasize)\n    tag_65:\n      pop\n      pop\n      pop\n      pop\n      mload(0x40)\n      returndatasize\n      not(0x1f)\n      0x1f\n      dup3\n      add\n      and\n      dup3\n      add\n      dup1\n      0x40\n      mstore\n      pop\n      dup2\n      add\n      swap1\n      tag_66\n      swap2\n      swap1\n      tag_67\n      jump\t// in\n    tag_66:\n        /* \"contracts/Bet.sol\":2694:2782  require(bonsaiToken.transferFrom(msg.sender, address(this), _amount), \"Transfer failed\") */\n      tag_68\n      jumpi\n      mload(0x40)\n      0x08c379a000000000000000000000000000000000000000000000000000000000\n      dup2\n      mstore\n      0x04\n      add\n      tag_69\n      swap1\n      tag_70\n      jump\t// in\n    tag_69:\n      mload(0x40)\n      dup1\n      swap2\n      sub\n      swap1\n      revert\n    tag_68:\n        /* \"contracts/Bet.sol\":2827:2834  _amount */\n      dup2\n        /* \"contracts/Bet.sol\":2793:2804  betInstance */\n      dup2\n        /* \"contracts/Bet.sol\":2793:2823  betInstance.totalAmountOption1 */\n      0x03\n      add\n      0x00\n        /* \"contracts/Bet.sol\":2793:2834  betInstance.totalAmountOption1 += _amount */\n      dup3\n      dup3\n      sload\n      tag_71\n      swap2\n      swap1\n      tag_72\n      jump\t// in\n    tag_71:\n      swap3\n      pop\n      pop\n      dup2\n      swap1\n      sstore\n      pop\n        /* \"contracts/Bet.sol\":2883:2907  Bet(msg.sender, _amount) */\n      mload(0x40)\n      dup1\n      0x40\n      add\n      0x40\n      mstore\n      dup1\n        /* \"contracts/Bet.sol\":2887:2897  msg.sender */\n      caller\n        /* \"contracts/Bet.sol\":2883:2907  Bet(msg.sender, _amount) */\n      0xffffffffffffffffffffffffffffffffffffffff\n      and\n      dup2\n      mstore\n      0x20\n      add\n        /* \"contracts/Bet.sol\":2899:2906  _amount */\n      dup4\n        /* \"contracts/Bet.sol\":2883:2907  Bet(msg.sender, _amount) */\n      dup2\n      mstore\n      pop\n        /* \"contracts/Bet.sol\":2845:2856  betInstance */\n      dup2\n        /* \"contracts/Bet.sol\":2845:2868  betInstance.betsoption1 */\n      0x05\n      add\n        /* \"contracts/Bet.sol\":2845:2880  betInstance.betsoption1[msg.sender] */\n      0x00\n        /* \"contracts/Bet.sol\":2869:2879  msg.sender */\n      caller\n        /* \"contracts/Bet.sol\":2845:2880  betInstance.betsoption1[msg.sender] */\n      0xffffffffffffffffffffffffffffffffffffffff\n      and\n      0xffffffffffffffffffffffffffffffffffffffff\n      and\n      dup2\n      mstore\n      0x20\n      add\n      swap1\n      dup2\n      mstore\n      0x20\n      add\n      0x00\n      keccak256\n        /* \"contracts/Bet.sol\":2845:2907  betInstance.betsoption1[msg.sender] = Bet(msg.sender, _amount) */\n      0x00\n      dup3\n      add\n      mload\n      dup2\n      0x00\n      add\n      exp(0x0100, 0x00)\n      dup2\n      sload\n      dup2\n      0xffffffffffffffffffffffffffffffffffffffff\n      mul\n      not\n      and\n      swap1\n      dup4\n      0xffffffffffffffffffffffffffffffffffffffff\n      and\n      mul\n      or\n      swap1\n      sstore\n      pop\n      0x20\n      dup3\n      add\n      mload\n      dup2\n      0x01\n      add\n      sstore\n      swap1\n      pop\n      pop\n        /* \"contracts/Bet.sol\":2918:2929  betInstance */\n      dup1\n        /* \"contracts/Bet.sol\":2918:2944  betInstance.bettorsoption1 */\n      0x07\n      add\n        /* \"contracts/Bet.sol\":2950:2960  msg.sender */\n      caller\n        /* \"contracts/Bet.sol\":2918:2961  betInstance.bettorsoption1.push(msg.sender) */\n      swap1\n      dup1\n      0x01\n      dup2\n      sload\n      add\n      dup1\n      dup3\n      sstore\n      dup1\n      swap2\n      pop\n      pop\n      0x01\n      swap1\n      sub\n      swap1\n      0x00\n      mstore\n      keccak256(0x00, 0x20)\n      add\n      0x00\n      swap1\n      swap2\n      swap1\n      swap2\n      swap1\n      swap2\n      0x0100\n      exp\n      dup2\n      sload\n      dup2\n      0xffffffffffffffffffffffffffffffffffffffff\n      mul\n      not\n      and\n      swap1\n      dup4\n      0xffffffffffffffffffffffffffffffffffffffff\n      and\n      mul\n      or\n      swap1\n      sstore\n      pop\n        /* \"contracts/Bet.sol\":3005:3015  msg.sender */\n      caller\n        /* \"contracts/Bet.sol\":2987:3028  BetPlaced(_betId, msg.sender, _amount, 1) */\n      0xffffffffffffffffffffffffffffffffffffffff\n      and\n        /* \"contracts/Bet.sol\":2997:3003  _betId */\n      dup5\n      dup5\n        /* \"contracts/Bet.sol\":2987:3028  BetPlaced(_betId, msg.sender, _amount, 1) */\n      mload(0x40)\n      tag_74\n      swap3\n      swap2\n      swap1\n      tag_40\n      jump\t// in\n    tag_74:\n      mload(0x40)\n      dup1\n      swap2\n      sub\n      swap1\n      keccak256\n      0x25d0b2e7d8a0da3bb9aa3019cd218e49ea828b3201ec9ed950ce9709357b4ee4\n        /* \"contracts/Bet.sol\":3017:3024  _amount */\n      dup5\n        /* \"contracts/Bet.sol\":3026:3027  1 */\n      0x01\n        /* \"contracts/Bet.sol\":2987:3028  BetPlaced(_betId, msg.sender, _amount, 1) */\n      mload(0x40)\n      tag_75\n      swap3\n      swap2\n      swap1\n      tag_76\n      jump\t// in\n    tag_75:\n      mload(0x40)\n      dup1\n      swap2\n      sub\n      swap1\n      log3\n        /* \"contracts/Bet.sol\":2472:3036  {... */\n      pop\n        /* \"contracts/Bet.sol\":2395:3036  function placeBetOnoption1(string calldata _betId, uint256 _amount) external {... */\n      pop\n      pop\n      pop\n      jump\t// out\n        /* \"contracts/Bet.sol\":4110:4592  function getTotalAmounts(string calldata _betId) external view returns (uint256 total, uint256 totaloption1, uint256 totaloption2, bool isClosed, bool isResolved) {... */\n    tag_22:\n        /* \"contracts/Bet.sol\":4182:4195  uint256 total */\n      0x00\n        /* \"contracts/Bet.sol\":4197:4217  uint256 totaloption1 */\n      dup1\n        /* \"contracts/Bet.sol\":4219:4239  uint256 totaloption2 */\n      0x00\n        /* \"contracts/Bet.sol\":4241:4254  bool isClosed */\n      dup1\n        /* \"contracts/Bet.sol\":4256:4271  bool isResolved */\n      0x00\n        /* \"contracts/Bet.sol\":4284:4315  BetInstance storage betInstance */\n      dup1\n        /* \"contracts/Bet.sol\":4318:4330  betInstances */\n      0x01\n        /* \"contracts/Bet.sol\":4331:4337  _betId */\n      dup9\n      dup9\n        /* \"contracts/Bet.sol\":4318:4338  betInstances[_betId] */\n      mload(0x40)\n      tag_78\n      swap3\n      swap2\n      swap1\n      tag_40\n      jump\t// in\n    tag_78:\n      swap1\n      dup2\n      mstore\n      0x20\n      add\n      mload(0x40)\n      dup1\n      swap2\n      sub\n      swap1\n      keccak256\n        /* \"contracts/Bet.sol\":4284:4338  BetInstance storage betInstance = betInstances[_betId] */\n      swap1\n      pop\n        /* \"contracts/Bet.sol\":4364:4375  betInstance */\n      dup1\n        /* \"contracts/Bet.sol\":4364:4394  betInstance.totalAmountOption1 */\n      0x03\n      add\n      sload\n        /* \"contracts/Bet.sol\":4349:4394  totaloption1 = betInstance.totalAmountOption1 */\n      swap5\n      pop\n        /* \"contracts/Bet.sol\":4420:4431  betInstance */\n      dup1\n        /* \"contracts/Bet.sol\":4420:4450  betInstance.totalAmountOption2 */\n      0x04\n      add\n      sload\n        /* \"contracts/Bet.sol\":4405:4450  totaloption2 = betInstance.totalAmountOption2 */\n      swap4\n      pop\n        /* \"contracts/Bet.sol\":4484:4496  totaloption2 */\n      dup4\n        /* \"contracts/Bet.sol\":4469:4481  totaloption1 */\n      dup6\n        /* \"contracts/Bet.sol\":4469:4496  totaloption1 + totaloption2 */\n      tag_79\n      swap2\n      swap1\n      tag_72\n      jump\t// in\n    tag_79:\n        /* \"contracts/Bet.sol\":4461:4496  total = totaloption1 + totaloption2 */\n      swap6\n      pop\n        /* \"contracts/Bet.sol\":4518:4529  betInstance */\n      dup1\n        /* \"contracts/Bet.sol\":4518:4538  betInstance.isClosed */\n      0x09\n      add\n      0x14\n      swap1\n      sload\n      swap1\n      0x0100\n      exp\n      swap1\n      div\n      0xff\n      and\n        /* \"contracts/Bet.sol\":4507:4538  isClosed = betInstance.isClosed */\n      swap3\n      pop\n        /* \"contracts/Bet.sol\":4562:4573  betInstance */\n      dup1\n        /* \"contracts/Bet.sol\":4562:4584  betInstance.isResolved */\n      0x09\n      add\n      0x15\n      swap1\n      sload\n      swap1\n      0x0100\n      exp\n      swap1\n      div\n      0xff\n      and\n        /* \"contracts/Bet.sol\":4549:4584  isResolved = betInstance.isResolved */\n      swap2\n      pop\n        /* \"contracts/Bet.sol\":4273:4592  {... */\n      pop\n        /* \"contracts/Bet.sol\":4110:4592  function getTotalAmounts(string calldata _betId) external view returns (uint256 total, uint256 totaloption1, uint256 totaloption2, bool isClosed, bool isResolved) {... */\n      swap3\n      swap6\n      pop\n      swap3\n      swap6\n      swap1\n      swap4\n      pop\n      jump\t// out\n        /* \"contracts/Bet.sol\":3916:4102  function openBetting(string calldata _betId) external onlyCreator(_betId) {... */\n    tag_27:\n        /* \"contracts/Bet.sol\":3982:3988  _betId */\n      dup2\n      dup2\n        /* \"contracts/Bet.sol\":1534:1677  modifier onlyCreator(string memory _betId) {... */\n      dup1\n      dup1\n      0x1f\n      add\n      0x20\n      dup1\n      swap2\n      div\n      mul\n      0x20\n      add\n      mload(0x40)\n      swap1\n      dup2\n      add\n      0x40\n      mstore\n      dup1\n      swap4\n      swap3\n      swap2\n      swap1\n      dup2\n      dup2\n      mstore\n      0x20\n      add\n      dup4\n      dup4\n      dup1\n      dup3\n      dup5\n      calldatacopy\n      0x00\n      dup2\n      dup5\n      add\n      mstore\n      not(0x1f)\n      0x1f\n      dup3\n      add\n      and\n      swap1\n      pop\n      dup1\n      dup4\n      add\n      swap3\n      pop\n      pop\n      pop\n      pop\n      pop\n      pop\n      pop\n        /* \"contracts/Bet.sol\":1610:1622  betInstances */\n      0x01\n        /* \"contracts/Bet.sol\":1623:1629  _betId */\n      dup2\n        /* \"contracts/Bet.sol\":1610:1630  betInstances[_betId] */\n      mload(0x40)\n      tag_81\n      swap2\n      swap1\n      tag_82\n      jump\t// in\n    tag_81:\n      swap1\n      dup2\n      mstore\n      0x20\n      add\n      mload(0x40)\n      dup1\n      swap2\n      sub\n      swap1\n      keccak256\n        /* \"contracts/Bet.sol\":1610:1638  betInstances[_betId].creator */\n      0x09\n      add\n      0x00\n      swap1\n      sload\n      swap1\n      0x0100\n      exp\n      swap1\n      div\n      0xffffffffffffffffffffffffffffffffffffffff\n      and\n        /* \"contracts/Bet.sol\":1596:1638  msg.sender == betInstances[_betId].creator */\n      0xffffffffffffffffffffffffffffffffffffffff\n      and\n        /* \"contracts/Bet.sol\":1596:1606  msg.sender */\n      caller\n        /* \"contracts/Bet.sol\":1596:1638  msg.sender == betInstances[_betId].creator */\n      0xffffffffffffffffffffffffffffffffffffffff\n      and\n      eq\n        /* \"contracts/Bet.sol\":1588:1657  require(msg.sender == betInstances[_betId].creator, \"Not authorized\") */\n      tag_83\n      jumpi\n      mload(0x40)\n      0x08c379a000000000000000000000000000000000000000000000000000000000\n      dup2\n      mstore\n      0x04\n      add\n      tag_84\n      swap1\n      tag_85\n      jump\t// in\n    tag_84:\n      mload(0x40)\n      dup1\n      swap2\n      sub\n      swap1\n      revert\n    tag_83:\n        /* \"contracts/Bet.sol\":4001:4032  BetInstance storage betInstance */\n      0x00\n        /* \"contracts/Bet.sol\":4035:4047  betInstances */\n      0x01\n        /* \"contracts/Bet.sol\":4048:4054  _betId */\n      dup5\n      dup5\n        /* \"contracts/Bet.sol\":4035:4055  betInstances[_betId] */\n      mload(0x40)\n      tag_87\n      swap3\n      swap2\n      swap1\n      tag_40\n      jump\t// in\n    tag_87:\n      swap1\n      dup2\n      mstore\n      0x20\n      add\n      mload(0x40)\n      dup1\n      swap2\n      sub\n      swap1\n      keccak256\n        /* \"contracts/Bet.sol\":4001:4055  BetInstance storage betInstance = betInstances[_betId] */\n      swap1\n      pop\n        /* \"contracts/Bet.sol\":4089:4094  false */\n      0x00\n        /* \"contracts/Bet.sol\":4066:4077  betInstance */\n      dup2\n        /* \"contracts/Bet.sol\":4066:4086  betInstance.isClosed */\n      0x09\n      add\n      0x14\n        /* \"contracts/Bet.sol\":4066:4094  betInstance.isClosed = false */\n      0x0100\n      exp\n      dup2\n      sload\n      dup2\n      0xff\n      mul\n      not\n      and\n      swap1\n      dup4\n      iszero\n      iszero\n      mul\n      or\n      swap1\n      sstore\n      pop\n        /* \"contracts/Bet.sol\":3990:4102  {... */\n      pop\n        /* \"contracts/Bet.sol\":3916:4102  function openBetting(string calldata _betId) external onlyCreator(_betId) {... */\n      pop\n      pop\n      pop\n      jump\t// out\n        /* \"contracts/Bet.sol\":3685:3908  function closeBetting(string calldata _betId) external onlyCreator(_betId) {... */\n    tag_30:\n        /* \"contracts/Bet.sol\":3752:3758  _betId */\n      dup2\n      dup2\n        /* \"contracts/Bet.sol\":1534:1677  modifier onlyCreator(string memory _betId) {... */\n      dup1\n      dup1\n      0x1f\n      add\n      0x20\n      dup1\n      swap2\n      div\n      mul\n      0x20\n      add\n      mload(0x40)\n      swap1\n      dup2\n      add\n      0x40\n      mstore\n      dup1\n      swap4\n      swap3\n      swap2\n      swap1\n      dup2\n      dup2\n      mstore\n      0x20\n      add\n      dup4\n      dup4\n      dup1\n      dup3\n      dup5\n      calldatacopy\n      0x00\n      dup2\n      dup5\n      add\n      mstore\n      not(0x1f)\n      0x1f\n      dup3\n      add\n      and\n      swap1\n      pop\n      dup1\n      dup4\n      add\n      swap3\n      pop\n      pop\n      pop\n      pop\n      pop\n      pop\n      pop\n        /* \"contracts/Bet.sol\":1610:1622  betInstances */\n      0x01\n        /* \"contracts/Bet.sol\":1623:1629  _betId */\n      dup2\n        /* \"contracts/Bet.sol\":1610:1630  betInstances[_betId] */\n      mload(0x40)\n      tag_89\n      swap2\n      swap1\n      tag_82\n      jump\t// in\n    tag_89:\n      swap1\n      dup2\n      mstore\n      0x20\n      add\n      mload(0x40)\n      dup1\n      swap2\n      sub\n      swap1\n      keccak256\n        /* \"contracts/Bet.sol\":1610:1638  betInstances[_betId].creator */\n      0x09\n      add\n      0x00\n      swap1\n      sload\n      swap1\n      0x0100\n      exp\n      swap1\n      div\n      0xffffffffffffffffffffffffffffffffffffffff\n      and\n        /* \"contracts/Bet.sol\":1596:1638  msg.sender == betInstances[_betId].creator */\n      0xffffffffffffffffffffffffffffffffffffffff\n      and\n        /* \"contracts/Bet.sol\":1596:1606  msg.sender */\n      caller\n        /* \"contracts/Bet.sol\":1596:1638  msg.sender == betInstances[_betId].creator */\n      0xffffffffffffffffffffffffffffffffffffffff\n      and\n      eq\n        /* \"contracts/Bet.sol\":1588:1657  require(msg.sender == betInstances[_betId].creator, \"Not authorized\") */\n      tag_90\n      jumpi\n      mload(0x40)\n      0x08c379a000000000000000000000000000000000000000000000000000000000\n      dup2\n      mstore\n      0x04\n      add\n      tag_91\n      swap1\n      tag_85\n      jump\t// in\n    tag_91:\n      mload(0x40)\n      dup1\n      swap2\n      sub\n      swap1\n      revert\n    tag_90:\n        /* \"contracts/Bet.sol\":3771:3802  BetInstance storage betInstance */\n      0x00\n        /* \"contracts/Bet.sol\":3805:3817  betInstances */\n      0x01\n        /* \"contracts/Bet.sol\":3818:3824  _betId */\n      dup5\n      dup5\n        /* \"contracts/Bet.sol\":3805:3825  betInstances[_betId] */\n      mload(0x40)\n      tag_93\n      swap3\n      swap2\n      swap1\n      tag_40\n      jump\t// in\n    tag_93:\n      swap1\n      dup2\n      mstore\n      0x20\n      add\n      mload(0x40)\n      dup1\n      swap2\n      sub\n      swap1\n      keccak256\n        /* \"contracts/Bet.sol\":3771:3825  BetInstance storage betInstance = betInstances[_betId] */\n      swap1\n      pop\n        /* \"contracts/Bet.sol\":3859:3863  true */\n      0x01\n        /* \"contracts/Bet.sol\":3836:3847  betInstance */\n      dup2\n        /* \"contracts/Bet.sol\":3836:3856  betInstance.isClosed */\n      0x09\n      add\n      0x14\n        /* \"contracts/Bet.sol\":3836:3863  betInstance.isClosed = true */\n      0x0100\n      exp\n      dup2\n      sload\n      dup2\n      0xff\n      mul\n      not\n      and\n      swap1\n      dup4\n      iszero\n      iszero\n      mul\n      or\n      swap1\n      sstore\n      pop\n        /* \"contracts/Bet.sol\":3893:3899  _betId */\n      dup4\n      dup4\n        /* \"contracts/Bet.sol\":3879:3900  BettingClosed(_betId) */\n      mload(0x40)\n      tag_94\n      swap3\n      swap2\n      swap1\n      tag_40\n      jump\t// in\n    tag_94:\n      mload(0x40)\n      dup1\n      swap2\n      sub\n      swap1\n      keccak256\n      0x7b02cf1900235aacaf412760f88ae7e04c207bc4a1cae3d6a08b65d3542efab0\n      mload(0x40)\n      mload(0x40)\n      dup1\n      swap2\n      sub\n      swap1\n      log2\n        /* \"contracts/Bet.sol\":3760:3908  {... */\n      pop\n        /* \"contracts/Bet.sol\":3685:3908  function closeBetting(string calldata _betId) external onlyCreator(_betId) {... */\n      pop\n      pop\n      pop\n      jump\t// out\n        /* \"contracts/Bet.sol\":4600:6803  function distributeWinnings(string calldata _betId, uint8 _winningTeam) external onlyCreator(_betId) {... */\n    tag_34:\n        /* \"contracts/Bet.sol\":4693:4699  _betId */\n      dup3\n      dup3\n        /* \"contracts/Bet.sol\":1534:1677  modifier onlyCreator(string memory _betId) {... */\n      dup1\n      dup1\n      0x1f\n      add\n      0x20\n      dup1\n      swap2\n      div\n      mul\n      0x20\n      add\n      mload(0x40)\n      swap1\n      dup2\n      add\n      0x40\n      mstore\n      dup1\n      swap4\n      swap3\n      swap2\n      swap1\n      dup2\n      dup2\n      mstore\n      0x20\n      add\n      dup4\n      dup4\n      dup1\n      dup3\n      dup5\n      calldatacopy\n      0x00\n      dup2\n      dup5\n      add\n      mstore\n      not(0x1f)\n      0x1f\n      dup3\n      add\n      and\n      swap1\n      pop\n      dup1\n      dup4\n      add\n      swap3\n      pop\n      pop\n      pop\n      pop\n      pop\n      pop\n      pop\n        /* \"contracts/Bet.sol\":1610:1622  betInstances */\n      0x01\n        /* \"contracts/Bet.sol\":1623:1629  _betId */\n      dup2\n        /* \"contracts/Bet.sol\":1610:1630  betInstances[_betId] */\n      mload(0x40)\n      tag_96\n      swap2\n      swap1\n      tag_82\n      jump\t// in\n    tag_96:\n      swap1\n      dup2\n      mstore\n      0x20\n      add\n      mload(0x40)\n      dup1\n      swap2\n      sub\n      swap1\n      keccak256\n        /* \"contracts/Bet.sol\":1610:1638  betInstances[_betId].creator */\n      0x09\n      add\n      0x00\n      swap1\n      sload\n      swap1\n      0x0100\n      exp\n      swap1\n      div\n      0xffffffffffffffffffffffffffffffffffffffff\n      and\n        /* \"contracts/Bet.sol\":1596:1638  msg.sender == betInstances[_betId].creator */\n      0xffffffffffffffffffffffffffffffffffffffff\n      and\n        /* \"contracts/Bet.sol\":1596:1606  msg.sender */\n      caller\n        /* \"contracts/Bet.sol\":1596:1638  msg.sender == betInstances[_betId].creator */\n      0xffffffffffffffffffffffffffffffffffffffff\n      and\n      eq\n        /* \"contracts/Bet.sol\":1588:1657  require(msg.sender == betInstances[_betId].creator, \"Not authorized\") */\n      tag_97\n      jumpi\n      mload(0x40)\n      0x08c379a000000000000000000000000000000000000000000000000000000000\n      dup2\n      mstore\n      0x04\n      add\n      tag_98\n      swap1\n      tag_85\n      jump\t// in\n    tag_98:\n      mload(0x40)\n      dup1\n      swap2\n      sub\n      swap1\n      revert\n    tag_97:\n        /* \"contracts/Bet.sol\":4736:4737  1 */\n      0x01\n        /* \"contracts/Bet.sol\":4720:4732  _winningTeam */\n      dup3\n        /* \"contracts/Bet.sol\":4720:4737  _winningTeam == 1 */\n      0xff\n      and\n      eq\n        /* \"contracts/Bet.sol\":4720:4758  _winningTeam == 1 || _winningTeam == 2 */\n      dup1\n      tag_100\n      jumpi\n      pop\n        /* \"contracts/Bet.sol\":4757:4758  2 */\n      0x02\n        /* \"contracts/Bet.sol\":4741:4753  _winningTeam */\n      dup3\n        /* \"contracts/Bet.sol\":4741:4758  _winningTeam == 2 */\n      0xff\n      and\n      eq\n        /* \"contracts/Bet.sol\":4720:4758  _winningTeam == 1 || _winningTeam == 2 */\n    tag_100:\n        /* \"contracts/Bet.sol\":4712:4783  require(_winningTeam == 1 || _winningTeam == 2, \"Invalid winning team\") */\n      tag_101\n      jumpi\n      mload(0x40)\n      0x08c379a000000000000000000000000000000000000000000000000000000000\n      dup2\n      mstore\n      0x04\n      add\n      tag_102\n      swap1\n      tag_103\n      jump\t// in\n    tag_102:\n      mload(0x40)\n      dup1\n      swap2\n      sub\n      swap1\n      revert\n    tag_101:\n        /* \"contracts/Bet.sol\":4796:4827  BetInstance storage betInstance */\n      0x00\n        /* \"contracts/Bet.sol\":4830:4842  betInstances */\n      0x01\n        /* \"contracts/Bet.sol\":4843:4849  _betId */\n      dup6\n      dup6\n        /* \"contracts/Bet.sol\":4830:4850  betInstances[_betId] */\n      mload(0x40)\n      tag_104\n      swap3\n      swap2\n      swap1\n      tag_40\n      jump\t// in\n    tag_104:\n      swap1\n      dup2\n      mstore\n      0x20\n      add\n      mload(0x40)\n      dup1\n      swap2\n      sub\n      swap1\n      keccak256\n        /* \"contracts/Bet.sol\":4796:4850  BetInstance storage betInstance = betInstances[_betId] */\n      swap1\n      pop\n        /* \"contracts/Bet.sol\":4869:4880  betInstance */\n      dup1\n        /* \"contracts/Bet.sol\":4869:4889  betInstance.isClosed */\n      0x09\n      add\n      0x14\n      swap1\n      sload\n      swap1\n      0x0100\n      exp\n      swap1\n      div\n      0xff\n      and\n        /* \"contracts/Bet.sol\":4869:4916  betInstance.isClosed && !betInstance.isResolved */\n      dup1\n      iszero\n      tag_105\n      jumpi\n      pop\n        /* \"contracts/Bet.sol\":4894:4905  betInstance */\n      dup1\n        /* \"contracts/Bet.sol\":4894:4916  betInstance.isResolved */\n      0x09\n      add\n      0x15\n      swap1\n      sload\n      swap1\n      0x0100\n      exp\n      swap1\n      div\n      0xff\n      and\n        /* \"contracts/Bet.sol\":4893:4916  !betInstance.isResolved */\n      iszero\n        /* \"contracts/Bet.sol\":4869:4916  betInstance.isClosed && !betInstance.isResolved */\n    tag_105:\n        /* \"contracts/Bet.sol\":4861:4960  require(betInstance.isClosed && !betInstance.isResolved, \"Betting must be closed and not resolved\") */\n      tag_106\n      jumpi\n      mload(0x40)\n      0x08c379a000000000000000000000000000000000000000000000000000000000\n      dup2\n      mstore\n      0x04\n      add\n      tag_107\n      swap1\n      tag_108\n      jump\t// in\n    tag_107:\n      mload(0x40)\n      dup1\n      swap2\n      sub\n      swap1\n      revert\n    tag_106:\n        /* \"contracts/Bet.sol\":4973:5004  uint256 totalAmountToDistribute */\n      0x00\n        /* \"contracts/Bet.sol\":5040:5051  betInstance */\n      dup2\n        /* \"contracts/Bet.sol\":5040:5070  betInstance.totalAmountOption2 */\n      0x04\n      add\n      sload\n        /* \"contracts/Bet.sol\":5007:5018  betInstance */\n      dup3\n        /* \"contracts/Bet.sol\":5007:5037  betInstance.totalAmountOption1 */\n      0x03\n      add\n      sload\n        /* \"contracts/Bet.sol\":5007:5070  betInstance.totalAmountOption1 + betInstance.totalAmountOption2 */\n      tag_109\n      swap2\n      swap1\n      tag_72\n      jump\t// in\n    tag_109:\n        /* \"contracts/Bet.sol\":4973:5070  uint256 totalAmountToDistribute = betInstance.totalAmountOption1 + betInstance.totalAmountOption2 */\n      swap1\n      pop\n        /* \"contracts/Bet.sol\":5081:5111  uint256 totalAmountWinningTeam */\n      0x00\n        /* \"contracts/Bet.sol\":5206:5207  1 */\n      0x01\n        /* \"contracts/Bet.sol\":5190:5202  _winningTeam */\n      dup6\n        /* \"contracts/Bet.sol\":5190:5207  _winningTeam == 1 */\n      0xff\n      and\n      sub\n        /* \"contracts/Bet.sol\":5186:5537  if (_winningTeam == 1) {... */\n      tag_110\n      jumpi\n        /* \"contracts/Bet.sol\":5265:5266  0 */\n      0x00\n        /* \"contracts/Bet.sol\":5232:5243  betInstance */\n      dup4\n        /* \"contracts/Bet.sol\":5232:5262  betInstance.totalAmountOption1 */\n      0x03\n      add\n      sload\n        /* \"contracts/Bet.sol\":5232:5266  betInstance.totalAmountOption1 > 0 */\n      gt\n        /* \"contracts/Bet.sol\":5224:5288  require(betInstance.totalAmountOption1 > 0, \"No bets on Team 1\") */\n      tag_111\n      jumpi\n      mload(0x40)\n      0x08c379a000000000000000000000000000000000000000000000000000000000\n      dup2\n      mstore\n      0x04\n      add\n      tag_112\n      swap1\n      tag_113\n      jump\t// in\n    tag_112:\n      mload(0x40)\n      dup1\n      swap2\n      sub\n      swap1\n      revert\n    tag_111:\n        /* \"contracts/Bet.sol\":5328:5339  betInstance */\n      dup3\n        /* \"contracts/Bet.sol\":5328:5358  betInstance.totalAmountOption1 */\n      0x03\n      add\n      sload\n        /* \"contracts/Bet.sol\":5303:5358  totalAmountWinningTeam = betInstance.totalAmountOption1 */\n      swap1\n      pop\n        /* \"contracts/Bet.sol\":5186:5537  if (_winningTeam == 1) {... */\n      jump(tag_114)\n    tag_110:\n        /* \"contracts/Bet.sol\":5432:5433  0 */\n      0x00\n        /* \"contracts/Bet.sol\":5399:5410  betInstance */\n      dup4\n        /* \"contracts/Bet.sol\":5399:5429  betInstance.totalAmountOption2 */\n      0x04\n      add\n      sload\n        /* \"contracts/Bet.sol\":5399:5433  betInstance.totalAmountOption2 > 0 */\n      gt\n        /* \"contracts/Bet.sol\":5391:5455  require(betInstance.totalAmountOption2 > 0, \"No bets on Team 2\") */\n      tag_115\n      jumpi\n      mload(0x40)\n      0x08c379a000000000000000000000000000000000000000000000000000000000\n      dup2\n      mstore\n      0x04\n      add\n      tag_116\n      swap1\n      tag_117\n      jump\t// in\n    tag_116:\n      mload(0x40)\n      dup1\n      swap2\n      sub\n      swap1\n      revert\n    tag_115:\n        /* \"contracts/Bet.sol\":5495:5506  betInstance */\n      dup3\n        /* \"contracts/Bet.sol\":5495:5525  betInstance.totalAmountOption2 */\n      0x04\n      add\n      sload\n        /* \"contracts/Bet.sol\":5470:5525  totalAmountWinningTeam = betInstance.totalAmountOption2 */\n      swap1\n      pop\n        /* \"contracts/Bet.sol\":5186:5537  if (_winningTeam == 1) {... */\n    tag_114:\n        /* \"contracts/Bet.sol\":5627:5638  uint256 fee */\n      0x00\n        /* \"contracts/Bet.sol\":5667:5670  100 */\n      0x64\n        /* \"contracts/Bet.sol\":5641:5664  totalAmountToDistribute */\n      dup4\n        /* \"contracts/Bet.sol\":5641:5670  totalAmountToDistribute / 100 */\n      tag_118\n      swap2\n      swap1\n      tag_119\n      jump\t// in\n    tag_118:\n        /* \"contracts/Bet.sol\":5627:5670  uint256 fee = totalAmountToDistribute / 100 */\n      swap1\n      pop\n        /* \"contracts/Bet.sol\":5681:5699  uint256 creatorFee */\n      0x00\n        /* \"contracts/Bet.sol\":5702:5705  fee */\n      dup2\n        /* \"contracts/Bet.sol\":5681:5705  uint256 creatorFee = fee */\n      swap1\n      pop\n        /* \"contracts/Bet.sol\":5716:5739  uint256 remainingAmount */\n      0x00\n        /* \"contracts/Bet.sol\":5774:5784  creatorFee */\n      dup2\n        /* \"contracts/Bet.sol\":5768:5771  fee */\n      dup4\n        /* \"contracts/Bet.sol\":5742:5765  totalAmountToDistribute */\n      dup7\n        /* \"contracts/Bet.sol\":5742:5771  totalAmountToDistribute - fee */\n      tag_120\n      swap2\n      swap1\n      tag_121\n      jump\t// in\n    tag_120:\n        /* \"contracts/Bet.sol\":5742:5784  totalAmountToDistribute - fee - creatorFee */\n      tag_122\n      swap2\n      swap1\n      tag_121\n      jump\t// in\n    tag_122:\n        /* \"contracts/Bet.sol\":5716:5784  uint256 remainingAmount = totalAmountToDistribute - fee - creatorFee */\n      swap1\n      pop\n        /* \"contracts/Bet.sol\":5813:5824  bonsaiToken */\n      0x02\n      0x00\n      swap1\n      sload\n      swap1\n      0x0100\n      exp\n      swap1\n      div\n      0xffffffffffffffffffffffffffffffffffffffff\n      and\n        /* \"contracts/Bet.sol\":5813:5833  bonsaiToken.transfer */\n      0xffffffffffffffffffffffffffffffffffffffff\n      and\n      0xa9059cbb\n        /* \"contracts/Bet.sol\":417:459  0xD7bF67d127Ea9c7F58122E965F2F7aE8f1b5032E */\n      0xd7bf67d127ea9c7f58122e965f2f7ae8f1b5032e\n        /* \"contracts/Bet.sol\":5847:5850  fee */\n      dup6\n        /* \"contracts/Bet.sol\":5813:5851  bonsaiToken.transfer(FEE_ADDRESS, fee) */\n      mload(0x40)\n      dup4\n      0xffffffff\n      and\n      0xe0\n      shl\n      dup2\n      mstore\n      0x04\n      add\n      tag_123\n      swap3\n      swap2\n      swap1\n      tag_124\n      jump\t// in\n    tag_123:\n      0x20\n      mload(0x40)\n      dup1\n      dup4\n      sub\n      dup2\n      0x00\n      dup8\n      gas\n      call\n      iszero\n      dup1\n      iszero\n      tag_126\n      jumpi\n      returndatasize\n      0x00\n      dup1\n      returndatacopy\n      revert(0x00, returndatasize)\n    tag_126:\n      pop\n      pop\n      pop\n      pop\n      mload(0x40)\n      returndatasize\n      not(0x1f)\n      0x1f\n      dup3\n      add\n      and\n      dup3\n      add\n      dup1\n      0x40\n      mstore\n      pop\n      dup2\n      add\n      swap1\n      tag_127\n      swap2\n      swap1\n      tag_67\n      jump\t// in\n    tag_127:\n        /* \"contracts/Bet.sol\":5805:5875  require(bonsaiToken.transfer(FEE_ADDRESS, fee), \"Fee transfer failed\") */\n      tag_128\n      jumpi\n      mload(0x40)\n      0x08c379a000000000000000000000000000000000000000000000000000000000\n      dup2\n      mstore\n      0x04\n      add\n      tag_129\n      swap1\n      tag_130\n      jump\t// in\n    tag_129:\n      mload(0x40)\n      dup1\n      swap2\n      sub\n      swap1\n      revert\n    tag_128:\n        /* \"contracts/Bet.sol\":5894:5905  bonsaiToken */\n      0x02\n      0x00\n      swap1\n      sload\n      swap1\n      0x0100\n      exp\n      swap1\n      div\n      0xffffffffffffffffffffffffffffffffffffffff\n      and\n        /* \"contracts/Bet.sol\":5894:5914  bonsaiToken.transfer */\n      0xffffffffffffffffffffffffffffffffffffffff\n      and\n      0xa9059cbb\n        /* \"contracts/Bet.sol\":5915:5926  betInstance */\n      dup8\n        /* \"contracts/Bet.sol\":5915:5934  betInstance.creator */\n      0x09\n      add\n      0x00\n      swap1\n      sload\n      swap1\n      0x0100\n      exp\n      swap1\n      div\n      0xffffffffffffffffffffffffffffffffffffffff\n      and\n        /* \"contracts/Bet.sol\":5936:5946  creatorFee */\n      dup5\n        /* \"contracts/Bet.sol\":5894:5947  bonsaiToken.transfer(betInstance.creator, creatorFee) */\n      mload(0x40)\n      dup4\n      0xffffffff\n      and\n      0xe0\n      shl\n      dup2\n      mstore\n      0x04\n      add\n      tag_131\n      swap3\n      swap2\n      swap1\n      tag_124\n      jump\t// in\n    tag_131:\n      0x20\n      mload(0x40)\n      dup1\n      dup4\n      sub\n      dup2\n      0x00\n      dup8\n      gas\n      call\n      iszero\n      dup1\n      iszero\n      tag_133\n      jumpi\n      returndatasize\n      0x00\n      dup1\n      returndatacopy\n      revert(0x00, returndatasize)\n    tag_133:\n      pop\n      pop\n      pop\n      pop\n      mload(0x40)\n      returndatasize\n      not(0x1f)\n      0x1f\n      dup3\n      add\n      and\n      dup3\n      add\n      dup1\n      0x40\n      mstore\n      pop\n      dup2\n      add\n      swap1\n      tag_134\n      swap2\n      swap1\n      tag_67\n      jump\t// in\n    tag_134:\n        /* \"contracts/Bet.sol\":5886:5979  require(bonsaiToken.transfer(betInstance.creator, creatorFee), \"Creator fee transfer failed\") */\n      tag_135\n      jumpi\n      mload(0x40)\n      0x08c379a000000000000000000000000000000000000000000000000000000000\n      dup2\n      mstore\n      0x04\n      add\n      tag_136\n      swap1\n      tag_137\n      jump\t// in\n    tag_136:\n      mload(0x40)\n      dup1\n      swap2\n      sub\n      swap1\n      revert\n    tag_135:\n        /* \"contracts/Bet.sol\":6053:6077  address[] memory winners */\n      0x00\n        /* \"contracts/Bet.sol\":6097:6098  1 */\n      0x01\n        /* \"contracts/Bet.sol\":6081:6093  _winningTeam */\n      dup10\n        /* \"contracts/Bet.sol\":6081:6098  _winningTeam == 1 */\n      0xff\n      and\n      eq\n        /* \"contracts/Bet.sol\":6080:6157  (_winningTeam == 1) ? betInstance.bettorsoption1 : betInstance.bettorsoption2 */\n      tag_138\n      jumpi\n        /* \"contracts/Bet.sol\":6131:6142  betInstance */\n      dup7\n        /* \"contracts/Bet.sol\":6131:6157  betInstance.bettorsoption2 */\n      0x08\n      add\n        /* \"contracts/Bet.sol\":6080:6157  (_winningTeam == 1) ? betInstance.bettorsoption1 : betInstance.bettorsoption2 */\n      jump(tag_139)\n    tag_138:\n        /* \"contracts/Bet.sol\":6102:6113  betInstance */\n      dup7\n        /* \"contracts/Bet.sol\":6102:6128  betInstance.bettorsoption1 */\n      0x07\n      add\n        /* \"contracts/Bet.sol\":6080:6157  (_winningTeam == 1) ? betInstance.bettorsoption1 : betInstance.bettorsoption2 */\n    tag_139:\n        /* \"contracts/Bet.sol\":6053:6157  address[] memory winners = (_winningTeam == 1) ? betInstance.bettorsoption1 : betInstance.bettorsoption2 */\n      dup1\n      sload\n      dup1\n      0x20\n      mul\n      0x20\n      add\n      mload(0x40)\n      swap1\n      dup2\n      add\n      0x40\n      mstore\n      dup1\n      swap3\n      swap2\n      swap1\n      dup2\n      dup2\n      mstore\n      0x20\n      add\n      dup3\n      dup1\n      sload\n      dup1\n      iszero\n      tag_140\n      jumpi\n      0x20\n      mul\n      dup3\n      add\n      swap2\n      swap1\n      0x00\n      mstore\n      keccak256(0x00, 0x20)\n      swap1\n    tag_141:\n      dup2\n      0x00\n      swap1\n      sload\n      swap1\n      0x0100\n      exp\n      swap1\n      div\n      0xffffffffffffffffffffffffffffffffffffffff\n      and\n      0xffffffffffffffffffffffffffffffffffffffff\n      and\n      dup2\n      mstore\n      0x20\n      add\n      swap1\n      0x01\n      add\n      swap1\n      dup1\n      dup4\n      gt\n      tag_141\n      jumpi\n    tag_140:\n      pop\n      pop\n      pop\n      pop\n      pop\n      swap1\n      pop\n        /* \"contracts/Bet.sol\":6173:6182  uint256 i */\n      0x00\n        /* \"contracts/Bet.sol\":6168:6701  for (uint256 i = 0; i < winners.length; i++) {... */\n    tag_142:\n        /* \"contracts/Bet.sol\":6192:6199  winners */\n      dup2\n        /* \"contracts/Bet.sol\":6192:6206  winners.length */\n      mload\n        /* \"contracts/Bet.sol\":6188:6189  i */\n      dup2\n        /* \"contracts/Bet.sol\":6188:6206  i < winners.length */\n      lt\n        /* \"contracts/Bet.sol\":6168:6701  for (uint256 i = 0; i < winners.length; i++) {... */\n      iszero\n      tag_143\n      jumpi\n        /* \"contracts/Bet.sol\":6228:6242  address winner */\n      0x00\n        /* \"contracts/Bet.sol\":6245:6252  winners */\n      dup3\n        /* \"contracts/Bet.sol\":6253:6254  i */\n      dup3\n        /* \"contracts/Bet.sol\":6245:6255  winners[i] */\n      dup2\n      mload\n      dup2\n      lt\n      tag_145\n      jumpi\n      tag_146\n      tag_147\n      jump\t// in\n    tag_146:\n    tag_145:\n      0x20\n      mul\n      0x20\n      add\n      add\n      mload\n        /* \"contracts/Bet.sol\":6228:6255  address winner = winners[i] */\n      swap1\n      pop\n        /* \"contracts/Bet.sol\":6270:6287  uint256 betAmount */\n      0x00\n        /* \"contracts/Bet.sol\":6307:6308  1 */\n      0x01\n        /* \"contracts/Bet.sol\":6291:6303  _winningTeam */\n      dup13\n        /* \"contracts/Bet.sol\":6291:6308  _winningTeam == 1 */\n      0xff\n      and\n      eq\n        /* \"contracts/Bet.sol\":6290:6391  (_winningTeam == 1) ? betInstance.betsoption1[winner].amount : betInstance.betsoption2[winner].amount */\n      tag_148\n      jumpi\n        /* \"contracts/Bet.sol\":6353:6364  betInstance */\n      dup10\n        /* \"contracts/Bet.sol\":6353:6376  betInstance.betsoption2 */\n      0x06\n      add\n        /* \"contracts/Bet.sol\":6353:6384  betInstance.betsoption2[winner] */\n      0x00\n        /* \"contracts/Bet.sol\":6377:6383  winner */\n      dup4\n        /* \"contracts/Bet.sol\":6353:6384  betInstance.betsoption2[winner] */\n      0xffffffffffffffffffffffffffffffffffffffff\n      and\n      0xffffffffffffffffffffffffffffffffffffffff\n      and\n      dup2\n      mstore\n      0x20\n      add\n      swap1\n      dup2\n      mstore\n      0x20\n      add\n      0x00\n      keccak256\n        /* \"contracts/Bet.sol\":6353:6391  betInstance.betsoption2[winner].amount */\n      0x01\n      add\n      sload\n        /* \"contracts/Bet.sol\":6290:6391  (_winningTeam == 1) ? betInstance.betsoption1[winner].amount : betInstance.betsoption2[winner].amount */\n      jump(tag_149)\n    tag_148:\n        /* \"contracts/Bet.sol\":6312:6323  betInstance */\n      dup10\n        /* \"contracts/Bet.sol\":6312:6335  betInstance.betsoption1 */\n      0x05\n      add\n        /* \"contracts/Bet.sol\":6312:6343  betInstance.betsoption1[winner] */\n      0x00\n        /* \"contracts/Bet.sol\":6336:6342  winner */\n      dup4\n        /* \"contracts/Bet.sol\":6312:6343  betInstance.betsoption1[winner] */\n      0xffffffffffffffffffffffffffffffffffffffff\n      and\n      0xffffffffffffffffffffffffffffffffffffffff\n      and\n      dup2\n      mstore\n      0x20\n      add\n      swap1\n      dup2\n      mstore\n      0x20\n      add\n      0x00\n      keccak256\n        /* \"contracts/Bet.sol\":6312:6350  betInstance.betsoption1[winner].amount */\n      0x01\n      add\n      sload\n        /* \"contracts/Bet.sol\":6290:6391  (_winningTeam == 1) ? betInstance.betsoption1[winner].amount : betInstance.betsoption2[winner].amount */\n    tag_149:\n        /* \"contracts/Bet.sol\":6270:6391  uint256 betAmount = (_winningTeam == 1) ? betInstance.betsoption1[winner].amount : betInstance.betsoption2[winner].amount */\n      swap1\n      pop\n        /* \"contracts/Bet.sol\":6510:6534  uint256 amountToTransfer */\n      0x00\n        /* \"contracts/Bet.sol\":6569:6591  totalAmountWinningTeam */\n      dup9\n        /* \"contracts/Bet.sol\":6550:6565  remainingAmount */\n      dup7\n        /* \"contracts/Bet.sol\":6538:6547  betAmount */\n      dup4\n        /* \"contracts/Bet.sol\":6538:6565  betAmount * remainingAmount */\n      tag_150\n      swap2\n      swap1\n      tag_151\n      jump\t// in\n    tag_150:\n        /* \"contracts/Bet.sol\":6537:6591  (betAmount * remainingAmount) / totalAmountWinningTeam */\n      tag_152\n      swap2\n      swap1\n      tag_119\n      jump\t// in\n    tag_152:\n        /* \"contracts/Bet.sol\":6510:6591  uint256 amountToTransfer = (betAmount * remainingAmount) / totalAmountWinningTeam */\n      swap1\n      pop\n        /* \"contracts/Bet.sol\":6616:6627  bonsaiToken */\n      0x02\n      0x00\n      swap1\n      sload\n      swap1\n      0x0100\n      exp\n      swap1\n      div\n      0xffffffffffffffffffffffffffffffffffffffff\n      and\n        /* \"contracts/Bet.sol\":6616:6636  bonsaiToken.transfer */\n      0xffffffffffffffffffffffffffffffffffffffff\n      and\n      0xa9059cbb\n        /* \"contracts/Bet.sol\":6637:6643  winner */\n      dup5\n        /* \"contracts/Bet.sol\":6645:6661  amountToTransfer */\n      dup4\n        /* \"contracts/Bet.sol\":6616:6662  bonsaiToken.transfer(winner, amountToTransfer) */\n      mload(0x40)\n      dup4\n      0xffffffff\n      and\n      0xe0\n      shl\n      dup2\n      mstore\n      0x04\n      add\n      tag_153\n      swap3\n      swap2\n      swap1\n      tag_124\n      jump\t// in\n    tag_153:\n      0x20\n      mload(0x40)\n      dup1\n      dup4\n      sub\n      dup2\n      0x00\n      dup8\n      gas\n      call\n      iszero\n      dup1\n      iszero\n      tag_155\n      jumpi\n      returndatasize\n      0x00\n      dup1\n      returndatacopy\n      revert(0x00, returndatasize)\n    tag_155:\n      pop\n      pop\n      pop\n      pop\n      mload(0x40)\n      returndatasize\n      not(0x1f)\n      0x1f\n      dup3\n      add\n      and\n      dup3\n      add\n      dup1\n      0x40\n      mstore\n      pop\n      dup2\n      add\n      swap1\n      tag_156\n      swap2\n      swap1\n      tag_67\n      jump\t// in\n    tag_156:\n        /* \"contracts/Bet.sol\":6608:6689  require(bonsaiToken.transfer(winner, amountToTransfer), \"Winner transfer failed\") */\n      tag_157\n      jumpi\n      mload(0x40)\n      0x08c379a000000000000000000000000000000000000000000000000000000000\n      dup2\n      mstore\n      0x04\n      add\n      tag_158\n      swap1\n      tag_159\n      jump\t// in\n    tag_158:\n      mload(0x40)\n      dup1\n      swap2\n      sub\n      swap1\n      revert\n    tag_157:\n        /* \"contracts/Bet.sol\":6213:6701  {... */\n      pop\n      pop\n      pop\n        /* \"contracts/Bet.sol\":6208:6211  i++ */\n      dup1\n      dup1\n      0x01\n      add\n      swap2\n      pop\n      pop\n        /* \"contracts/Bet.sol\":6168:6701  for (uint256 i = 0; i < winners.length; i++) {... */\n      jump(tag_142)\n    tag_143:\n      pop\n        /* \"contracts/Bet.sol\":6738:6742  true */\n      0x01\n        /* \"contracts/Bet.sol\":6713:6724  betInstance */\n      dup8\n        /* \"contracts/Bet.sol\":6713:6735  betInstance.isResolved */\n      0x09\n      add\n      0x15\n        /* \"contracts/Bet.sol\":6713:6742  betInstance.isResolved = true */\n      0x0100\n      exp\n      dup2\n      sload\n      dup2\n      0xff\n      mul\n      not\n      and\n      swap1\n      dup4\n      iszero\n      iszero\n      mul\n      or\n      swap1\n      sstore\n      pop\n        /* \"contracts/Bet.sol\":6774:6780  _betId */\n      dup11\n      dup11\n        /* \"contracts/Bet.sol\":6758:6795  BettingResolved(_betId, _winningTeam) */\n      mload(0x40)\n      tag_160\n      swap3\n      swap2\n      swap1\n      tag_40\n      jump\t// in\n    tag_160:\n      mload(0x40)\n      dup1\n      swap2\n      sub\n      swap1\n      keccak256\n      0x5e80dc66ae7f04a06755bfcd4aa1e9a2c7bb4bddbde5169b27869190ebf95002\n        /* \"contracts/Bet.sol\":6782:6794  _winningTeam */\n      dup11\n        /* \"contracts/Bet.sol\":6758:6795  BettingResolved(_betId, _winningTeam) */\n      mload(0x40)\n      tag_161\n      swap2\n      swap1\n      tag_162\n      jump\t// in\n    tag_161:\n      mload(0x40)\n      dup1\n      swap2\n      sub\n      swap1\n      log2\n        /* \"contracts/Bet.sol\":4701:6803  {... */\n      pop\n      pop\n      pop\n      pop\n      pop\n      pop\n      pop\n        /* \"contracts/Bet.sol\":4600:6803  function distributeWinnings(string calldata _betId, uint8 _winningTeam) external onlyCreator(_betId) {... */\n      pop\n      pop\n      pop\n      pop\n      jump\t// out\n        /* \"contracts/Bet.sol\":3044:3677  function placeBetOnoption2(string calldata _betId, uint256 _amount) external {... */\n    tag_37:\n        /* \"contracts/Bet.sol\":3132:3163  BetInstance storage betInstance */\n      0x00\n        /* \"contracts/Bet.sol\":3166:3178  betInstances */\n      0x01\n        /* \"contracts/Bet.sol\":3179:3185  _betId */\n      dup5\n      dup5\n        /* \"contracts/Bet.sol\":3166:3186  betInstances[_betId] */\n      mload(0x40)\n      tag_164\n      swap3\n      swap2\n      swap1\n      tag_40\n      jump\t// in\n    tag_164:\n      swap1\n      dup2\n      mstore\n      0x20\n      add\n      mload(0x40)\n      dup1\n      swap2\n      sub\n      swap1\n      keccak256\n        /* \"contracts/Bet.sol\":3132:3186  BetInstance storage betInstance = betInstances[_betId] */\n      swap1\n      pop\n        /* \"contracts/Bet.sol\":3206:3217  betInstance */\n      dup1\n        /* \"contracts/Bet.sol\":3206:3226  betInstance.isClosed */\n      0x09\n      add\n      0x14\n      swap1\n      sload\n      swap1\n      0x0100\n      exp\n      swap1\n      div\n      0xff\n      and\n        /* \"contracts/Bet.sol\":3205:3226  !betInstance.isClosed */\n      iszero\n        /* \"contracts/Bet.sol\":3197:3248  require(!betInstance.isClosed, \"Betting is closed\") */\n      tag_165\n      jumpi\n      mload(0x40)\n      0x08c379a000000000000000000000000000000000000000000000000000000000\n      dup2\n      mstore\n      0x04\n      add\n      tag_166\n      swap1\n      tag_58\n      jump\t// in\n    tag_166:\n      mload(0x40)\n      dup1\n      swap2\n      sub\n      swap1\n      revert\n    tag_165:\n        /* \"contracts/Bet.sol\":3278:3294  minimumBetAmount */\n      sload(0x00)\n        /* \"contracts/Bet.sol\":3267:3274  _amount */\n      dup3\n        /* \"contracts/Bet.sol\":3267:3294  _amount >= minimumBetAmount */\n      lt\n      iszero\n        /* \"contracts/Bet.sol\":3259:3330  require(_amount >= minimumBetAmount, \"Bet amount is less than minimum\") */\n      tag_167\n      jumpi\n      mload(0x40)\n      0x08c379a000000000000000000000000000000000000000000000000000000000\n      dup2\n      mstore\n      0x04\n      add\n      tag_168\n      swap1\n      tag_61\n      jump\t// in\n    tag_168:\n      mload(0x40)\n      dup1\n      swap2\n      sub\n      swap1\n      revert\n    tag_167:\n        /* \"contracts/Bet.sol\":3351:3362  bonsaiToken */\n      0x02\n      0x00\n      swap1\n      sload\n      swap1\n      0x0100\n      exp\n      swap1\n      div\n      0xffffffffffffffffffffffffffffffffffffffff\n      and\n        /* \"contracts/Bet.sol\":3351:3375  bonsaiToken.transferFrom */\n      0xffffffffffffffffffffffffffffffffffffffff\n      and\n      0x23b872dd\n        /* \"contracts/Bet.sol\":3376:3386  msg.sender */\n      caller\n        /* \"contracts/Bet.sol\":3396:3400  this */\n      address\n        /* \"contracts/Bet.sol\":3403:3410  _amount */\n      dup6\n        /* \"contracts/Bet.sol\":3351:3411  bonsaiToken.transferFrom(msg.sender, address(this), _amount) */\n      mload(0x40)\n      dup5\n      0xffffffff\n      and\n      0xe0\n      shl\n      dup2\n      mstore\n      0x04\n      add\n      tag_169\n      swap4\n      swap3\n      swap2\n      swap1\n      tag_63\n      jump\t// in\n    tag_169:\n      0x20\n      mload(0x40)\n      dup1\n      dup4\n      sub\n      dup2\n      0x00\n      dup8\n      gas\n      call\n      iszero\n      dup1\n      iszero\n      tag_171\n      jumpi\n      returndatasize\n      0x00\n      dup1\n      returndatacopy\n      revert(0x00, returndatasize)\n    tag_171:\n      pop\n      pop\n      pop\n      pop\n      mload(0x40)\n      returndatasize\n      not(0x1f)\n      0x1f\n      dup3\n      add\n      and\n      dup3\n      add\n      dup1\n      0x40\n      mstore\n      pop\n      dup2\n      add\n      swap1\n      tag_172\n      swap2\n      swap1\n      tag_67\n      jump\t// in\n    tag_172:\n        /* \"contracts/Bet.sol\":3343:3431  require(bonsaiToken.transferFrom(msg.sender, address(this), _amount), \"Transfer failed\") */\n      tag_173\n      jumpi\n      mload(0x40)\n      0x08c379a000000000000000000000000000000000000000000000000000000000\n      dup2\n      mstore\n      0x04\n      add\n      tag_174\n      swap1\n      tag_70\n      jump\t// in\n    tag_174:\n      mload(0x40)\n      dup1\n      swap2\n      sub\n      swap1\n      revert\n    tag_173:\n        /* \"contracts/Bet.sol\":3476:3483  _amount */\n      dup2\n        /* \"contracts/Bet.sol\":3442:3453  betInstance */\n      dup2\n        /* \"contracts/Bet.sol\":3442:3472  betInstance.totalAmountOption2 */\n      0x04\n      add\n      0x00\n        /* \"contracts/Bet.sol\":3442:3483  betInstance.totalAmountOption2 += _amount */\n      dup3\n      dup3\n      sload\n      tag_175\n      swap2\n      swap1\n      tag_72\n      jump\t// in\n    tag_175:\n      swap3\n      pop\n      pop\n      dup2\n      swap1\n      sstore\n      pop\n        /* \"contracts/Bet.sol\":3532:3556  Bet(msg.sender, _amount) */\n      mload(0x40)\n      dup1\n      0x40\n      add\n      0x40\n      mstore\n      dup1\n        /* \"contracts/Bet.sol\":3536:3546  msg.sender */\n      caller\n        /* \"contracts/Bet.sol\":3532:3556  Bet(msg.sender, _amount) */\n      0xffffffffffffffffffffffffffffffffffffffff\n      and\n      dup2\n      mstore\n      0x20\n      add\n        /* \"contracts/Bet.sol\":3548:3555  _amount */\n      dup4\n        /* \"contracts/Bet.sol\":3532:3556  Bet(msg.sender, _amount) */\n      dup2\n      mstore\n      pop\n        /* \"contracts/Bet.sol\":3494:3505  betInstance */\n      dup2\n        /* \"contracts/Bet.sol\":3494:3517  betInstance.betsoption2 */\n      0x06\n      add\n        /* \"contracts/Bet.sol\":3494:3529  betInstance.betsoption2[msg.sender] */\n      0x00\n        /* \"contracts/Bet.sol\":3518:3528  msg.sender */\n      caller\n        /* \"contracts/Bet.sol\":3494:3529  betInstance.betsoption2[msg.sender] */\n      0xffffffffffffffffffffffffffffffffffffffff\n      and\n      0xffffffffffffffffffffffffffffffffffffffff\n      and\n      dup2\n      mstore\n      0x20\n      add\n      swap1\n      dup2\n      mstore\n      0x20\n      add\n      0x00\n      keccak256\n        /* \"contracts/Bet.sol\":3494:3556  betInstance.betsoption2[msg.sender] = Bet(msg.sender, _amount) */\n      0x00\n      dup3\n      add\n      mload\n      dup2\n      0x00\n      add\n      exp(0x0100, 0x00)\n      dup2\n      sload\n      dup2\n      0xffffffffffffffffffffffffffffffffffffffff\n      mul\n      not\n      and\n      swap1\n      dup4\n      0xffffffffffffffffffffffffffffffffffffffff\n      and\n      mul\n      or\n      swap1\n      sstore\n      pop\n      0x20\n      dup3\n      add\n      mload\n      dup2\n      0x01\n      add\n      sstore\n      swap1\n      pop\n      pop\n        /* \"contracts/Bet.sol\":3567:3578  betInstance */\n      dup1\n        /* \"contracts/Bet.sol\":3567:3593  betInstance.bettorsoption2 */\n      0x08\n      add\n        /* \"contracts/Bet.sol\":3599:3609  msg.sender */\n      caller\n        /* \"contracts/Bet.sol\":3567:3610  betInstance.bettorsoption2.push(msg.sender) */\n      swap1\n      dup1\n      0x01\n      dup2\n      sload\n      add\n      dup1\n      dup3\n      sstore\n      dup1\n      swap2\n      pop\n      pop\n      0x01\n      swap1\n      sub\n      swap1\n      0x00\n      mstore\n      keccak256(0x00, 0x20)\n      add\n      0x00\n      swap1\n      swap2\n      swap1\n      swap2\n      swap1\n      swap2\n      0x0100\n      exp\n      dup2\n      sload\n      dup2\n      0xffffffffffffffffffffffffffffffffffffffff\n      mul\n      not\n      and\n      swap1\n      dup4\n      0xffffffffffffffffffffffffffffffffffffffff\n      and\n      mul\n      or\n      swap1\n      sstore\n      pop\n        /* \"contracts/Bet.sol\":3646:3656  msg.sender */\n      caller\n        /* \"contracts/Bet.sol\":3628:3669  BetPlaced(_betId, msg.sender, _amount, 2) */\n      0xffffffffffffffffffffffffffffffffffffffff\n      and\n        /* \"contracts/Bet.sol\":3638:3644  _betId */\n      dup5\n      dup5\n        /* \"contracts/Bet.sol\":3628:3669  BetPlaced(_betId, msg.sender, _amount, 2) */\n      mload(0x40)\n      tag_177\n      swap3\n      swap2\n      swap1\n      tag_40\n      jump\t// in\n    tag_177:\n      mload(0x40)\n      dup1\n      swap2\n      sub\n      swap1\n      keccak256\n      0x25d0b2e7d8a0da3bb9aa3019cd218e49ea828b3201ec9ed950ce9709357b4ee4\n        /* \"contracts/Bet.sol\":3658:3665  _amount */\n      dup5\n        /* \"contracts/Bet.sol\":3667:3668  2 */\n      0x02\n        /* \"contracts/Bet.sol\":3628:3669  BetPlaced(_betId, msg.sender, _amount, 2) */\n      mload(0x40)\n      tag_178\n      swap3\n      swap2\n      swap1\n      tag_179\n      jump\t// in\n    tag_178:\n      mload(0x40)\n      dup1\n      swap2\n      sub\n      swap1\n      log3\n        /* \"contracts/Bet.sol\":3121:3677  {... */\n      pop\n        /* \"contracts/Bet.sol\":3044:3677  function placeBetOnoption2(string calldata _betId, uint256 _amount) external {... */\n      pop\n      pop\n      pop\n      jump\t// out\n        /* \"#utility.yul\":88:205   */\n    tag_181:\n        /* \"#utility.yul\":197:198   */\n      0x00\n        /* \"#utility.yul\":194:195   */\n      dup1\n        /* \"#utility.yul\":187:199   */\n      revert\n        /* \"#utility.yul\":211:328   */\n    tag_182:\n        /* \"#utility.yul\":320:321   */\n      0x00\n        /* \"#utility.yul\":317:318   */\n      dup1\n        /* \"#utility.yul\":310:322   */\n      revert\n        /* \"#utility.yul\":334:451   */\n    tag_183:\n        /* \"#utility.yul\":443:444   */\n      0x00\n        /* \"#utility.yul\":440:441   */\n      dup1\n        /* \"#utility.yul\":433:445   */\n      revert\n        /* \"#utility.yul\":457:574   */\n    tag_184:\n        /* \"#utility.yul\":566:567   */\n      0x00\n        /* \"#utility.yul\":563:564   */\n      dup1\n        /* \"#utility.yul\":556:568   */\n      revert\n        /* \"#utility.yul\":580:697   */\n    tag_185:\n        /* \"#utility.yul\":689:690   */\n      0x00\n        /* \"#utility.yul\":686:687   */\n      dup1\n        /* \"#utility.yul\":679:691   */\n      revert\n        /* \"#utility.yul\":717:1270   */\n    tag_186:\n        /* \"#utility.yul\":775:783   */\n      0x00\n        /* \"#utility.yul\":785:791   */\n      dup1\n        /* \"#utility.yul\":835:838   */\n      dup4\n        /* \"#utility.yul\":828:832   */\n      0x1f\n        /* \"#utility.yul\":820:826   */\n      dup5\n        /* \"#utility.yul\":816:833   */\n      add\n        /* \"#utility.yul\":812:839   */\n      slt\n        /* \"#utility.yul\":802:924   */\n      tag_269\n      jumpi\n        /* \"#utility.yul\":843:922   */\n      tag_270\n      tag_183\n      jump\t// in\n    tag_270:\n        /* \"#utility.yul\":802:924   */\n    tag_269:\n        /* \"#utility.yul\":956:962   */\n      dup3\n        /* \"#utility.yul\":943:963   */\n      calldataload\n        /* \"#utility.yul\":933:963   */\n      swap1\n      pop\n        /* \"#utility.yul\":986:1004   */\n      0xffffffffffffffff\n        /* \"#utility.yul\":978:984   */\n      dup2\n        /* \"#utility.yul\":975:1005   */\n      gt\n        /* \"#utility.yul\":972:1089   */\n      iszero\n      tag_271\n      jumpi\n        /* \"#utility.yul\":1008:1087   */\n      tag_272\n      tag_184\n      jump\t// in\n    tag_272:\n        /* \"#utility.yul\":972:1089   */\n    tag_271:\n        /* \"#utility.yul\":1122:1126   */\n      0x20\n        /* \"#utility.yul\":1114:1120   */\n      dup4\n        /* \"#utility.yul\":1110:1127   */\n      add\n        /* \"#utility.yul\":1098:1127   */\n      swap2\n      pop\n        /* \"#utility.yul\":1176:1179   */\n      dup4\n        /* \"#utility.yul\":1168:1172   */\n      0x01\n        /* \"#utility.yul\":1160:1166   */\n      dup3\n        /* \"#utility.yul\":1156:1173   */\n      mul\n        /* \"#utility.yul\":1146:1154   */\n      dup4\n        /* \"#utility.yul\":1142:1174   */\n      add\n        /* \"#utility.yul\":1139:1180   */\n      gt\n        /* \"#utility.yul\":1136:1264   */\n      iszero\n      tag_273\n      jumpi\n        /* \"#utility.yul\":1183:1262   */\n      tag_274\n      tag_185\n      jump\t// in\n    tag_274:\n        /* \"#utility.yul\":1136:1264   */\n    tag_273:\n        /* \"#utility.yul\":717:1270   */\n      swap3\n      pop\n      swap3\n      swap1\n      pop\n      jump\t// out\n        /* \"#utility.yul\":1276:1353   */\n    tag_187:\n        /* \"#utility.yul\":1313:1320   */\n      0x00\n        /* \"#utility.yul\":1342:1347   */\n      dup2\n        /* \"#utility.yul\":1331:1347   */\n      swap1\n      pop\n        /* \"#utility.yul\":1276:1353   */\n      swap2\n      swap1\n      pop\n      jump\t// out\n        /* \"#utility.yul\":1359:1481   */\n    tag_188:\n        /* \"#utility.yul\":1432:1456   */\n      tag_277\n        /* \"#utility.yul\":1450:1455   */\n      dup2\n        /* \"#utility.yul\":1432:1456   */\n      tag_187\n      jump\t// in\n    tag_277:\n        /* \"#utility.yul\":1425:1430   */\n      dup2\n        /* \"#utility.yul\":1422:1457   */\n      eq\n        /* \"#utility.yul\":1412:1475   */\n      tag_278\n      jumpi\n        /* \"#utility.yul\":1471:1472   */\n      0x00\n        /* \"#utility.yul\":1468:1469   */\n      dup1\n        /* \"#utility.yul\":1461:1473   */\n      revert\n        /* \"#utility.yul\":1412:1475   */\n    tag_278:\n        /* \"#utility.yul\":1359:1481   */\n      pop\n      jump\t// out\n        /* \"#utility.yul\":1487:1626   */\n    tag_189:\n        /* \"#utility.yul\":1533:1538   */\n      0x00\n        /* \"#utility.yul\":1571:1577   */\n      dup2\n        /* \"#utility.yul\":1558:1578   */\n      calldataload\n        /* \"#utility.yul\":1549:1578   */\n      swap1\n      pop\n        /* \"#utility.yul\":1587:1620   */\n      tag_280\n        /* \"#utility.yul\":1614:1619   */\n      dup2\n        /* \"#utility.yul\":1587:1620   */\n      tag_188\n      jump\t// in\n    tag_280:\n        /* \"#utility.yul\":1487:1626   */\n      swap3\n      swap2\n      pop\n      pop\n      jump\t// out\n        /* \"#utility.yul\":1632:2997   */\n    tag_13:\n        /* \"#utility.yul\":1754:1760   */\n      0x00\n        /* \"#utility.yul\":1762:1768   */\n      dup1\n        /* \"#utility.yul\":1770:1776   */\n      0x00\n        /* \"#utility.yul\":1778:1784   */\n      dup1\n        /* \"#utility.yul\":1786:1792   */\n      0x00\n        /* \"#utility.yul\":1794:1800   */\n      dup1\n        /* \"#utility.yul\":1802:1808   */\n      0x00\n        /* \"#utility.yul\":1851:1854   */\n      0x80\n        /* \"#utility.yul\":1839:1848   */\n      dup9\n        /* \"#utility.yul\":1830:1837   */\n      dup11\n        /* \"#utility.yul\":1826:1849   */\n      sub\n        /* \"#utility.yul\":1822:1855   */\n      slt\n        /* \"#utility.yul\":1819:1939   */\n      iszero\n      tag_282\n      jumpi\n        /* \"#utility.yul\":1858:1937   */\n      tag_283\n      tag_181\n      jump\t// in\n    tag_283:\n        /* \"#utility.yul\":1819:1939   */\n    tag_282:\n        /* \"#utility.yul\":2006:2007   */\n      0x00\n        /* \"#utility.yul\":1995:2004   */\n      dup9\n        /* \"#utility.yul\":1991:2008   */\n      add\n        /* \"#utility.yul\":1978:2009   */\n      calldataload\n        /* \"#utility.yul\":2036:2054   */\n      0xffffffffffffffff\n        /* \"#utility.yul\":2028:2034   */\n      dup2\n        /* \"#utility.yul\":2025:2055   */\n      gt\n        /* \"#utility.yul\":2022:2139   */\n      iszero\n      tag_284\n      jumpi\n        /* \"#utility.yul\":2058:2137   */\n      tag_285\n      tag_182\n      jump\t// in\n    tag_285:\n        /* \"#utility.yul\":2022:2139   */\n    tag_284:\n        /* \"#utility.yul\":2171:2236   */\n      tag_286\n        /* \"#utility.yul\":2228:2235   */\n      dup11\n        /* \"#utility.yul\":2219:2225   */\n      dup3\n        /* \"#utility.yul\":2208:2217   */\n      dup12\n        /* \"#utility.yul\":2204:2226   */\n      add\n        /* \"#utility.yul\":2171:2236   */\n      tag_186\n      jump\t// in\n    tag_286:\n        /* \"#utility.yul\":2153:2236   */\n      swap8\n      pop\n      swap8\n      pop\n        /* \"#utility.yul\":1949:2246   */\n      pop\n        /* \"#utility.yul\":2313:2315   */\n      0x20\n        /* \"#utility.yul\":2302:2311   */\n      dup9\n        /* \"#utility.yul\":2298:2316   */\n      add\n        /* \"#utility.yul\":2285:2317   */\n      calldataload\n        /* \"#utility.yul\":2344:2362   */\n      0xffffffffffffffff\n        /* \"#utility.yul\":2336:2342   */\n      dup2\n        /* \"#utility.yul\":2333:2363   */\n      gt\n        /* \"#utility.yul\":2330:2447   */\n      iszero\n      tag_287\n      jumpi\n        /* \"#utility.yul\":2366:2445   */\n      tag_288\n      tag_182\n      jump\t// in\n    tag_288:\n        /* \"#utility.yul\":2330:2447   */\n    tag_287:\n        /* \"#utility.yul\":2479:2544   */\n      tag_289\n        /* \"#utility.yul\":2536:2543   */\n      dup11\n        /* \"#utility.yul\":2527:2533   */\n      dup3\n        /* \"#utility.yul\":2516:2525   */\n      dup12\n        /* \"#utility.yul\":2512:2534   */\n      add\n        /* \"#utility.yul\":2479:2544   */\n      tag_186\n      jump\t// in\n    tag_289:\n        /* \"#utility.yul\":2461:2544   */\n      swap6\n      pop\n      swap6\n      pop\n        /* \"#utility.yul\":2256:2554   */\n      pop\n        /* \"#utility.yul\":2621:2623   */\n      0x40\n        /* \"#utility.yul\":2610:2619   */\n      dup9\n        /* \"#utility.yul\":2606:2624   */\n      add\n        /* \"#utility.yul\":2593:2625   */\n      calldataload\n        /* \"#utility.yul\":2652:2670   */\n      0xffffffffffffffff\n        /* \"#utility.yul\":2644:2650   */\n      dup2\n        /* \"#utility.yul\":2641:2671   */\n      gt\n        /* \"#utility.yul\":2638:2755   */\n      iszero\n      tag_290\n      jumpi\n        /* \"#utility.yul\":2674:2753   */\n      tag_291\n      tag_182\n      jump\t// in\n    tag_291:\n        /* \"#utility.yul\":2638:2755   */\n    tag_290:\n        /* \"#utility.yul\":2787:2852   */\n      tag_292\n        /* \"#utility.yul\":2844:2851   */\n      dup11\n        /* \"#utility.yul\":2835:2841   */\n      dup3\n        /* \"#utility.yul\":2824:2833   */\n      dup12\n        /* \"#utility.yul\":2820:2842   */\n      add\n        /* \"#utility.yul\":2787:2852   */\n      tag_186\n      jump\t// in\n    tag_292:\n        /* \"#utility.yul\":2769:2852   */\n      swap4\n      pop\n      swap4\n      pop\n        /* \"#utility.yul\":2564:2862   */\n      pop\n        /* \"#utility.yul\":2901:2903   */\n      0x60\n        /* \"#utility.yul\":2927:2980   */\n      tag_293\n        /* \"#utility.yul\":2972:2979   */\n      dup11\n        /* \"#utility.yul\":2963:2969   */\n      dup3\n        /* \"#utility.yul\":2952:2961   */\n      dup12\n        /* \"#utility.yul\":2948:2970   */\n      add\n        /* \"#utility.yul\":2927:2980   */\n      tag_189\n      jump\t// in\n    tag_293:\n        /* \"#utility.yul\":2917:2980   */\n      swap2\n      pop\n        /* \"#utility.yul\":2872:2990   */\n      pop\n        /* \"#utility.yul\":1632:2997   */\n      swap3\n      swap6\n      swap9\n      swap2\n      swap5\n      swap8\n      pop\n      swap3\n      swap6\n      pop\n      jump\t// out\n        /* \"#utility.yul\":3003:3677   */\n    tag_17:\n        /* \"#utility.yul\":3083:3089   */\n      0x00\n        /* \"#utility.yul\":3091:3097   */\n      dup1\n        /* \"#utility.yul\":3099:3105   */\n      0x00\n        /* \"#utility.yul\":3148:3150   */\n      0x40\n        /* \"#utility.yul\":3136:3145   */\n      dup5\n        /* \"#utility.yul\":3127:3134   */\n      dup7\n        /* \"#utility.yul\":3123:3146   */\n      sub\n        /* \"#utility.yul\":3119:3151   */\n      slt\n        /* \"#utility.yul\":3116:3235   */\n      iszero\n      tag_295\n      jumpi\n        /* \"#utility.yul\":3154:3233   */\n      tag_296\n      tag_181\n      jump\t// in\n    tag_296:\n        /* \"#utility.yul\":3116:3235   */\n    tag_295:\n        /* \"#utility.yul\":3302:3303   */\n      0x00\n        /* \"#utility.yul\":3291:3300   */\n      dup5\n        /* \"#utility.yul\":3287:3304   */\n      add\n        /* \"#utility.yul\":3274:3305   */\n      calldataload\n        /* \"#utility.yul\":3332:3350   */\n      0xffffffffffffffff\n        /* \"#utility.yul\":3324:3330   */\n      dup2\n        /* \"#utility.yul\":3321:3351   */\n      gt\n        /* \"#utility.yul\":3318:3435   */\n      iszero\n      tag_297\n      jumpi\n        /* \"#utility.yul\":3354:3433   */\n      tag_298\n      tag_182\n      jump\t// in\n    tag_298:\n        /* \"#utility.yul\":3318:3435   */\n    tag_297:\n        /* \"#utility.yul\":3467:3532   */\n      tag_299\n        /* \"#utility.yul\":3524:3531   */\n      dup7\n        /* \"#utility.yul\":3515:3521   */\n      dup3\n        /* \"#utility.yul\":3504:3513   */\n      dup8\n        /* \"#utility.yul\":3500:3522   */\n      add\n        /* \"#utility.yul\":3467:3532   */\n      tag_186\n      jump\t// in\n    tag_299:\n        /* \"#utility.yul\":3449:3532   */\n      swap4\n      pop\n      swap4\n      pop\n        /* \"#utility.yul\":3245:3542   */\n      pop\n        /* \"#utility.yul\":3581:3583   */\n      0x20\n        /* \"#utility.yul\":3607:3660   */\n      tag_300\n        /* \"#utility.yul\":3652:3659   */\n      dup7\n        /* \"#utility.yul\":3643:3649   */\n      dup3\n        /* \"#utility.yul\":3632:3641   */\n      dup8\n        /* \"#utility.yul\":3628:3650   */\n      add\n        /* \"#utility.yul\":3607:3660   */\n      tag_189\n      jump\t// in\n    tag_300:\n        /* \"#utility.yul\":3597:3660   */\n      swap2\n      pop\n        /* \"#utility.yul\":3552:3670   */\n      pop\n        /* \"#utility.yul\":3003:3677   */\n      swap3\n      pop\n      swap3\n      pop\n      swap3\n      jump\t// out\n        /* \"#utility.yul\":3683:4212   */\n    tag_21:\n        /* \"#utility.yul\":3754:3760   */\n      0x00\n        /* \"#utility.yul\":3762:3768   */\n      dup1\n        /* \"#utility.yul\":3811:3813   */\n      0x20\n        /* \"#utility.yul\":3799:3808   */\n      dup4\n        /* \"#utility.yul\":3790:3797   */\n      dup6\n        /* \"#utility.yul\":3786:3809   */\n      sub\n        /* \"#utility.yul\":3782:3814   */\n      slt\n        /* \"#utility.yul\":3779:3898   */\n      iszero\n      tag_302\n      jumpi\n        /* \"#utility.yul\":3817:3896   */\n      tag_303\n      tag_181\n      jump\t// in\n    tag_303:\n        /* \"#utility.yul\":3779:3898   */\n    tag_302:\n        /* \"#utility.yul\":3965:3966   */\n      0x00\n        /* \"#utility.yul\":3954:3963   */\n      dup4\n        /* \"#utility.yul\":3950:3967   */\n      add\n        /* \"#utility.yul\":3937:3968   */\n      calldataload\n        /* \"#utility.yul\":3995:4013   */\n      0xffffffffffffffff\n        /* \"#utility.yul\":3987:3993   */\n      dup2\n        /* \"#utility.yul\":3984:4014   */\n      gt\n        /* \"#utility.yul\":3981:4098   */\n      iszero\n      tag_304\n      jumpi\n        /* \"#utility.yul\":4017:4096   */\n      tag_305\n      tag_182\n      jump\t// in\n    tag_305:\n        /* \"#utility.yul\":3981:4098   */\n    tag_304:\n        /* \"#utility.yul\":4130:4195   */\n      tag_306\n        /* \"#utility.yul\":4187:4194   */\n      dup6\n        /* \"#utility.yul\":4178:4184   */\n      dup3\n        /* \"#utility.yul\":4167:4176   */\n      dup7\n        /* \"#utility.yul\":4163:4185   */\n      add\n        /* \"#utility.yul\":4130:4195   */\n      tag_186\n      jump\t// in\n    tag_306:\n        /* \"#utility.yul\":4112:4195   */\n      swap3\n      pop\n      swap3\n      pop\n        /* \"#utility.yul\":3908:4205   */\n      pop\n        /* \"#utility.yul\":3683:4212   */\n      swap3\n      pop\n      swap3\n      swap1\n      pop\n      jump\t// out\n        /* \"#utility.yul\":4218:4336   */\n    tag_190:\n        /* \"#utility.yul\":4305:4329   */\n      tag_308\n        /* \"#utility.yul\":4323:4328   */\n      dup2\n        /* \"#utility.yul\":4305:4329   */\n      tag_187\n      jump\t// in\n    tag_308:\n        /* \"#utility.yul\":4300:4303   */\n      dup3\n        /* \"#utility.yul\":4293:4330   */\n      mstore\n        /* \"#utility.yul\":4218:4336   */\n      pop\n      pop\n      jump\t// out\n        /* \"#utility.yul\":4342:4432   */\n    tag_191:\n        /* \"#utility.yul\":4376:4383   */\n      0x00\n        /* \"#utility.yul\":4419:4424   */\n      dup2\n        /* \"#utility.yul\":4412:4425   */\n      iszero\n        /* \"#utility.yul\":4405:4426   */\n      iszero\n        /* \"#utility.yul\":4394:4426   */\n      swap1\n      pop\n        /* \"#utility.yul\":4342:4432   */\n      swap2\n      swap1\n      pop\n      jump\t// out\n        /* \"#utility.yul\":4438:4547   */\n    tag_192:\n        /* \"#utility.yul\":4519:4540   */\n      tag_311\n        /* \"#utility.yul\":4534:4539   */\n      dup2\n        /* \"#utility.yul\":4519:4540   */\n      tag_191\n      jump\t// in\n    tag_311:\n        /* \"#utility.yul\":4514:4517   */\n      dup3\n        /* \"#utility.yul\":4507:4541   */\n      mstore\n        /* \"#utility.yul\":4438:4547   */\n      pop\n      pop\n      jump\t// out\n        /* \"#utility.yul\":4553:5193   */\n    tag_24:\n        /* \"#utility.yul\":4746:4750   */\n      0x00\n        /* \"#utility.yul\":4784:4787   */\n      0xa0\n        /* \"#utility.yul\":4773:4782   */\n      dup3\n        /* \"#utility.yul\":4769:4788   */\n      add\n        /* \"#utility.yul\":4761:4788   */\n      swap1\n      pop\n        /* \"#utility.yul\":4798:4869   */\n      tag_313\n        /* \"#utility.yul\":4866:4867   */\n      0x00\n        /* \"#utility.yul\":4855:4864   */\n      dup4\n        /* \"#utility.yul\":4851:4868   */\n      add\n        /* \"#utility.yul\":4842:4848   */\n      dup9\n        /* \"#utility.yul\":4798:4869   */\n      tag_190\n      jump\t// in\n    tag_313:\n        /* \"#utility.yul\":4879:4951   */\n      tag_314\n        /* \"#utility.yul\":4947:4949   */\n      0x20\n        /* \"#utility.yul\":4936:4945   */\n      dup4\n        /* \"#utility.yul\":4932:4950   */\n      add\n        /* \"#utility.yul\":4923:4929   */\n      dup8\n        /* \"#utility.yul\":4879:4951   */\n      tag_190\n      jump\t// in\n    tag_314:\n        /* \"#utility.yul\":4961:5033   */\n      tag_315\n        /* \"#utility.yul\":5029:5031   */\n      0x40\n        /* \"#utility.yul\":5018:5027   */\n      dup4\n        /* \"#utility.yul\":5014:5032   */\n      add\n        /* \"#utility.yul\":5005:5011   */\n      dup7\n        /* \"#utility.yul\":4961:5033   */\n      tag_190\n      jump\t// in\n    tag_315:\n        /* \"#utility.yul\":5043:5109   */\n      tag_316\n        /* \"#utility.yul\":5105:5107   */\n      0x60\n        /* \"#utility.yul\":5094:5103   */\n      dup4\n        /* \"#utility.yul\":5090:5108   */\n      add\n        /* \"#utility.yul\":5081:5087   */\n      dup6\n        /* \"#utility.yul\":5043:5109   */\n      tag_192\n      jump\t// in\n    tag_316:\n        /* \"#utility.yul\":5119:5186   */\n      tag_317\n        /* \"#utility.yul\":5181:5184   */\n      0x80\n        /* \"#utility.yul\":5170:5179   */\n      dup4\n        /* \"#utility.yul\":5166:5185   */\n      add\n        /* \"#utility.yul\":5157:5163   */\n      dup5\n        /* \"#utility.yul\":5119:5186   */\n      tag_192\n      jump\t// in\n    tag_317:\n        /* \"#utility.yul\":4553:5193   */\n      swap7\n      swap6\n      pop\n      pop\n      pop\n      pop\n      pop\n      pop\n      jump\t// out\n        /* \"#utility.yul\":5199:5285   */\n    tag_193:\n        /* \"#utility.yul\":5234:5241   */\n      0x00\n        /* \"#utility.yul\":5274:5278   */\n      0xff\n        /* \"#utility.yul\":5267:5272   */\n      dup3\n        /* \"#utility.yul\":5263:5279   */\n      and\n        /* \"#utility.yul\":5252:5279   */\n      swap1\n      pop\n        /* \"#utility.yul\":5199:5285   */\n      swap2\n      swap1\n      pop\n      jump\t// out\n        /* \"#utility.yul\":5291:5409   */\n    tag_194:\n        /* \"#utility.yul\":5362:5384   */\n      tag_320\n        /* \"#utility.yul\":5378:5383   */\n      dup2\n        /* \"#utility.yul\":5362:5384   */\n      tag_193\n      jump\t// in\n    tag_320:\n        /* \"#utility.yul\":5355:5360   */\n      dup2\n        /* \"#utility.yul\":5352:5385   */\n      eq\n        /* \"#utility.yul\":5342:5403   */\n      tag_321\n      jumpi\n        /* \"#utility.yul\":5399:5400   */\n      0x00\n        /* \"#utility.yul\":5396:5397   */\n      dup1\n        /* \"#utility.yul\":5389:5401   */\n      revert\n        /* \"#utility.yul\":5342:5403   */\n    tag_321:\n        /* \"#utility.yul\":5291:5409   */\n      pop\n      jump\t// out\n        /* \"#utility.yul\":5415:5550   */\n    tag_195:\n        /* \"#utility.yul\":5459:5464   */\n      0x00\n        /* \"#utility.yul\":5497:5503   */\n      dup2\n        /* \"#utility.yul\":5484:5504   */\n      calldataload\n        /* \"#utility.yul\":5475:5504   */\n      swap1\n      pop\n        /* \"#utility.yul\":5513:5544   */\n      tag_323\n        /* \"#utility.yul\":5538:5543   */\n      dup2\n        /* \"#utility.yul\":5513:5544   */\n      tag_194\n      jump\t// in\n    tag_323:\n        /* \"#utility.yul\":5415:5550   */\n      swap3\n      swap2\n      pop\n      pop\n      jump\t// out\n        /* \"#utility.yul\":5556:6226   */\n    tag_33:\n        /* \"#utility.yul\":5634:5640   */\n      0x00\n        /* \"#utility.yul\":5642:5648   */\n      dup1\n        /* \"#utility.yul\":5650:5656   */\n      0x00\n        /* \"#utility.yul\":5699:5701   */\n      0x40\n        /* \"#utility.yul\":5687:5696   */\n      dup5\n        /* \"#utility.yul\":5678:5685   */\n      dup7\n        /* \"#utility.yul\":5674:5697   */\n      sub\n        /* \"#utility.yul\":5670:5702   */\n      slt\n        /* \"#utility.yul\":5667:5786   */\n      iszero\n      tag_325\n      jumpi\n        /* \"#utility.yul\":5705:5784   */\n      tag_326\n      tag_181\n      jump\t// in\n    tag_326:\n        /* \"#utility.yul\":5667:5786   */\n    tag_325:\n        /* \"#utility.yul\":5853:5854   */\n      0x00\n        /* \"#utility.yul\":5842:5851   */\n      dup5\n        /* \"#utility.yul\":5838:5855   */\n      add\n        /* \"#utility.yul\":5825:5856   */\n      calldataload\n        /* \"#utility.yul\":5883:5901   */\n      0xffffffffffffffff\n        /* \"#utility.yul\":5875:5881   */\n      dup2\n        /* \"#utility.yul\":5872:5902   */\n      gt\n        /* \"#utility.yul\":5869:5986   */\n      iszero\n      tag_327\n      jumpi\n        /* \"#utility.yul\":5905:5984   */\n      tag_328\n      tag_182\n      jump\t// in\n    tag_328:\n        /* \"#utility.yul\":5869:5986   */\n    tag_327:\n        /* \"#utility.yul\":6018:6083   */\n      tag_329\n        /* \"#utility.yul\":6075:6082   */\n      dup7\n        /* \"#utility.yul\":6066:6072   */\n      dup3\n        /* \"#utility.yul\":6055:6064   */\n      dup8\n        /* \"#utility.yul\":6051:6073   */\n      add\n        /* \"#utility.yul\":6018:6083   */\n      tag_186\n      jump\t// in\n    tag_329:\n        /* \"#utility.yul\":6000:6083   */\n      swap4\n      pop\n      swap4\n      pop\n        /* \"#utility.yul\":5796:6093   */\n      pop\n        /* \"#utility.yul\":6132:6134   */\n      0x20\n        /* \"#utility.yul\":6158:6209   */\n      tag_330\n        /* \"#utility.yul\":6201:6208   */\n      dup7\n        /* \"#utility.yul\":6192:6198   */\n      dup3\n        /* \"#utility.yul\":6181:6190   */\n      dup8\n        /* \"#utility.yul\":6177:6199   */\n      add\n        /* \"#utility.yul\":6158:6209   */\n      tag_195\n      jump\t// in\n    tag_330:\n        /* \"#utility.yul\":6148:6209   */\n      swap2\n      pop\n        /* \"#utility.yul\":6103:6219   */\n      pop\n        /* \"#utility.yul\":5556:6226   */\n      swap3\n      pop\n      swap3\n      pop\n      swap3\n      jump\t// out\n        /* \"#utility.yul\":6232:6380   */\n    tag_196:\n        /* \"#utility.yul\":6334:6345   */\n      0x00\n        /* \"#utility.yul\":6371:6374   */\n      dup2\n        /* \"#utility.yul\":6356:6374   */\n      swap1\n      pop\n        /* \"#utility.yul\":6232:6380   */\n      swap3\n      swap2\n      pop\n      pop\n      jump\t// out\n        /* \"#utility.yul\":6386:6534   */\n    tag_197:\n        /* \"#utility.yul\":6484:6490   */\n      dup3\n        /* \"#utility.yul\":6479:6482   */\n      dup2\n        /* \"#utility.yul\":6474:6477   */\n      dup4\n        /* \"#utility.yul\":6461:6491   */\n      calldatacopy\n        /* \"#utility.yul\":6525:6526   */\n      0x00\n        /* \"#utility.yul\":6516:6522   */\n      dup4\n        /* \"#utility.yul\":6511:6514   */\n      dup4\n        /* \"#utility.yul\":6507:6523   */\n      add\n        /* \"#utility.yul\":6500:6527   */\n      mstore\n        /* \"#utility.yul\":6386:6534   */\n      pop\n      pop\n      pop\n      jump\t// out\n        /* \"#utility.yul\":6564:6894   */\n    tag_198:\n        /* \"#utility.yul\":6680:6683   */\n      0x00\n        /* \"#utility.yul\":6701:6790   */\n      tag_334\n        /* \"#utility.yul\":6783:6789   */\n      dup4\n        /* \"#utility.yul\":6778:6781   */\n      dup6\n        /* \"#utility.yul\":6701:6790   */\n      tag_196\n      jump\t// in\n    tag_334:\n        /* \"#utility.yul\":6694:6790   */\n      swap4\n      pop\n        /* \"#utility.yul\":6800:6856   */\n      tag_335\n        /* \"#utility.yul\":6849:6855   */\n      dup4\n        /* \"#utility.yul\":6844:6847   */\n      dup6\n        /* \"#utility.yul\":6837:6842   */\n      dup5\n        /* \"#utility.yul\":6800:6856   */\n      tag_197\n      jump\t// in\n    tag_335:\n        /* \"#utility.yul\":6881:6887   */\n      dup3\n        /* \"#utility.yul\":6876:6879   */\n      dup5\n        /* \"#utility.yul\":6872:6888   */\n      add\n        /* \"#utility.yul\":6865:6888   */\n      swap1\n      pop\n        /* \"#utility.yul\":6564:6894   */\n      swap4\n      swap3\n      pop\n      pop\n      pop\n      jump\t// out\n        /* \"#utility.yul\":6900:7195   */\n    tag_40:\n        /* \"#utility.yul\":7042:7045   */\n      0x00\n        /* \"#utility.yul\":7064:7169   */\n      tag_337\n        /* \"#utility.yul\":7165:7168   */\n      dup3\n        /* \"#utility.yul\":7156:7162   */\n      dup5\n        /* \"#utility.yul\":7148:7154   */\n      dup7\n        /* \"#utility.yul\":7064:7169   */\n      tag_198\n      jump\t// in\n    tag_337:\n        /* \"#utility.yul\":7057:7169   */\n      swap2\n      pop\n        /* \"#utility.yul\":7186:7189   */\n      dup2\n        /* \"#utility.yul\":7179:7189   */\n      swap1\n      pop\n        /* \"#utility.yul\":6900:7195   */\n      swap4\n      swap3\n      pop\n      pop\n      pop\n      jump\t// out\n        /* \"#utility.yul\":7201:7381   */\n    tag_199:\n        /* \"#utility.yul\":7249:7326   */\n      0x4e487b7100000000000000000000000000000000000000000000000000000000\n        /* \"#utility.yul\":7246:7247   */\n      0x00\n        /* \"#utility.yul\":7239:7327   */\n      mstore\n        /* \"#utility.yul\":7346:7350   */\n      0x22\n        /* \"#utility.yul\":7343:7344   */\n      0x04\n        /* \"#utility.yul\":7336:7351   */\n      mstore\n        /* \"#utility.yul\":7370:7374   */\n      0x24\n        /* \"#utility.yul\":7367:7368   */\n      0x00\n        /* \"#utility.yul\":7360:7375   */\n      revert\n        /* \"#utility.yul\":7387:7707   */\n    tag_42:\n        /* \"#utility.yul\":7431:7437   */\n      0x00\n        /* \"#utility.yul\":7468:7469   */\n      0x02\n        /* \"#utility.yul\":7462:7466   */\n      dup3\n        /* \"#utility.yul\":7458:7470   */\n      div\n        /* \"#utility.yul\":7448:7470   */\n      swap1\n      pop\n        /* \"#utility.yul\":7515:7516   */\n      0x01\n        /* \"#utility.yul\":7509:7513   */\n      dup3\n        /* \"#utility.yul\":7505:7517   */\n      and\n        /* \"#utility.yul\":7536:7554   */\n      dup1\n        /* \"#utility.yul\":7526:7607   */\n      tag_340\n      jumpi\n        /* \"#utility.yul\":7592:7596   */\n      0x7f\n        /* \"#utility.yul\":7584:7590   */\n      dup3\n        /* \"#utility.yul\":7580:7597   */\n      and\n        /* \"#utility.yul\":7570:7597   */\n      swap2\n      pop\n        /* \"#utility.yul\":7526:7607   */\n    tag_340:\n        /* \"#utility.yul\":7654:7656   */\n      0x20\n        /* \"#utility.yul\":7646:7652   */\n      dup3\n        /* \"#utility.yul\":7643:7657   */\n      lt\n        /* \"#utility.yul\":7623:7641   */\n      dup2\n        /* \"#utility.yul\":7620:7658   */\n      sub\n        /* \"#utility.yul\":7617:7701   */\n      tag_341\n      jumpi\n        /* \"#utility.yul\":7673:7691   */\n      tag_342\n      tag_199\n      jump\t// in\n    tag_342:\n        /* \"#utility.yul\":7617:7701   */\n    tag_341:\n        /* \"#utility.yul\":7438:7707   */\n      pop\n        /* \"#utility.yul\":7387:7707   */\n      swap2\n      swap1\n      pop\n      jump\t// out\n        /* \"#utility.yul\":7713:7882   */\n    tag_200:\n        /* \"#utility.yul\":7797:7808   */\n      0x00\n        /* \"#utility.yul\":7831:7837   */\n      dup3\n        /* \"#utility.yul\":7826:7829   */\n      dup3\n        /* \"#utility.yul\":7819:7838   */\n      mstore\n        /* \"#utility.yul\":7871:7875   */\n      0x20\n        /* \"#utility.yul\":7866:7869   */\n      dup3\n        /* \"#utility.yul\":7862:7876   */\n      add\n        /* \"#utility.yul\":7847:7876   */\n      swap1\n      pop\n        /* \"#utility.yul\":7713:7882   */\n      swap3\n      swap2\n      pop\n      pop\n      jump\t// out\n        /* \"#utility.yul\":7888:8115   */\n    tag_201:\n        /* \"#utility.yul\":8028:8062   */\n      0x42657420696e7374616e63652077697468207468697320494420616c72656164\n        /* \"#utility.yul\":8024:8025   */\n      0x00\n        /* \"#utility.yul\":8016:8022   */\n      dup3\n        /* \"#utility.yul\":8012:8026   */\n      add\n        /* \"#utility.yul\":8005:8063   */\n      mstore\n        /* \"#utility.yul\":8097:8107   */\n      0x7920657869737473000000000000000000000000000000000000000000000000\n        /* \"#utility.yul\":8092:8094   */\n      0x20\n        /* \"#utility.yul\":8084:8090   */\n      dup3\n        /* \"#utility.yul\":8080:8095   */\n      add\n        /* \"#utility.yul\":8073:8108   */\n      mstore\n        /* \"#utility.yul\":7888:8115   */\n      pop\n      jump\t// out\n        /* \"#utility.yul\":8121:8487   */\n    tag_202:\n        /* \"#utility.yul\":8263:8266   */\n      0x00\n        /* \"#utility.yul\":8284:8351   */\n      tag_346\n        /* \"#utility.yul\":8348:8350   */\n      0x28\n        /* \"#utility.yul\":8343:8346   */\n      dup4\n        /* \"#utility.yul\":8284:8351   */\n      tag_200\n      jump\t// in\n    tag_346:\n        /* \"#utility.yul\":8277:8351   */\n      swap2\n      pop\n        /* \"#utility.yul\":8360:8453   */\n      tag_347\n        /* \"#utility.yul\":8449:8452   */\n      dup3\n        /* \"#utility.yul\":8360:8453   */\n      tag_201\n      jump\t// in\n    tag_347:\n        /* \"#utility.yul\":8478:8480   */\n      0x40\n        /* \"#utility.yul\":8473:8476   */\n      dup3\n        /* \"#utility.yul\":8469:8481   */\n      add\n        /* \"#utility.yul\":8462:8481   */\n      swap1\n      pop\n        /* \"#utility.yul\":8121:8487   */\n      swap2\n      swap1\n      pop\n      jump\t// out\n        /* \"#utility.yul\":8493:8912   */\n    tag_45:\n        /* \"#utility.yul\":8659:8663   */\n      0x00\n        /* \"#utility.yul\":8697:8699   */\n      0x20\n        /* \"#utility.yul\":8686:8695   */\n      dup3\n        /* \"#utility.yul\":8682:8700   */\n      add\n        /* \"#utility.yul\":8674:8700   */\n      swap1\n      pop\n        /* \"#utility.yul\":8746:8755   */\n      dup2\n        /* \"#utility.yul\":8740:8744   */\n      dup2\n        /* \"#utility.yul\":8736:8756   */\n      sub\n        /* \"#utility.yul\":8732:8733   */\n      0x00\n        /* \"#utility.yul\":8721:8730   */\n      dup4\n        /* \"#utility.yul\":8717:8734   */\n      add\n        /* \"#utility.yul\":8710:8757   */\n      mstore\n        /* \"#utility.yul\":8774:8905   */\n      tag_349\n        /* \"#utility.yul\":8900:8904   */\n      dup2\n        /* \"#utility.yul\":8774:8905   */\n      tag_202\n      jump\t// in\n    tag_349:\n        /* \"#utility.yul\":8766:8905   */\n      swap1\n      pop\n        /* \"#utility.yul\":8493:8912   */\n      swap2\n      swap1\n      pop\n      jump\t// out\n        /* \"#utility.yul\":8918:9015   */\n    tag_203:\n        /* \"#utility.yul\":8977:8983   */\n      0x00\n        /* \"#utility.yul\":9005:9008   */\n      dup3\n        /* \"#utility.yul\":8995:9008   */\n      swap1\n      pop\n        /* \"#utility.yul\":8918:9015   */\n      swap3\n      swap2\n      pop\n      pop\n      jump\t// out\n        /* \"#utility.yul\":9021:9201   */\n    tag_204:\n        /* \"#utility.yul\":9069:9146   */\n      0x4e487b7100000000000000000000000000000000000000000000000000000000\n        /* \"#utility.yul\":9066:9067   */\n      0x00\n        /* \"#utility.yul\":9059:9147   */\n      mstore\n        /* \"#utility.yul\":9166:9170   */\n      0x41\n        /* \"#utility.yul\":9163:9164   */\n      0x04\n        /* \"#utility.yul\":9156:9171   */\n      mstore\n        /* \"#utility.yul\":9190:9194   */\n      0x24\n        /* \"#utility.yul\":9187:9188   */\n      0x00\n        /* \"#utility.yul\":9180:9195   */\n      revert\n        /* \"#utility.yul\":9207:9348   */\n    tag_205:\n        /* \"#utility.yul\":9256:9260   */\n      0x00\n        /* \"#utility.yul\":9279:9282   */\n      dup2\n        /* \"#utility.yul\":9271:9282   */\n      swap1\n      pop\n        /* \"#utility.yul\":9302:9305   */\n      dup2\n        /* \"#utility.yul\":9299:9300   */\n      0x00\n        /* \"#utility.yul\":9292:9306   */\n      mstore\n        /* \"#utility.yul\":9336:9340   */\n      0x20\n        /* \"#utility.yul\":9333:9334   */\n      0x00\n        /* \"#utility.yul\":9323:9341   */\n      keccak256\n        /* \"#utility.yul\":9315:9341   */\n      swap1\n      pop\n        /* \"#utility.yul\":9207:9348   */\n      swap2\n      swap1\n      pop\n      jump\t// out\n        /* \"#utility.yul\":9354:9447   */\n    tag_206:\n        /* \"#utility.yul\":9391:9397   */\n      0x00\n        /* \"#utility.yul\":9438:9440   */\n      0x20\n        /* \"#utility.yul\":9433:9435   */\n      0x1f\n        /* \"#utility.yul\":9426:9431   */\n      dup4\n        /* \"#utility.yul\":9422:9436   */\n      add\n        /* \"#utility.yul\":9418:9441   */\n      div\n        /* \"#utility.yul\":9408:9441   */\n      swap1\n      pop\n        /* \"#utility.yul\":9354:9447   */\n      swap2\n      swap1\n      pop\n      jump\t// out\n        /* \"#utility.yul\":9453:9560   */\n    tag_207:\n        /* \"#utility.yul\":9497:9505   */\n      0x00\n        /* \"#utility.yul\":9547:9552   */\n      dup3\n        /* \"#utility.yul\":9541:9545   */\n      dup3\n        /* \"#utility.yul\":9537:9553   */\n      shl\n        /* \"#utility.yul\":9516:9553   */\n      swap1\n      pop\n        /* \"#utility.yul\":9453:9560   */\n      swap3\n      swap2\n      pop\n      pop\n      jump\t// out\n        /* \"#utility.yul\":9566:9959   */\n    tag_208:\n        /* \"#utility.yul\":9635:9641   */\n      0x00\n        /* \"#utility.yul\":9685:9686   */\n      0x08\n        /* \"#utility.yul\":9673:9683   */\n      dup4\n        /* \"#utility.yul\":9669:9687   */\n      mul\n        /* \"#utility.yul\":9708:9805   */\n      tag_356\n        /* \"#utility.yul\":9738:9804   */\n      0xffffffffffffffffffffffffffffffffffffffffffffffffffffffffffffffff\n        /* \"#utility.yul\":9727:9736   */\n      dup3\n        /* \"#utility.yul\":9708:9805   */\n      tag_207\n      jump\t// in\n    tag_356:\n        /* \"#utility.yul\":9826:9865   */\n      tag_357\n        /* \"#utility.yul\":9856:9864   */\n      dup7\n        /* \"#utility.yul\":9845:9854   */\n      dup4\n        /* \"#utility.yul\":9826:9865   */\n      tag_207\n      jump\t// in\n    tag_357:\n        /* \"#utility.yul\":9814:9865   */\n      swap6\n      pop\n        /* \"#utility.yul\":9898:9902   */\n      dup1\n        /* \"#utility.yul\":9894:9903   */\n      not\n        /* \"#utility.yul\":9887:9892   */\n      dup5\n        /* \"#utility.yul\":9883:9904   */\n      and\n        /* \"#utility.yul\":9874:9904   */\n      swap4\n      pop\n        /* \"#utility.yul\":9947:9951   */\n      dup1\n        /* \"#utility.yul\":9937:9945   */\n      dup7\n        /* \"#utility.yul\":9933:9952   */\n      and\n        /* \"#utility.yul\":9926:9931   */\n      dup5\n        /* \"#utility.yul\":9923:9953   */\n      or\n        /* \"#utility.yul\":9913:9953   */\n      swap3\n      pop\n        /* \"#utility.yul\":9642:9959   */\n      pop\n      pop\n        /* \"#utility.yul\":9566:9959   */\n      swap4\n      swap3\n      pop\n      pop\n      pop\n      jump\t// out\n        /* \"#utility.yul\":9965:10025   */\n    tag_209:\n        /* \"#utility.yul\":9993:9996   */\n      0x00\n        /* \"#utility.yul\":10014:10019   */\n      dup2\n        /* \"#utility.yul\":10007:10019   */\n      swap1\n      pop\n        /* \"#utility.yul\":9965:10025   */\n      swap2\n      swap1\n      pop\n      jump\t// out\n        /* \"#utility.yul\":10031:10173   */\n    tag_210:\n        /* \"#utility.yul\":10081:10090   */\n      0x00\n        /* \"#utility.yul\":10114:10167   */\n      tag_360\n        /* \"#utility.yul\":10132:10166   */\n      tag_361\n        /* \"#utility.yul\":10141:10165   */\n      tag_362\n        /* \"#utility.yul\":10159:10164   */\n      dup5\n        /* \"#utility.yul\":10141:10165   */\n      tag_187\n      jump\t// in\n    tag_362:\n        /* \"#utility.yul\":10132:10166   */\n      tag_209\n      jump\t// in\n    tag_361:\n        /* \"#utility.yul\":10114:10167   */\n      tag_187\n      jump\t// in\n    tag_360:\n        /* \"#utility.yul\":10101:10167   */\n      swap1\n      pop\n        /* \"#utility.yul\":10031:10173   */\n      swap2\n      swap1\n      pop\n      jump\t// out\n        /* \"#utility.yul\":10179:10254   */\n    tag_211:\n        /* \"#utility.yul\":10222:10225   */\n      0x00\n        /* \"#utility.yul\":10243:10248   */\n      dup2\n        /* \"#utility.yul\":10236:10248   */\n      swap1\n      pop\n        /* \"#utility.yul\":10179:10254   */\n      swap2\n      swap1\n      pop\n      jump\t// out\n        /* \"#utility.yul\":10260:10529   */\n    tag_212:\n        /* \"#utility.yul\":10370:10409   */\n      tag_365\n        /* \"#utility.yul\":10401:10408   */\n      dup4\n        /* \"#utility.yul\":10370:10409   */\n      tag_210\n      jump\t// in\n    tag_365:\n        /* \"#utility.yul\":10431:10522   */\n      tag_366\n        /* \"#utility.yul\":10480:10521   */\n      tag_367\n        /* \"#utility.yul\":10504:10520   */\n      dup3\n        /* \"#utility.yul\":10480:10521   */\n      tag_211\n      jump\t// in\n    tag_367:\n        /* \"#utility.yul\":10472:10478   */\n      dup5\n        /* \"#utility.yul\":10465:10469   */\n      dup5\n        /* \"#utility.yul\":10459:10470   */\n      sload\n        /* \"#utility.yul\":10431:10522   */\n      tag_208\n      jump\t// in\n    tag_366:\n        /* \"#utility.yul\":10425:10429   */\n      dup3\n        /* \"#utility.yul\":10418:10523   */\n      sstore\n        /* \"#utility.yul\":10336:10529   */\n      pop\n        /* \"#utility.yul\":10260:10529   */\n      pop\n      pop\n      pop\n      jump\t// out\n        /* \"#utility.yul\":10535:10608   */\n    tag_213:\n        /* \"#utility.yul\":10580:10583   */\n      0x00\n        /* \"#utility.yul\":10535:10608   */\n      swap1\n      jump\t// out\n        /* \"#utility.yul\":10614:10803   */\n    tag_214:\n        /* \"#utility.yul\":10691:10723   */\n      tag_370\n      tag_213\n      jump\t// in\n    tag_370:\n        /* \"#utility.yul\":10732:10797   */\n      tag_371\n        /* \"#utility.yul\":10790:10796   */\n      dup2\n        /* \"#utility.yul\":10782:10788   */\n      dup5\n        /* \"#utility.yul\":10776:10780   */\n      dup5\n        /* \"#utility.yul\":10732:10797   */\n      tag_212\n      jump\t// in\n    tag_371:\n        /* \"#utility.yul\":10667:10803   */\n      pop\n        /* \"#utility.yul\":10614:10803   */\n      pop\n      pop\n      jump\t// out\n        /* \"#utility.yul\":10809:10995   */\n    tag_215:\n        /* \"#utility.yul\":10869:10989   */\n    tag_373:\n        /* \"#utility.yul\":10886:10889   */\n      dup2\n        /* \"#utility.yul\":10879:10884   */\n      dup2\n        /* \"#utility.yul\":10876:10890   */\n      lt\n        /* \"#utility.yul\":10869:10989   */\n      iszero\n      tag_375\n      jumpi\n        /* \"#utility.yul\":10940:10979   */\n      tag_376\n        /* \"#utility.yul\":10977:10978   */\n      0x00\n        /* \"#utility.yul\":10970:10975   */\n      dup3\n        /* \"#utility.yul\":10940:10979   */\n      tag_214\n      jump\t// in\n    tag_376:\n        /* \"#utility.yul\":10913:10914   */\n      0x01\n        /* \"#utility.yul\":10906:10911   */\n      dup2\n        /* \"#utility.yul\":10902:10915   */\n      add\n        /* \"#utility.yul\":10893:10915   */\n      swap1\n      pop\n        /* \"#utility.yul\":10869:10989   */\n      jump(tag_373)\n    tag_375:\n        /* \"#utility.yul\":10809:10995   */\n      pop\n      pop\n      jump\t// out\n        /* \"#utility.yul\":11001:11544   */\n    tag_216:\n        /* \"#utility.yul\":11102:11104   */\n      0x1f\n        /* \"#utility.yul\":11097:11100   */\n      dup3\n        /* \"#utility.yul\":11094:11105   */\n      gt\n        /* \"#utility.yul\":11091:11537   */\n      iszero\n      tag_378\n      jumpi\n        /* \"#utility.yul\":11136:11174   */\n      tag_379\n        /* \"#utility.yul\":11168:11173   */\n      dup2\n        /* \"#utility.yul\":11136:11174   */\n      tag_205\n      jump\t// in\n    tag_379:\n        /* \"#utility.yul\":11220:11249   */\n      tag_380\n        /* \"#utility.yul\":11238:11248   */\n      dup5\n        /* \"#utility.yul\":11220:11249   */\n      tag_206\n      jump\t// in\n    tag_380:\n        /* \"#utility.yul\":11210:11218   */\n      dup2\n        /* \"#utility.yul\":11206:11250   */\n      add\n        /* \"#utility.yul\":11403:11405   */\n      0x20\n        /* \"#utility.yul\":11391:11401   */\n      dup6\n        /* \"#utility.yul\":11388:11406   */\n      lt\n        /* \"#utility.yul\":11385:11434   */\n      iszero\n      tag_381\n      jumpi\n        /* \"#utility.yul\":11424:11432   */\n      dup2\n        /* \"#utility.yul\":11409:11432   */\n      swap1\n      pop\n        /* \"#utility.yul\":11385:11434   */\n    tag_381:\n        /* \"#utility.yul\":11447:11527   */\n      tag_382\n        /* \"#utility.yul\":11503:11525   */\n      tag_383\n        /* \"#utility.yul\":11521:11524   */\n      dup6\n        /* \"#utility.yul\":11503:11525   */\n      tag_206\n      jump\t// in\n    tag_383:\n        /* \"#utility.yul\":11493:11501   */\n      dup4\n        /* \"#utility.yul\":11489:11526   */\n      add\n        /* \"#utility.yul\":11476:11487   */\n      dup3\n        /* \"#utility.yul\":11447:11527   */\n      tag_215\n      jump\t// in\n    tag_382:\n        /* \"#utility.yul\":11106:11537   */\n      pop\n      pop\n        /* \"#utility.yul\":11091:11537   */\n    tag_378:\n        /* \"#utility.yul\":11001:11544   */\n      pop\n      pop\n      pop\n      jump\t// out\n        /* \"#utility.yul\":11550:11667   */\n    tag_217:\n        /* \"#utility.yul\":11604:11612   */\n      0x00\n        /* \"#utility.yul\":11654:11659   */\n      dup3\n        /* \"#utility.yul\":11648:11652   */\n      dup3\n        /* \"#utility.yul\":11644:11660   */\n      shr\n        /* \"#utility.yul\":11623:11660   */\n      swap1\n      pop\n        /* \"#utility.yul\":11550:11667   */\n      swap3\n      swap2\n      pop\n      pop\n      jump\t// out\n        /* \"#utility.yul\":11673:11842   */\n    tag_218:\n        /* \"#utility.yul\":11717:11723   */\n      0x00\n        /* \"#utility.yul\":11750:11801   */\n      tag_386\n        /* \"#utility.yul\":11798:11799   */\n      0x00\n        /* \"#utility.yul\":11794:11800   */\n      not\n        /* \"#utility.yul\":11786:11791   */\n      dup5\n        /* \"#utility.yul\":11783:11784   */\n      0x08\n        /* \"#utility.yul\":11779:11792   */\n      mul\n        /* \"#utility.yul\":11750:11801   */\n      tag_217\n      jump\t// in\n    tag_386:\n        /* \"#utility.yul\":11746:11802   */\n      not\n        /* \"#utility.yul\":11831:11835   */\n      dup1\n        /* \"#utility.yul\":11825:11829   */\n      dup4\n        /* \"#utility.yul\":11821:11836   */\n      and\n        /* \"#utility.yul\":11811:11836   */\n      swap2\n      pop\n        /* \"#utility.yul\":11724:11842   */\n      pop\n        /* \"#utility.yul\":11673:11842   */\n      swap3\n      swap2\n      pop\n      pop\n      jump\t// out\n        /* \"#utility.yul\":11847:12142   */\n    tag_219:\n        /* \"#utility.yul\":11923:11927   */\n      0x00\n        /* \"#utility.yul\":12069:12098   */\n      tag_388\n        /* \"#utility.yul\":12094:12097   */\n      dup4\n        /* \"#utility.yul\":12088:12092   */\n      dup4\n        /* \"#utility.yul\":12069:12098   */\n      tag_218\n      jump\t// in\n    tag_388:\n        /* \"#utility.yul\":12061:12098   */\n      swap2\n      pop\n        /* \"#utility.yul\":12131:12134   */\n      dup3\n        /* \"#utility.yul\":12128:12129   */\n      0x02\n        /* \"#utility.yul\":12124:12135   */\n      mul\n        /* \"#utility.yul\":12118:12122   */\n      dup3\n        /* \"#utility.yul\":12115:12136   */\n      or\n        /* \"#utility.yul\":12107:12136   */\n      swap1\n      pop\n        /* \"#utility.yul\":11847:12142   */\n      swap3\n      swap2\n      pop\n      pop\n      jump\t// out\n        /* \"#utility.yul\":12147:13550   */\n    tag_48:\n        /* \"#utility.yul\":12271:12315   */\n      tag_390\n        /* \"#utility.yul\":12311:12314   */\n      dup4\n        /* \"#utility.yul\":12306:12309   */\n      dup4\n        /* \"#utility.yul\":12271:12315   */\n      tag_203\n      jump\t// in\n    tag_390:\n        /* \"#utility.yul\":12380:12398   */\n      0xffffffffffffffff\n        /* \"#utility.yul\":12372:12378   */\n      dup2\n        /* \"#utility.yul\":12369:12399   */\n      gt\n        /* \"#utility.yul\":12366:12422   */\n      iszero\n      tag_391\n      jumpi\n        /* \"#utility.yul\":12402:12420   */\n      tag_392\n      tag_204\n      jump\t// in\n    tag_392:\n        /* \"#utility.yul\":12366:12422   */\n    tag_391:\n        /* \"#utility.yul\":12446:12484   */\n      tag_393\n        /* \"#utility.yul\":12478:12482   */\n      dup3\n        /* \"#utility.yul\":12472:12483   */\n      sload\n        /* \"#utility.yul\":12446:12484   */\n      tag_42\n      jump\t// in\n    tag_393:\n        /* \"#utility.yul\":12531:12598   */\n      tag_394\n        /* \"#utility.yul\":12591:12597   */\n      dup3\n        /* \"#utility.yul\":12583:12589   */\n      dup3\n        /* \"#utility.yul\":12577:12581   */\n      dup6\n        /* \"#utility.yul\":12531:12598   */\n      tag_216\n      jump\t// in\n    tag_394:\n        /* \"#utility.yul\":12625:12626   */\n      0x00\n        /* \"#utility.yul\":12654:12656   */\n      0x1f\n        /* \"#utility.yul\":12646:12652   */\n      dup4\n        /* \"#utility.yul\":12643:12657   */\n      gt\n        /* \"#utility.yul\":12671:12672   */\n      0x01\n        /* \"#utility.yul\":12666:13298   */\n      dup2\n      eq\n      tag_396\n      jumpi\n        /* \"#utility.yul\":13342:13343   */\n      0x00\n        /* \"#utility.yul\":13359:13365   */\n      dup5\n        /* \"#utility.yul\":13356:13440   */\n      iszero\n      tag_397\n      jumpi\n        /* \"#utility.yul\":13415:13424   */\n      dup3\n        /* \"#utility.yul\":13410:13413   */\n      dup8\n        /* \"#utility.yul\":13406:13425   */\n      add\n        /* \"#utility.yul\":13393:13426   */\n      calldataload\n        /* \"#utility.yul\":13384:13426   */\n      swap1\n      pop\n        /* \"#utility.yul\":13356:13440   */\n    tag_397:\n        /* \"#utility.yul\":13466:13533   */\n      tag_398\n        /* \"#utility.yul\":13526:13532   */\n      dup6\n        /* \"#utility.yul\":13519:13524   */\n      dup3\n        /* \"#utility.yul\":13466:13533   */\n      tag_219\n      jump\t// in\n    tag_398:\n        /* \"#utility.yul\":13460:13464   */\n      dup7\n        /* \"#utility.yul\":13453:13534   */\n      sstore\n        /* \"#utility.yul\":13315:13544   */\n      pop\n        /* \"#utility.yul\":12636:13544   */\n      jump(tag_395)\n        /* \"#utility.yul\":12666:13298   */\n    tag_396:\n        /* \"#utility.yul\":12718:12722   */\n      0x1f\n        /* \"#utility.yul\":12714:12723   */\n      not\n        /* \"#utility.yul\":12706:12712   */\n      dup5\n        /* \"#utility.yul\":12702:12724   */\n      and\n        /* \"#utility.yul\":12752:12789   */\n      tag_399\n        /* \"#utility.yul\":12784:12788   */\n      dup7\n        /* \"#utility.yul\":12752:12789   */\n      tag_205\n      jump\t// in\n    tag_399:\n        /* \"#utility.yul\":12811:12812   */\n      0x00\n        /* \"#utility.yul\":12825:13040   */\n    tag_400:\n        /* \"#utility.yul\":12839:12846   */\n      dup3\n        /* \"#utility.yul\":12836:12837   */\n      dup2\n        /* \"#utility.yul\":12833:12847   */\n      lt\n        /* \"#utility.yul\":12825:13040   */\n      iszero\n      tag_402\n      jumpi\n        /* \"#utility.yul\":12925:12934   */\n      dup5\n        /* \"#utility.yul\":12920:12923   */\n      dup10\n        /* \"#utility.yul\":12916:12935   */\n      add\n        /* \"#utility.yul\":12903:12936   */\n      calldataload\n        /* \"#utility.yul\":12895:12901   */\n      dup3\n        /* \"#utility.yul\":12888:12937   */\n      sstore\n        /* \"#utility.yul\":12976:12977   */\n      0x01\n        /* \"#utility.yul\":12968:12974   */\n      dup3\n        /* \"#utility.yul\":12964:12978   */\n      add\n        /* \"#utility.yul\":12954:12978   */\n      swap2\n      pop\n        /* \"#utility.yul\":13023:13025   */\n      0x20\n        /* \"#utility.yul\":13012:13021   */\n      dup6\n        /* \"#utility.yul\":13008:13026   */\n      add\n        /* \"#utility.yul\":12995:13026   */\n      swap5\n      pop\n        /* \"#utility.yul\":12862:12866   */\n      0x20\n        /* \"#utility.yul\":12859:12860   */\n      dup2\n        /* \"#utility.yul\":12855:12867   */\n      add\n        /* \"#utility.yul\":12850:12867   */\n      swap1\n      pop\n        /* \"#utility.yul\":12825:13040   */\n      jump(tag_400)\n    tag_402:\n        /* \"#utility.yul\":13068:13074   */\n      dup7\n        /* \"#utility.yul\":13059:13066   */\n      dup4\n        /* \"#utility.yul\":13056:13075   */\n      lt\n        /* \"#utility.yul\":13053:13239   */\n      iszero\n      tag_403\n      jumpi\n        /* \"#utility.yul\":13133:13142   */\n      dup5\n        /* \"#utility.yul\":13128:13131   */\n      dup10\n        /* \"#utility.yul\":13124:13143   */\n      add\n        /* \"#utility.yul\":13111:13144   */\n      calldataload\n        /* \"#utility.yul\":13176:13224   */\n      tag_404\n        /* \"#utility.yul\":13218:13222   */\n      0x1f\n        /* \"#utility.yul\":13210:13216   */\n      dup10\n        /* \"#utility.yul\":13206:13223   */\n      and\n        /* \"#utility.yul\":13195:13204   */\n      dup3\n        /* \"#utility.yul\":13176:13224   */\n      tag_218\n      jump\t// in\n    tag_404:\n        /* \"#utility.yul\":13168:13174   */\n      dup4\n        /* \"#utility.yul\":13161:13225   */\n      sstore\n        /* \"#utility.yul\":13076:13239   */\n      pop\n        /* \"#utility.yul\":13053:13239   */\n    tag_403:\n        /* \"#utility.yul\":13285:13286   */\n      0x01\n        /* \"#utility.yul\":13281:13282   */\n      0x02\n        /* \"#utility.yul\":13273:13279   */\n      dup9\n        /* \"#utility.yul\":13269:13283   */\n      mul\n        /* \"#utility.yul\":13265:13287   */\n      add\n        /* \"#utility.yul\":13259:13263   */\n      dup9\n        /* \"#utility.yul\":13252:13288   */\n      sstore\n        /* \"#utility.yul\":12673:13298   */\n      pop\n      pop\n      pop\n        /* \"#utility.yul\":12636:13544   */\n    tag_395:\n      pop\n        /* \"#utility.yul\":12246:13550   */\n      pop\n      pop\n      pop\n        /* \"#utility.yul\":12147:13550   */\n      pop\n      pop\n      pop\n      jump\t// out\n        /* \"#utility.yul\":13556:13682   */\n    tag_220:\n        /* \"#utility.yul\":13593:13600   */\n      0x00\n        /* \"#utility.yul\":13633:13675   */\n      0xffffffffffffffffffffffffffffffffffffffff\n        /* \"#utility.yul\":13626:13631   */\n      dup3\n        /* \"#utility.yul\":13622:13676   */\n      and\n        /* \"#utility.yul\":13611:13676   */\n      swap1\n      pop\n        /* \"#utility.yul\":13556:13682   */\n      swap2\n      swap1\n      pop\n      jump\t// out\n        /* \"#utility.yul\":13688:13784   */\n    tag_221:\n        /* \"#utility.yul\":13725:13732   */\n      0x00\n        /* \"#utility.yul\":13754:13778   */\n      tag_407\n        /* \"#utility.yul\":13772:13777   */\n      dup3\n        /* \"#utility.yul\":13754:13778   */\n      tag_220\n      jump\t// in\n    tag_407:\n        /* \"#utility.yul\":13743:13778   */\n      swap1\n      pop\n        /* \"#utility.yul\":13688:13784   */\n      swap2\n      swap1\n      pop\n      jump\t// out\n        /* \"#utility.yul\":13790:13908   */\n    tag_222:\n        /* \"#utility.yul\":13877:13901   */\n      tag_409\n        /* \"#utility.yul\":13895:13900   */\n      dup2\n        /* \"#utility.yul\":13877:13901   */\n      tag_221\n      jump\t// in\n    tag_409:\n        /* \"#utility.yul\":13872:13875   */\n      dup3\n        /* \"#utility.yul\":13865:13902   */\n      mstore\n        /* \"#utility.yul\":13790:13908   */\n      pop\n      pop\n      jump\t// out\n        /* \"#utility.yul\":13914:14016   */\n    tag_223:\n        /* \"#utility.yul\":13955:13961   */\n      0x00\n        /* \"#utility.yul\":14006:14008   */\n      0x1f\n        /* \"#utility.yul\":14002:14009   */\n      not\n        /* \"#utility.yul\":13997:13999   */\n      0x1f\n        /* \"#utility.yul\":13990:13995   */\n      dup4\n        /* \"#utility.yul\":13986:14000   */\n      add\n        /* \"#utility.yul\":13982:14010   */\n      and\n        /* \"#utility.yul\":13972:14010   */\n      swap1\n      pop\n        /* \"#utility.yul\":13914:14016   */\n      swap2\n      swap1\n      pop\n      jump\t// out\n        /* \"#utility.yul\":14046:14363   */\n    tag_224:\n        /* \"#utility.yul\":14144:14147   */\n      0x00\n        /* \"#utility.yul\":14165:14236   */\n      tag_412\n        /* \"#utility.yul\":14229:14235   */\n      dup4\n        /* \"#utility.yul\":14224:14227   */\n      dup6\n        /* \"#utility.yul\":14165:14236   */\n      tag_200\n      jump\t// in\n    tag_412:\n        /* \"#utility.yul\":14158:14236   */\n      swap4\n      pop\n        /* \"#utility.yul\":14246:14302   */\n      tag_413\n        /* \"#utility.yul\":14295:14301   */\n      dup4\n        /* \"#utility.yul\":14290:14293   */\n      dup6\n        /* \"#utility.yul\":14283:14288   */\n      dup5\n        /* \"#utility.yul\":14246:14302   */\n      tag_197\n      jump\t// in\n    tag_413:\n        /* \"#utility.yul\":14327:14356   */\n      tag_414\n        /* \"#utility.yul\":14349:14355   */\n      dup4\n        /* \"#utility.yul\":14327:14356   */\n      tag_223\n      jump\t// in\n    tag_414:\n        /* \"#utility.yul\":14322:14325   */\n      dup5\n        /* \"#utility.yul\":14318:14357   */\n      add\n        /* \"#utility.yul\":14311:14357   */\n      swap1\n      pop\n        /* \"#utility.yul\":14046:14363   */\n      swap4\n      swap3\n      pop\n      pop\n      pop\n      jump\t// out\n        /* \"#utility.yul\":14369:15144   */\n    tag_53:\n        /* \"#utility.yul\":14606:14610   */\n      0x00\n        /* \"#utility.yul\":14644:14647   */\n      0x80\n        /* \"#utility.yul\":14633:14642   */\n      dup3\n        /* \"#utility.yul\":14629:14648   */\n      add\n        /* \"#utility.yul\":14621:14648   */\n      swap1\n      pop\n        /* \"#utility.yul\":14658:14729   */\n      tag_416\n        /* \"#utility.yul\":14726:14727   */\n      0x00\n        /* \"#utility.yul\":14715:14724   */\n      dup4\n        /* \"#utility.yul\":14711:14728   */\n      add\n        /* \"#utility.yul\":14702:14708   */\n      dup10\n        /* \"#utility.yul\":14658:14729   */\n      tag_222\n      jump\t// in\n    tag_416:\n        /* \"#utility.yul\":14776:14785   */\n      dup2\n        /* \"#utility.yul\":14770:14774   */\n      dup2\n        /* \"#utility.yul\":14766:14786   */\n      sub\n        /* \"#utility.yul\":14761:14763   */\n      0x20\n        /* \"#utility.yul\":14750:14759   */\n      dup4\n        /* \"#utility.yul\":14746:14764   */\n      add\n        /* \"#utility.yul\":14739:14787   */\n      mstore\n        /* \"#utility.yul\":14804:14892   */\n      tag_417\n        /* \"#utility.yul\":14887:14891   */\n      dup2\n        /* \"#utility.yul\":14878:14884   */\n      dup8\n        /* \"#utility.yul\":14870:14876   */\n      dup10\n        /* \"#utility.yul\":14804:14892   */\n      tag_224\n      jump\t// in\n    tag_417:\n        /* \"#utility.yul\":14796:14892   */\n      swap1\n      pop\n        /* \"#utility.yul\":14939:14948   */\n      dup2\n        /* \"#utility.yul\":14933:14937   */\n      dup2\n        /* \"#utility.yul\":14929:14949   */\n      sub\n        /* \"#utility.yul\":14924:14926   */\n      0x40\n        /* \"#utility.yul\":14913:14922   */\n      dup4\n        /* \"#utility.yul\":14909:14927   */\n      add\n        /* \"#utility.yul\":14902:14950   */\n      mstore\n        /* \"#utility.yul\":14967:15055   */\n      tag_418\n        /* \"#utility.yul\":15050:15054   */\n      dup2\n        /* \"#utility.yul\":15041:15047   */\n      dup6\n        /* \"#utility.yul\":15033:15039   */\n      dup8\n        /* \"#utility.yul\":14967:15055   */\n      tag_224\n      jump\t// in\n    tag_418:\n        /* \"#utility.yul\":14959:15055   */\n      swap1\n      pop\n        /* \"#utility.yul\":15065:15137   */\n      tag_419\n        /* \"#utility.yul\":15133:15135   */\n      0x60\n        /* \"#utility.yul\":15122:15131   */\n      dup4\n        /* \"#utility.yul\":15118:15136   */\n      add\n        /* \"#utility.yul\":15109:15115   */\n      dup5\n        /* \"#utility.yul\":15065:15137   */\n      tag_190\n      jump\t// in\n    tag_419:\n        /* \"#utility.yul\":14369:15144   */\n      swap8\n      swap7\n      pop\n      pop\n      pop\n      pop\n      pop\n      pop\n      pop\n      jump\t// out\n        /* \"#utility.yul\":15150:15317   */\n    tag_225:\n        /* \"#utility.yul\":15290:15309   */\n      0x42657474696e6720697320636c6f736564000000000000000000000000000000\n        /* \"#utility.yul\":15286:15287   */\n      0x00\n        /* \"#utility.yul\":15278:15284   */\n      dup3\n        /* \"#utility.yul\":15274:15288   */\n      add\n        /* \"#utility.yul\":15267:15310   */\n      mstore\n        /* \"#utility.yul\":15150:15317   */\n      pop\n      jump\t// out\n        /* \"#utility.yul\":15323:15689   */\n    tag_226:\n        /* \"#utility.yul\":15465:15468   */\n      0x00\n        /* \"#utility.yul\":15486:15553   */\n      tag_422\n        /* \"#utility.yul\":15550:15552   */\n      0x11\n        /* \"#utility.yul\":15545:15548   */\n      dup4\n        /* \"#utility.yul\":15486:15553   */\n      tag_200\n      jump\t// in\n    tag_422:\n        /* \"#utility.yul\":15479:15553   */\n      swap2\n      pop\n        /* \"#utility.yul\":15562:15655   */\n      tag_423\n        /* \"#utility.yul\":15651:15654   */\n      dup3\n        /* \"#utility.yul\":15562:15655   */\n      tag_225\n      jump\t// in\n    tag_423:\n        /* \"#utility.yul\":15680:15682   */\n      0x20\n        /* \"#utility.yul\":15675:15678   */\n      dup3\n        /* \"#utility.yul\":15671:15683   */\n      add\n        /* \"#utility.yul\":15664:15683   */\n      swap1\n      pop\n        /* \"#utility.yul\":15323:15689   */\n      swap2\n      swap1\n      pop\n      jump\t// out\n        /* \"#utility.yul\":15695:16114   */\n    tag_58:\n        /* \"#utility.yul\":15861:15865   */\n      0x00\n        /* \"#utility.yul\":15899:15901   */\n      0x20\n        /* \"#utility.yul\":15888:15897   */\n      dup3\n        /* \"#utility.yul\":15884:15902   */\n      add\n        /* \"#utility.yul\":15876:15902   */\n      swap1\n      pop\n        /* \"#utility.yul\":15948:15957   */\n      dup2\n        /* \"#utility.yul\":15942:15946   */\n      dup2\n        /* \"#utility.yul\":15938:15958   */\n      sub\n        /* \"#utility.yul\":15934:15935   */\n      0x00\n        /* \"#utility.yul\":15923:15932   */\n      dup4\n        /* \"#utility.yul\":15919:15936   */\n      add\n        /* \"#utility.yul\":15912:15959   */\n      mstore\n        /* \"#utility.yul\":15976:16107   */\n      tag_425\n        /* \"#utility.yul\":16102:16106   */\n      dup2\n        /* \"#utility.yul\":15976:16107   */\n      tag_226\n      jump\t// in\n    tag_425:\n        /* \"#utility.yul\":15968:16107   */\n      swap1\n      pop\n        /* \"#utility.yul\":15695:16114   */\n      swap2\n      swap1\n      pop\n      jump\t// out\n        /* \"#utility.yul\":16120:16301   */\n    tag_227:\n        /* \"#utility.yul\":16260:16293   */\n      0x42657420616d6f756e74206973206c657373207468616e206d696e696d756d00\n        /* \"#utility.yul\":16256:16257   */\n      0x00\n        /* \"#utility.yul\":16248:16254   */\n      dup3\n        /* \"#utility.yul\":16244:16258   */\n      add\n        /* \"#utility.yul\":16237:16294   */\n      mstore\n        /* \"#utility.yul\":16120:16301   */\n      pop\n      jump\t// out\n        /* \"#utility.yul\":16307:16673   */\n    tag_228:\n        /* \"#utility.yul\":16449:16452   */\n      0x00\n        /* \"#utility.yul\":16470:16537   */\n      tag_428\n        /* \"#utility.yul\":16534:16536   */\n      0x1f\n        /* \"#utility.yul\":16529:16532   */\n      dup4\n        /* \"#utility.yul\":16470:16537   */\n      tag_200\n      jump\t// in\n    tag_428:\n        /* \"#utility.yul\":16463:16537   */\n      swap2\n      pop\n        /* \"#utility.yul\":16546:16639   */\n      tag_429\n        /* \"#utility.yul\":16635:16638   */\n      dup3\n        /* \"#utility.yul\":16546:16639   */\n      tag_227\n      jump\t// in\n    tag_429:\n        /* \"#utility.yul\":16664:16666   */\n      0x20\n        /* \"#utility.yul\":16659:16662   */\n      dup3\n        /* \"#utility.yul\":16655:16667   */\n      add\n        /* \"#utility.yul\":16648:16667   */\n      swap1\n      pop\n        /* \"#utility.yul\":16307:16673   */\n      swap2\n      swap1\n      pop\n      jump\t// out\n        /* \"#utility.yul\":16679:17098   */\n    tag_61:\n        /* \"#utility.yul\":16845:16849   */\n      0x00\n        /* \"#utility.yul\":16883:16885   */\n      0x20\n        /* \"#utility.yul\":16872:16881   */\n      dup3\n        /* \"#utility.yul\":16868:16886   */\n      add\n        /* \"#utility.yul\":16860:16886   */\n      swap1\n      pop\n        /* \"#utility.yul\":16932:16941   */\n      dup2\n        /* \"#utility.yul\":16926:16930   */\n      dup2\n        /* \"#utility.yul\":16922:16942   */\n      sub\n        /* \"#utility.yul\":16918:16919   */\n      0x00\n        /* \"#utility.yul\":16907:16916   */\n      dup4\n        /* \"#utility.yul\":16903:16920   */\n      add\n        /* \"#utility.yul\":16896:16943   */\n      mstore\n        /* \"#utility.yul\":16960:17091   */\n      tag_431\n        /* \"#utility.yul\":17086:17090   */\n      dup2\n        /* \"#utility.yul\":16960:17091   */\n      tag_228\n      jump\t// in\n    tag_431:\n        /* \"#utility.yul\":16952:17091   */\n      swap1\n      pop\n        /* \"#utility.yul\":16679:17098   */\n      swap2\n      swap1\n      pop\n      jump\t// out\n        /* \"#utility.yul\":17104:17546   */\n    tag_63:\n        /* \"#utility.yul\":17253:17257   */\n      0x00\n        /* \"#utility.yul\":17291:17293   */\n      0x60\n        /* \"#utility.yul\":17280:17289   */\n      dup3\n        /* \"#utility.yul\":17276:17294   */\n      add\n        /* \"#utility.yul\":17268:17294   */\n      swap1\n      pop\n        /* \"#utility.yul\":17304:17375   */\n      tag_433\n        /* \"#utility.yul\":17372:17373   */\n      0x00\n        /* \"#utility.yul\":17361:17370   */\n      dup4\n        /* \"#utility.yul\":17357:17374   */\n      add\n        /* \"#utility.yul\":17348:17354   */\n      dup7\n        /* \"#utility.yul\":17304:17375   */\n      tag_222\n      jump\t// in\n    tag_433:\n        /* \"#utility.yul\":17385:17457   */\n      tag_434\n        /* \"#utility.yul\":17453:17455   */\n      0x20\n        /* \"#utility.yul\":17442:17451   */\n      dup4\n        /* \"#utility.yul\":17438:17456   */\n      add\n        /* \"#utility.yul\":17429:17435   */\n      dup6\n        /* \"#utility.yul\":17385:17457   */\n      tag_222\n      jump\t// in\n    tag_434:\n        /* \"#utility.yul\":17467:17539   */\n      tag_435\n        /* \"#utility.yul\":17535:17537   */\n      0x40\n        /* \"#utility.yul\":17524:17533   */\n      dup4\n        /* \"#utility.yul\":17520:17538   */\n      add\n        /* \"#utility.yul\":17511:17517   */\n      dup5\n        /* \"#utility.yul\":17467:17539   */\n      tag_190\n      jump\t// in\n    tag_435:\n        /* \"#utility.yul\":17104:17546   */\n      swap5\n      swap4\n      pop\n      pop\n      pop\n      pop\n      jump\t// out\n        /* \"#utility.yul\":17552:17668   */\n    tag_229:\n        /* \"#utility.yul\":17622:17643   */\n      tag_437\n        /* \"#utility.yul\":17637:17642   */\n      dup2\n        /* \"#utility.yul\":17622:17643   */\n      tag_191\n      jump\t// in\n    tag_437:\n        /* \"#utility.yul\":17615:17620   */\n      dup2\n        /* \"#utility.yul\":17612:17644   */\n      eq\n        /* \"#utility.yul\":17602:17662   */\n      tag_438\n      jumpi\n        /* \"#utility.yul\":17658:17659   */\n      0x00\n        /* \"#utility.yul\":17655:17656   */\n      dup1\n        /* \"#utility.yul\":17648:17660   */\n      revert\n        /* \"#utility.yul\":17602:17662   */\n    tag_438:\n        /* \"#utility.yul\":17552:17668   */\n      pop\n      jump\t// out\n        /* \"#utility.yul\":17674:17811   */\n    tag_230:\n        /* \"#utility.yul\":17728:17733   */\n      0x00\n        /* \"#utility.yul\":17759:17765   */\n      dup2\n        /* \"#utility.yul\":17753:17766   */\n      mload\n        /* \"#utility.yul\":17744:17766   */\n      swap1\n      pop\n        /* \"#utility.yul\":17775:17805   */\n      tag_440\n        /* \"#utility.yul\":17799:17804   */\n      dup2\n        /* \"#utility.yul\":17775:17805   */\n      tag_229\n      jump\t// in\n    tag_440:\n        /* \"#utility.yul\":17674:17811   */\n      swap3\n      swap2\n      pop\n      pop\n      jump\t// out\n        /* \"#utility.yul\":17817:18162   */\n    tag_67:\n        /* \"#utility.yul\":17884:17890   */\n      0x00\n        /* \"#utility.yul\":17933:17935   */\n      0x20\n        /* \"#utility.yul\":17921:17930   */\n      dup3\n        /* \"#utility.yul\":17912:17919   */\n      dup5\n        /* \"#utility.yul\":17908:17931   */\n      sub\n        /* \"#utility.yul\":17904:17936   */\n      slt\n        /* \"#utility.yul\":17901:18020   */\n      iszero\n      tag_442\n      jumpi\n        /* \"#utility.yul\":17939:18018   */\n      tag_443\n      tag_181\n      jump\t// in\n    tag_443:\n        /* \"#utility.yul\":17901:18020   */\n    tag_442:\n        /* \"#utility.yul\":18059:18060   */\n      0x00\n        /* \"#utility.yul\":18084:18145   */\n      tag_444\n        /* \"#utility.yul\":18137:18144   */\n      dup5\n        /* \"#utility.yul\":18128:18134   */\n      dup3\n        /* \"#utility.yul\":18117:18126   */\n      dup6\n        /* \"#utility.yul\":18113:18135   */\n      add\n        /* \"#utility.yul\":18084:18145   */\n      tag_230\n      jump\t// in\n    tag_444:\n        /* \"#utility.yul\":18074:18145   */\n      swap2\n      pop\n        /* \"#utility.yul\":18030:18155   */\n      pop\n        /* \"#utility.yul\":17817:18162   */\n      swap3\n      swap2\n      pop\n      pop\n      jump\t// out\n        /* \"#utility.yul\":18168:18333   */\n    tag_231:\n        /* \"#utility.yul\":18308:18325   */\n      0x5472616e73666572206661696c65640000000000000000000000000000000000\n        /* \"#utility.yul\":18304:18305   */\n      0x00\n        /* \"#utility.yul\":18296:18302   */\n      dup3\n        /* \"#utility.yul\":18292:18306   */\n      add\n        /* \"#utility.yul\":18285:18326   */\n      mstore\n        /* \"#utility.yul\":18168:18333   */\n      pop\n      jump\t// out\n        /* \"#utility.yul\":18339:18705   */\n    tag_232:\n        /* \"#utility.yul\":18481:18484   */\n      0x00\n        /* \"#utility.yul\":18502:18569   */\n      tag_447\n        /* \"#utility.yul\":18566:18568   */\n      0x0f\n        /* \"#utility.yul\":18561:18564   */\n      dup4\n        /* \"#utility.yul\":18502:18569   */\n      tag_200\n      jump\t// in\n    tag_447:\n        /* \"#utility.yul\":18495:18569   */\n      swap2\n      pop\n        /* \"#utility.yul\":18578:18671   */\n      tag_448\n        /* \"#utility.yul\":18667:18670   */\n      dup3\n        /* \"#utility.yul\":18578:18671   */\n      tag_231\n      jump\t// in\n    tag_448:\n        /* \"#utility.yul\":18696:18698   */\n      0x20\n        /* \"#utility.yul\":18691:18694   */\n      dup3\n        /* \"#utility.yul\":18687:18699   */\n      add\n        /* \"#utility.yul\":18680:18699   */\n      swap1\n      pop\n        /* \"#utility.yul\":18339:18705   */\n      swap2\n      swap1\n      pop\n      jump\t// out\n        /* \"#utility.yul\":18711:19130   */\n    tag_70:\n        /* \"#utility.yul\":18877:18881   */\n      0x00\n        /* \"#utility.yul\":18915:18917   */\n      0x20\n        /* \"#utility.yul\":18904:18913   */\n      dup3\n        /* \"#utility.yul\":18900:18918   */\n      add\n        /* \"#utility.yul\":18892:18918   */\n      swap1\n      pop\n        /* \"#utility.yul\":18964:18973   */\n      dup2\n        /* \"#utility.yul\":18958:18962   */\n      dup2\n        /* \"#utility.yul\":18954:18974   */\n      sub\n        /* \"#utility.yul\":18950:18951   */\n      0x00\n        /* \"#utility.yul\":18939:18948   */\n      dup4\n        /* \"#utility.yul\":18935:18952   */\n      add\n        /* \"#utility.yul\":18928:18975   */\n      mstore\n        /* \"#utility.yul\":18992:19123   */\n      tag_450\n        /* \"#utility.yul\":19118:19122   */\n      dup2\n        /* \"#utility.yul\":18992:19123   */\n      tag_232\n      jump\t// in\n    tag_450:\n        /* \"#utility.yul\":18984:19123   */\n      swap1\n      pop\n        /* \"#utility.yul\":18711:19130   */\n      swap2\n      swap1\n      pop\n      jump\t// out\n        /* \"#utility.yul\":19136:19316   */\n    tag_233:\n        /* \"#utility.yul\":19184:19261   */\n      0x4e487b7100000000000000000000000000000000000000000000000000000000\n        /* \"#utility.yul\":19181:19182   */\n      0x00\n        /* \"#utility.yul\":19174:19262   */\n      mstore\n        /* \"#utility.yul\":19281:19285   */\n      0x11\n        /* \"#utility.yul\":19278:19279   */\n      0x04\n        /* \"#utility.yul\":19271:19286   */\n      mstore\n        /* \"#utility.yul\":19305:19309   */\n      0x24\n        /* \"#utility.yul\":19302:19303   */\n      0x00\n        /* \"#utility.yul\":19295:19310   */\n      revert\n        /* \"#utility.yul\":19322:19513   */\n    tag_72:\n        /* \"#utility.yul\":19362:19365   */\n      0x00\n        /* \"#utility.yul\":19381:19401   */\n      tag_453\n        /* \"#utility.yul\":19399:19400   */\n      dup3\n        /* \"#utility.yul\":19381:19401   */\n      tag_187\n      jump\t// in\n    tag_453:\n        /* \"#utility.yul\":19376:19401   */\n      swap2\n      pop\n        /* \"#utility.yul\":19415:19435   */\n      tag_454\n        /* \"#utility.yul\":19433:19434   */\n      dup4\n        /* \"#utility.yul\":19415:19435   */\n      tag_187\n      jump\t// in\n    tag_454:\n        /* \"#utility.yul\":19410:19435   */\n      swap3\n      pop\n        /* \"#utility.yul\":19458:19459   */\n      dup3\n        /* \"#utility.yul\":19455:19456   */\n      dup3\n        /* \"#utility.yul\":19451:19460   */\n      add\n        /* \"#utility.yul\":19444:19460   */\n      swap1\n      pop\n        /* \"#utility.yul\":19479:19482   */\n      dup1\n        /* \"#utility.yul\":19476:19477   */\n      dup3\n        /* \"#utility.yul\":19473:19483   */\n      gt\n        /* \"#utility.yul\":19470:19506   */\n      iszero\n      tag_455\n      jumpi\n        /* \"#utility.yul\":19486:19504   */\n      tag_456\n      tag_233\n      jump\t// in\n    tag_456:\n        /* \"#utility.yul\":19470:19506   */\n    tag_455:\n        /* \"#utility.yul\":19322:19513   */\n      swap3\n      swap2\n      pop\n      pop\n      jump\t// out\n        /* \"#utility.yul\":19519:19604   */\n    tag_234:\n        /* \"#utility.yul\":19564:19571   */\n      0x00\n        /* \"#utility.yul\":19593:19598   */\n      dup2\n        /* \"#utility.yul\":19582:19598   */\n      swap1\n      pop\n        /* \"#utility.yul\":19519:19604   */\n      swap2\n      swap1\n      pop\n      jump\t// out\n        /* \"#utility.yul\":19610:19764   */\n    tag_235:\n        /* \"#utility.yul\":19666:19675   */\n      0x00\n        /* \"#utility.yul\":19699:19758   */\n      tag_459\n        /* \"#utility.yul\":19715:19757   */\n      tag_460\n        /* \"#utility.yul\":19724:19756   */\n      tag_461\n        /* \"#utility.yul\":19750:19755   */\n      dup5\n        /* \"#utility.yul\":19724:19756   */\n      tag_234\n      jump\t// in\n    tag_461:\n        /* \"#utility.yul\":19715:19757   */\n      tag_209\n      jump\t// in\n    tag_460:\n        /* \"#utility.yul\":19699:19758   */\n      tag_193\n      jump\t// in\n    tag_459:\n        /* \"#utility.yul\":19686:19758   */\n      swap1\n      pop\n        /* \"#utility.yul\":19610:19764   */\n      swap2\n      swap1\n      pop\n      jump\t// out\n        /* \"#utility.yul\":19770:19913   */\n    tag_236:\n        /* \"#utility.yul\":19863:19906   */\n      tag_463\n        /* \"#utility.yul\":19900:19905   */\n      dup2\n        /* \"#utility.yul\":19863:19906   */\n      tag_235\n      jump\t// in\n    tag_463:\n        /* \"#utility.yul\":19858:19861   */\n      dup3\n        /* \"#utility.yul\":19851:19907   */\n      mstore\n        /* \"#utility.yul\":19770:19913   */\n      pop\n      pop\n      jump\t// out\n        /* \"#utility.yul\":19919:20263   */\n    tag_76:\n        /* \"#utility.yul\":20046:20050   */\n      0x00\n        /* \"#utility.yul\":20084:20086   */\n      0x40\n        /* \"#utility.yul\":20073:20082   */\n      dup3\n        /* \"#utility.yul\":20069:20087   */\n      add\n        /* \"#utility.yul\":20061:20087   */\n      swap1\n      pop\n        /* \"#utility.yul\":20097:20168   */\n      tag_465\n        /* \"#utility.yul\":20165:20166   */\n      0x00\n        /* \"#utility.yul\":20154:20163   */\n      dup4\n        /* \"#utility.yul\":20150:20167   */\n      add\n        /* \"#utility.yul\":20141:20147   */\n      dup6\n        /* \"#utility.yul\":20097:20168   */\n      tag_190\n      jump\t// in\n    tag_465:\n        /* \"#utility.yul\":20178:20256   */\n      tag_466\n        /* \"#utility.yul\":20252:20254   */\n      0x20\n        /* \"#utility.yul\":20241:20250   */\n      dup4\n        /* \"#utility.yul\":20237:20255   */\n      add\n        /* \"#utility.yul\":20228:20234   */\n      dup5\n        /* \"#utility.yul\":20178:20256   */\n      tag_236\n      jump\t// in\n    tag_466:\n        /* \"#utility.yul\":19919:20263   */\n      swap4\n      swap3\n      pop\n      pop\n      pop\n      jump\t// out\n        /* \"#utility.yul\":20269:20368   */\n    tag_237:\n        /* \"#utility.yul\":20321:20327   */\n      0x00\n        /* \"#utility.yul\":20355:20360   */\n      dup2\n        /* \"#utility.yul\":20349:20361   */\n      mload\n        /* \"#utility.yul\":20339:20361   */\n      swap1\n      pop\n        /* \"#utility.yul\":20269:20368   */\n      swap2\n      swap1\n      pop\n      jump\t// out\n        /* \"#utility.yul\":20374:20513   */\n    tag_238:\n        /* \"#utility.yul\":20463:20469   */\n      dup3\n        /* \"#utility.yul\":20458:20461   */\n      dup2\n        /* \"#utility.yul\":20453:20456   */\n      dup4\n        /* \"#utility.yul\":20447:20470   */\n      mcopy\n        /* \"#utility.yul\":20504:20505   */\n      0x00\n        /* \"#utility.yul\":20495:20501   */\n      dup4\n        /* \"#utility.yul\":20490:20493   */\n      dup4\n        /* \"#utility.yul\":20486:20502   */\n      add\n        /* \"#utility.yul\":20479:20506   */\n      mstore\n        /* \"#utility.yul\":20374:20513   */\n      pop\n      pop\n      pop\n      jump\t// out\n        /* \"#utility.yul\":20519:20909   */\n    tag_239:\n        /* \"#utility.yul\":20625:20628   */\n      0x00\n        /* \"#utility.yul\":20653:20692   */\n      tag_470\n        /* \"#utility.yul\":20686:20691   */\n      dup3\n        /* \"#utility.yul\":20653:20692   */\n      tag_237\n      jump\t// in\n    tag_470:\n        /* \"#utility.yul\":20708:20797   */\n      tag_471\n        /* \"#utility.yul\":20790:20796   */\n      dup2\n        /* \"#utility.yul\":20785:20788   */\n      dup6\n        /* \"#utility.yul\":20708:20797   */\n      tag_196\n      jump\t// in\n    tag_471:\n        /* \"#utility.yul\":20701:20797   */\n      swap4\n      pop\n        /* \"#utility.yul\":20806:20871   */\n      tag_472\n        /* \"#utility.yul\":20864:20870   */\n      dup2\n        /* \"#utility.yul\":20859:20862   */\n      dup6\n        /* \"#utility.yul\":20852:20856   */\n      0x20\n        /* \"#utility.yul\":20845:20850   */\n      dup7\n        /* \"#utility.yul\":20841:20857   */\n      add\n        /* \"#utility.yul\":20806:20871   */\n      tag_238\n      jump\t// in\n    tag_472:\n        /* \"#utility.yul\":20896:20902   */\n      dup1\n        /* \"#utility.yul\":20891:20894   */\n      dup5\n        /* \"#utility.yul\":20887:20903   */\n      add\n        /* \"#utility.yul\":20880:20903   */\n      swap2\n      pop\n        /* \"#utility.yul\":20629:20909   */\n      pop\n        /* \"#utility.yul\":20519:20909   */\n      swap3\n      swap2\n      pop\n      pop\n      jump\t// out\n        /* \"#utility.yul\":20915:21190   */\n    tag_82:\n        /* \"#utility.yul\":21047:21050   */\n      0x00\n        /* \"#utility.yul\":21069:21164   */\n      tag_474\n        /* \"#utility.yul\":21160:21163   */\n      dup3\n        /* \"#utility.yul\":21151:21157   */\n      dup5\n        /* \"#utility.yul\":21069:21164   */\n      tag_239\n      jump\t// in\n    tag_474:\n        /* \"#utility.yul\":21062:21164   */\n      swap2\n      pop\n        /* \"#utility.yul\":21181:21184   */\n      dup2\n        /* \"#utility.yul\":21174:21184   */\n      swap1\n      pop\n        /* \"#utility.yul\":20915:21190   */\n      swap3\n      swap2\n      pop\n      pop\n      jump\t// out\n        /* \"#utility.yul\":21196:21360   */\n    tag_240:\n        /* \"#utility.yul\":21336:21352   */\n      0x4e6f7420617574686f72697a6564000000000000000000000000000000000000\n        /* \"#utility.yul\":21332:21333   */\n      0x00\n        /* \"#utility.yul\":21324:21330   */\n      dup3\n        /* \"#utility.yul\":21320:21334   */\n      add\n        /* \"#utility.yul\":21313:21353   */\n      mstore\n        /* \"#utility.yul\":21196:21360   */\n      pop\n      jump\t// out\n        /* \"#utility.yul\":21366:21732   */\n    tag_241:\n        /* \"#utility.yul\":21508:21511   */\n      0x00\n        /* \"#utility.yul\":21529:21596   */\n      tag_477\n        /* \"#utility.yul\":21593:21595   */\n      0x0e\n        /* \"#utility.yul\":21588:21591   */\n      dup4\n        /* \"#utility.yul\":21529:21596   */\n      tag_200\n      jump\t// in\n    tag_477:\n        /* \"#utility.yul\":21522:21596   */\n      swap2\n      pop\n        /* \"#utility.yul\":21605:21698   */\n      tag_478\n        /* \"#utility.yul\":21694:21697   */\n      dup3\n        /* \"#utility.yul\":21605:21698   */\n      tag_240\n      jump\t// in\n    tag_478:\n        /* \"#utility.yul\":21723:21725   */\n      0x20\n        /* \"#utility.yul\":21718:21721   */\n      dup3\n        /* \"#utility.yul\":21714:21726   */\n      add\n        /* \"#utility.yul\":21707:21726   */\n      swap1\n      pop\n        /* \"#utility.yul\":21366:21732   */\n      swap2\n      swap1\n      pop\n      jump\t// out\n        /* \"#utility.yul\":21738:22157   */\n    tag_85:\n        /* \"#utility.yul\":21904:21908   */\n      0x00\n        /* \"#utility.yul\":21942:21944   */\n      0x20\n        /* \"#utility.yul\":21931:21940   */\n      dup3\n        /* \"#utility.yul\":21927:21945   */\n      add\n        /* \"#utility.yul\":21919:21945   */\n      swap1\n      pop\n        /* \"#utility.yul\":21991:22000   */\n      dup2\n        /* \"#utility.yul\":21985:21989   */\n      dup2\n        /* \"#utility.yul\":21981:22001   */\n      sub\n        /* \"#utility.yul\":21977:21978   */\n      0x00\n        /* \"#utility.yul\":21966:21975   */\n      dup4\n        /* \"#utility.yul\":21962:21979   */\n      add\n        /* \"#utility.yul\":21955:22002   */\n      mstore\n        /* \"#utility.yul\":22019:22150   */\n      tag_480\n        /* \"#utility.yul\":22145:22149   */\n      dup2\n        /* \"#utility.yul\":22019:22150   */\n      tag_241\n      jump\t// in\n    tag_480:\n        /* \"#utility.yul\":22011:22150   */\n      swap1\n      pop\n        /* \"#utility.yul\":21738:22157   */\n      swap2\n      swap1\n      pop\n      jump\t// out\n        /* \"#utility.yul\":22163:22333   */\n    tag_242:\n        /* \"#utility.yul\":22303:22325   */\n      0x496e76616c69642077696e6e696e67207465616d000000000000000000000000\n        /* \"#utility.yul\":22299:22300   */\n      0x00\n        /* \"#utility.yul\":22291:22297   */\n      dup3\n        /* \"#utility.yul\":22287:22301   */\n      add\n        /* \"#utility.yul\":22280:22326   */\n      mstore\n        /* \"#utility.yul\":22163:22333   */\n      pop\n      jump\t// out\n        /* \"#utility.yul\":22339:22705   */\n    tag_243:\n        /* \"#utility.yul\":22481:22484   */\n      0x00\n        /* \"#utility.yul\":22502:22569   */\n      tag_483\n        /* \"#utility.yul\":22566:22568   */\n      0x14\n        /* \"#utility.yul\":22561:22564   */\n      dup4\n        /* \"#utility.yul\":22502:22569   */\n      tag_200\n      jump\t// in\n    tag_483:\n        /* \"#utility.yul\":22495:22569   */\n      swap2\n      pop\n        /* \"#utility.yul\":22578:22671   */\n      tag_484\n        /* \"#utility.yul\":22667:22670   */\n      dup3\n        /* \"#utility.yul\":22578:22671   */\n      tag_242\n      jump\t// in\n    tag_484:\n        /* \"#utility.yul\":22696:22698   */\n      0x20\n        /* \"#utility.yul\":22691:22694   */\n      dup3\n        /* \"#utility.yul\":22687:22699   */\n      add\n        /* \"#utility.yul\":22680:22699   */\n      swap1\n      pop\n        /* \"#utility.yul\":22339:22705   */\n      swap2\n      swap1\n      pop\n      jump\t// out\n        /* \"#utility.yul\":22711:23130   */\n    tag_103:\n        /* \"#utility.yul\":22877:22881   */\n      0x00\n        /* \"#utility.yul\":22915:22917   */\n      0x20\n        /* \"#utility.yul\":22904:22913   */\n      dup3\n        /* \"#utility.yul\":22900:22918   */\n      add\n        /* \"#utility.yul\":22892:22918   */\n      swap1\n      pop\n        /* \"#utility.yul\":22964:22973   */\n      dup2\n        /* \"#utility.yul\":22958:22962   */\n      dup2\n        /* \"#utility.yul\":22954:22974   */\n      sub\n        /* \"#utility.yul\":22950:22951   */\n      0x00\n        /* \"#utility.yul\":22939:22948   */\n      dup4\n        /* \"#utility.yul\":22935:22952   */\n      add\n        /* \"#utility.yul\":22928:22975   */\n      mstore\n        /* \"#utility.yul\":22992:23123   */\n      tag_486\n        /* \"#utility.yul\":23118:23122   */\n      dup2\n        /* \"#utility.yul\":22992:23123   */\n      tag_243\n      jump\t// in\n    tag_486:\n        /* \"#utility.yul\":22984:23123   */\n      swap1\n      pop\n        /* \"#utility.yul\":22711:23130   */\n      swap2\n      swap1\n      pop\n      jump\t// out\n        /* \"#utility.yul\":23136:23362   */\n    tag_244:\n        /* \"#utility.yul\":23276:23310   */\n      0x42657474696e67206d75737420626520636c6f73656420616e64206e6f742072\n        /* \"#utility.yul\":23272:23273   */\n      0x00\n        /* \"#utility.yul\":23264:23270   */\n      dup3\n        /* \"#utility.yul\":23260:23274   */\n      add\n        /* \"#utility.yul\":23253:23311   */\n      mstore\n        /* \"#utility.yul\":23345:23354   */\n      0x65736f6c76656400000000000000000000000000000000000000000000000000\n        /* \"#utility.yul\":23340:23342   */\n      0x20\n        /* \"#utility.yul\":23332:23338   */\n      dup3\n        /* \"#utility.yul\":23328:23343   */\n      add\n        /* \"#utility.yul\":23321:23355   */\n      mstore\n        /* \"#utility.yul\":23136:23362   */\n      pop\n      jump\t// out\n        /* \"#utility.yul\":23368:23734   */\n    tag_245:\n        /* \"#utility.yul\":23510:23513   */\n      0x00\n        /* \"#utility.yul\":23531:23598   */\n      tag_489\n        /* \"#utility.yul\":23595:23597   */\n      0x27\n        /* \"#utility.yul\":23590:23593   */\n      dup4\n        /* \"#utility.yul\":23531:23598   */\n      tag_200\n      jump\t// in\n    tag_489:\n        /* \"#utility.yul\":23524:23598   */\n      swap2\n      pop\n        /* \"#utility.yul\":23607:23700   */\n      tag_490\n        /* \"#utility.yul\":23696:23699   */\n      dup3\n        /* \"#utility.yul\":23607:23700   */\n      tag_244\n      jump\t// in\n    tag_490:\n        /* \"#utility.yul\":23725:23727   */\n      0x40\n        /* \"#utility.yul\":23720:23723   */\n      dup3\n        /* \"#utility.yul\":23716:23728   */\n      add\n        /* \"#utility.yul\":23709:23728   */\n      swap1\n      pop\n        /* \"#utility.yul\":23368:23734   */\n      swap2\n      swap1\n      pop\n      jump\t// out\n        /* \"#utility.yul\":23740:24159   */\n    tag_108:\n        /* \"#utility.yul\":23906:23910   */\n      0x00\n        /* \"#utility.yul\":23944:23946   */\n      0x20\n        /* \"#utility.yul\":23933:23942   */\n      dup3\n        /* \"#utility.yul\":23929:23947   */\n      add\n        /* \"#utility.yul\":23921:23947   */\n      swap1\n      pop\n        /* \"#utility.yul\":23993:24002   */\n      dup2\n        /* \"#utility.yul\":23987:23991   */\n      dup2\n        /* \"#utility.yul\":23983:24003   */\n      sub\n        /* \"#utility.yul\":23979:23980   */\n      0x00\n        /* \"#utility.yul\":23968:23977   */\n      dup4\n        /* \"#utility.yul\":23964:23981   */\n      add\n        /* \"#utility.yul\":23957:24004   */\n      mstore\n        /* \"#utility.yul\":24021:24152   */\n      tag_492\n        /* \"#utility.yul\":24147:24151   */\n      dup2\n        /* \"#utility.yul\":24021:24152   */\n      tag_245\n      jump\t// in\n    tag_492:\n        /* \"#utility.yul\":24013:24152   */\n      swap1\n      pop\n        /* \"#utility.yul\":23740:24159   */\n      swap2\n      swap1\n      pop\n      jump\t// out\n        /* \"#utility.yul\":24165:24332   */\n    tag_246:\n        /* \"#utility.yul\":24305:24324   */\n      0x4e6f2062657473206f6e205465616d2031000000000000000000000000000000\n        /* \"#utility.yul\":24301:24302   */\n      0x00\n        /* \"#utility.yul\":24293:24299   */\n      dup3\n        /* \"#utility.yul\":24289:24303   */\n      add\n        /* \"#utility.yul\":24282:24325   */\n      mstore\n        /* \"#utility.yul\":24165:24332   */\n      pop\n      jump\t// out\n        /* \"#utility.yul\":24338:24704   */\n    tag_247:\n        /* \"#utility.yul\":24480:24483   */\n      0x00\n        /* \"#utility.yul\":24501:24568   */\n      tag_495\n        /* \"#utility.yul\":24565:24567   */\n      0x11\n        /* \"#utility.yul\":24560:24563   */\n      dup4\n        /* \"#utility.yul\":24501:24568   */\n      tag_200\n      jump\t// in\n    tag_495:\n        /* \"#utility.yul\":24494:24568   */\n      swap2\n      pop\n        /* \"#utility.yul\":24577:24670   */\n      tag_496\n        /* \"#utility.yul\":24666:24669   */\n      dup3\n        /* \"#utility.yul\":24577:24670   */\n      tag_246\n      jump\t// in\n    tag_496:\n        /* \"#utility.yul\":24695:24697   */\n      0x20\n        /* \"#utility.yul\":24690:24693   */\n      dup3\n        /* \"#utility.yul\":24686:24698   */\n      add\n        /* \"#utility.yul\":24679:24698   */\n      swap1\n      pop\n        /* \"#utility.yul\":24338:24704   */\n      swap2\n      swap1\n      pop\n      jump\t// out\n        /* \"#utility.yul\":24710:25129   */\n    tag_113:\n        /* \"#utility.yul\":24876:24880   */\n      0x00\n        /* \"#utility.yul\":24914:24916   */\n      0x20\n        /* \"#utility.yul\":24903:24912   */\n      dup3\n        /* \"#utility.yul\":24899:24917   */\n      add\n        /* \"#utility.yul\":24891:24917   */\n      swap1\n      pop\n        /* \"#utility.yul\":24963:24972   */\n      dup2\n        /* \"#utility.yul\":24957:24961   */\n      dup2\n        /* \"#utility.yul\":24953:24973   */\n      sub\n        /* \"#utility.yul\":24949:24950   */\n      0x00\n        /* \"#utility.yul\":24938:24947   */\n      dup4\n        /* \"#utility.yul\":24934:24951   */\n      add\n        /* \"#utility.yul\":24927:24974   */\n      mstore\n        /* \"#utility.yul\":24991:25122   */\n      tag_498\n        /* \"#utility.yul\":25117:25121   */\n      dup2\n        /* \"#utility.yul\":24991:25122   */\n      tag_247\n      jump\t// in\n    tag_498:\n        /* \"#utility.yul\":24983:25122   */\n      swap1\n      pop\n        /* \"#utility.yul\":24710:25129   */\n      swap2\n      swap1\n      pop\n      jump\t// out\n        /* \"#utility.yul\":25135:25302   */\n    tag_248:\n        /* \"#utility.yul\":25275:25294   */\n      0x4e6f2062657473206f6e205465616d2032000000000000000000000000000000\n        /* \"#utility.yul\":25271:25272   */\n      0x00\n        /* \"#utility.yul\":25263:25269   */\n      dup3\n        /* \"#utility.yul\":25259:25273   */\n      add\n        /* \"#utility.yul\":25252:25295   */\n      mstore\n        /* \"#utility.yul\":25135:25302   */\n      pop\n      jump\t// out\n        /* \"#utility.yul\":25308:25674   */\n    tag_249:\n        /* \"#utility.yul\":25450:25453   */\n      0x00\n        /* \"#utility.yul\":25471:25538   */\n      tag_501\n        /* \"#utility.yul\":25535:25537   */\n      0x11\n        /* \"#utility.yul\":25530:25533   */\n      dup4\n        /* \"#utility.yul\":25471:25538   */\n      tag_200\n      jump\t// in\n    tag_501:\n        /* \"#utility.yul\":25464:25538   */\n      swap2\n      pop\n        /* \"#utility.yul\":25547:25640   */\n      tag_502\n        /* \"#utility.yul\":25636:25639   */\n      dup3\n        /* \"#utility.yul\":25547:25640   */\n      tag_248\n      jump\t// in\n    tag_502:\n        /* \"#utility.yul\":25665:25667   */\n      0x20\n        /* \"#utility.yul\":25660:25663   */\n      dup3\n        /* \"#utility.yul\":25656:25668   */\n      add\n        /* \"#utility.yul\":25649:25668   */\n      swap1\n      pop\n        /* \"#utility.yul\":25308:25674   */\n      swap2\n      swap1\n      pop\n      jump\t// out\n        /* \"#utility.yul\":25680:26099   */\n    tag_117:\n        /* \"#utility.yul\":25846:25850   */\n      0x00\n        /* \"#utility.yul\":25884:25886   */\n      0x20\n        /* \"#utility.yul\":25873:25882   */\n      dup3\n        /* \"#utility.yul\":25869:25887   */\n      add\n        /* \"#utility.yul\":25861:25887   */\n      swap1\n      pop\n        /* \"#utility.yul\":25933:25942   */\n      dup2\n        /* \"#utility.yul\":25927:25931   */\n      dup2\n        /* \"#utility.yul\":25923:25943   */\n      sub\n        /* \"#utility.yul\":25919:25920   */\n      0x00\n        /* \"#utility.yul\":25908:25917   */\n      dup4\n        /* \"#utility.yul\":25904:25921   */\n      add\n        /* \"#utility.yul\":25897:25944   */\n      mstore\n        /* \"#utility.yul\":25961:26092   */\n      tag_504\n        /* \"#utility.yul\":26087:26091   */\n      dup2\n        /* \"#utility.yul\":25961:26092   */\n      tag_249\n      jump\t// in\n    tag_504:\n        /* \"#utility.yul\":25953:26092   */\n      swap1\n      pop\n        /* \"#utility.yul\":25680:26099   */\n      swap2\n      swap1\n      pop\n      jump\t// out\n        /* \"#utility.yul\":26105:26285   */\n    tag_250:\n        /* \"#utility.yul\":26153:26230   */\n      0x4e487b7100000000000000000000000000000000000000000000000000000000\n        /* \"#utility.yul\":26150:26151   */\n      0x00\n        /* \"#utility.yul\":26143:26231   */\n      mstore\n        /* \"#utility.yul\":26250:26254   */\n      0x12\n        /* \"#utility.yul\":26247:26248   */\n      0x04\n        /* \"#utility.yul\":26240:26255   */\n      mstore\n        /* \"#utility.yul\":26274:26278   */\n      0x24\n        /* \"#utility.yul\":26271:26272   */\n      0x00\n        /* \"#utility.yul\":26264:26279   */\n      revert\n        /* \"#utility.yul\":26291:26476   */\n    tag_119:\n        /* \"#utility.yul\":26331:26332   */\n      0x00\n        /* \"#utility.yul\":26348:26368   */\n      tag_507\n        /* \"#utility.yul\":26366:26367   */\n      dup3\n        /* \"#utility.yul\":26348:26368   */\n      tag_187\n      jump\t// in\n    tag_507:\n        /* \"#utility.yul\":26343:26368   */\n      swap2\n      pop\n        /* \"#utility.yul\":26382:26402   */\n      tag_508\n        /* \"#utility.yul\":26400:26401   */\n      dup4\n        /* \"#utility.yul\":26382:26402   */\n      tag_187\n      jump\t// in\n    tag_508:\n        /* \"#utility.yul\":26377:26402   */\n      swap3\n      pop\n        /* \"#utility.yul\":26421:26422   */\n      dup3\n        /* \"#utility.yul\":26411:26446   */\n      tag_509\n      jumpi\n        /* \"#utility.yul\":26426:26444   */\n      tag_510\n      tag_250\n      jump\t// in\n    tag_510:\n        /* \"#utility.yul\":26411:26446   */\n    tag_509:\n        /* \"#utility.yul\":26468:26469   */\n      dup3\n        /* \"#utility.yul\":26465:26466   */\n      dup3\n        /* \"#utility.yul\":26461:26470   */\n      div\n        /* \"#utility.yul\":26456:26470   */\n      swap1\n      pop\n        /* \"#utility.yul\":26291:26476   */\n      swap3\n      swap2\n      pop\n      pop\n      jump\t// out\n        /* \"#utility.yul\":26482:26676   */\n    tag_121:\n        /* \"#utility.yul\":26522:26526   */\n      0x00\n        /* \"#utility.yul\":26542:26562   */\n      tag_512\n        /* \"#utility.yul\":26560:26561   */\n      dup3\n        /* \"#utility.yul\":26542:26562   */\n      tag_187\n      jump\t// in\n    tag_512:\n        /* \"#utility.yul\":26537:26562   */\n      swap2\n      pop\n        /* \"#utility.yul\":26576:26596   */\n      tag_513\n        /* \"#utility.yul\":26594:26595   */\n      dup4\n        /* \"#utility.yul\":26576:26596   */\n      tag_187\n      jump\t// in\n    tag_513:\n        /* \"#utility.yul\":26571:26596   */\n      swap3\n      pop\n        /* \"#utility.yul\":26620:26621   */\n      dup3\n        /* \"#utility.yul\":26617:26618   */\n      dup3\n        /* \"#utility.yul\":26613:26622   */\n      sub\n        /* \"#utility.yul\":26605:26622   */\n      swap1\n      pop\n        /* \"#utility.yul\":26644:26645   */\n      dup2\n        /* \"#utility.yul\":26638:26642   */\n      dup2\n        /* \"#utility.yul\":26635:26646   */\n      gt\n        /* \"#utility.yul\":26632:26669   */\n      iszero\n      tag_514\n      jumpi\n        /* \"#utility.yul\":26649:26667   */\n      tag_515\n      tag_233\n      jump\t// in\n    tag_515:\n        /* \"#utility.yul\":26632:26669   */\n    tag_514:\n        /* \"#utility.yul\":26482:26676   */\n      swap3\n      swap2\n      pop\n      pop\n      jump\t// out\n        /* \"#utility.yul\":26682:27014   */\n    tag_124:\n        /* \"#utility.yul\":26803:26807   */\n      0x00\n        /* \"#utility.yul\":26841:26843   */\n      0x40\n        /* \"#utility.yul\":26830:26839   */\n      dup3\n        /* \"#utility.yul\":26826:26844   */\n      add\n        /* \"#utility.yul\":26818:26844   */\n      swap1\n      pop\n        /* \"#utility.yul\":26854:26925   */\n      tag_517\n        /* \"#utility.yul\":26922:26923   */\n      0x00\n        /* \"#utility.yul\":26911:26920   */\n      dup4\n        /* \"#utility.yul\":26907:26924   */\n      add\n        /* \"#utility.yul\":26898:26904   */\n      dup6\n        /* \"#utility.yul\":26854:26925   */\n      tag_222\n      jump\t// in\n    tag_517:\n        /* \"#utility.yul\":26935:27007   */\n      tag_518\n        /* \"#utility.yul\":27003:27005   */\n      0x20\n        /* \"#utility.yul\":26992:27001   */\n      dup4\n        /* \"#utility.yul\":26988:27006   */\n      add\n        /* \"#utility.yul\":26979:26985   */\n      dup5\n        /* \"#utility.yul\":26935:27007   */\n      tag_190\n      jump\t// in\n    tag_518:\n        /* \"#utility.yul\":26682:27014   */\n      swap4\n      swap3\n      pop\n      pop\n      pop\n      jump\t// out\n        /* \"#utility.yul\":27020:27189   */\n    tag_251:\n        /* \"#utility.yul\":27160:27181   */\n      0x466565207472616e73666572206661696c656400000000000000000000000000\n        /* \"#utility.yul\":27156:27157   */\n      0x00\n        /* \"#utility.yul\":27148:27154   */\n      dup3\n        /* \"#utility.yul\":27144:27158   */\n      add\n        /* \"#utility.yul\":27137:27182   */\n      mstore\n        /* \"#utility.yul\":27020:27189   */\n      pop\n      jump\t// out\n        /* \"#utility.yul\":27195:27561   */\n    tag_252:\n        /* \"#utility.yul\":27337:27340   */\n      0x00\n        /* \"#utility.yul\":27358:27425   */\n      tag_521\n        /* \"#utility.yul\":27422:27424   */\n      0x13\n        /* \"#utility.yul\":27417:27420   */\n      dup4\n        /* \"#utility.yul\":27358:27425   */\n      tag_200\n      jump\t// in\n    tag_521:\n        /* \"#utility.yul\":27351:27425   */\n      swap2\n      pop\n        /* \"#utility.yul\":27434:27527   */\n      tag_522\n        /* \"#utility.yul\":27523:27526   */\n      dup3\n        /* \"#utility.yul\":27434:27527   */\n      tag_251\n      jump\t// in\n    tag_522:\n        /* \"#utility.yul\":27552:27554   */\n      0x20\n        /* \"#utility.yul\":27547:27550   */\n      dup3\n        /* \"#utility.yul\":27543:27555   */\n      add\n        /* \"#utility.yul\":27536:27555   */\n      swap1\n      pop\n        /* \"#utility.yul\":27195:27561   */\n      swap2\n      swap1\n      pop\n      jump\t// out\n        /* \"#utility.yul\":27567:27986   */\n    tag_130:\n        /* \"#utility.yul\":27733:27737   */\n      0x00\n        /* \"#utility.yul\":27771:27773   */\n      0x20\n        /* \"#utility.yul\":27760:27769   */\n      dup3\n        /* \"#utility.yul\":27756:27774   */\n      add\n        /* \"#utility.yul\":27748:27774   */\n      swap1\n      pop\n        /* \"#utility.yul\":27820:27829   */\n      dup2\n        /* \"#utility.yul\":27814:27818   */\n      dup2\n        /* \"#utility.yul\":27810:27830   */\n      sub\n        /* \"#utility.yul\":27806:27807   */\n      0x00\n        /* \"#utility.yul\":27795:27804   */\n      dup4\n        /* \"#utility.yul\":27791:27808   */\n      add\n        /* \"#utility.yul\":27784:27831   */\n      mstore\n        /* \"#utility.yul\":27848:27979   */\n      tag_524\n        /* \"#utility.yul\":27974:27978   */\n      dup2\n        /* \"#utility.yul\":27848:27979   */\n      tag_252\n      jump\t// in\n    tag_524:\n        /* \"#utility.yul\":27840:27979   */\n      swap1\n      pop\n        /* \"#utility.yul\":27567:27986   */\n      swap2\n      swap1\n      pop\n      jump\t// out\n        /* \"#utility.yul\":27992:28169   */\n    tag_253:\n        /* \"#utility.yul\":28132:28161   */\n      0x43726561746f7220666565207472616e73666572206661696c65640000000000\n        /* \"#utility.yul\":28128:28129   */\n      0x00\n        /* \"#utility.yul\":28120:28126   */\n      dup3\n        /* \"#utility.yul\":28116:28130   */\n      add\n        /* \"#utility.yul\":28109:28162   */\n      mstore\n        /* \"#utility.yul\":27992:28169   */\n      pop\n      jump\t// out\n        /* \"#utility.yul\":28175:28541   */\n    tag_254:\n        /* \"#utility.yul\":28317:28320   */\n      0x00\n        /* \"#utility.yul\":28338:28405   */\n      tag_527\n        /* \"#utility.yul\":28402:28404   */\n      0x1b\n        /* \"#utility.yul\":28397:28400   */\n      dup4\n        /* \"#utility.yul\":28338:28405   */\n      tag_200\n      jump\t// in\n    tag_527:\n        /* \"#utility.yul\":28331:28405   */\n      swap2\n      pop\n        /* \"#utility.yul\":28414:28507   */\n      tag_528\n        /* \"#utility.yul\":28503:28506   */\n      dup3\n        /* \"#utility.yul\":28414:28507   */\n      tag_253\n      jump\t// in\n    tag_528:\n        /* \"#utility.yul\":28532:28534   */\n      0x20\n        /* \"#utility.yul\":28527:28530   */\n      dup3\n        /* \"#utility.yul\":28523:28535   */\n      add\n        /* \"#utility.yul\":28516:28535   */\n      swap1\n      pop\n        /* \"#utility.yul\":28175:28541   */\n      swap2\n      swap1\n      pop\n      jump\t// out\n        /* \"#utility.yul\":28547:28966   */\n    tag_137:\n        /* \"#utility.yul\":28713:28717   */\n      0x00\n        /* \"#utility.yul\":28751:28753   */\n      0x20\n        /* \"#utility.yul\":28740:28749   */\n      dup3\n        /* \"#utility.yul\":28736:28754   */\n      add\n        /* \"#utility.yul\":28728:28754   */\n      swap1\n      pop\n        /* \"#utility.yul\":28800:28809   */\n      dup2\n        /* \"#utility.yul\":28794:28798   */\n      dup2\n        /* \"#utility.yul\":28790:28810   */\n      sub\n        /* \"#utility.yul\":28786:28787   */\n      0x00\n        /* \"#utility.yul\":28775:28784   */\n      dup4\n        /* \"#utility.yul\":28771:28788   */\n      add\n        /* \"#utility.yul\":28764:28811   */\n      mstore\n        /* \"#utility.yul\":28828:28959   */\n      tag_530\n        /* \"#utility.yul\":28954:28958   */\n      dup2\n        /* \"#utility.yul\":28828:28959   */\n      tag_254\n      jump\t// in\n    tag_530:\n        /* \"#utility.yul\":28820:28959   */\n      swap1\n      pop\n        /* \"#utility.yul\":28547:28966   */\n      swap2\n      swap1\n      pop\n      jump\t// out\n        /* \"#utility.yul\":28972:29152   */\n    tag_147:\n        /* \"#utility.yul\":29020:29097   */\n      0x4e487b7100000000000000000000000000000000000000000000000000000000\n        /* \"#utility.yul\":29017:29018   */\n      0x00\n        /* \"#utility.yul\":29010:29098   */\n      mstore\n        /* \"#utility.yul\":29117:29121   */\n      0x32\n        /* \"#utility.yul\":29114:29115   */\n      0x04\n        /* \"#utility.yul\":29107:29122   */\n      mstore\n        /* \"#utility.yul\":29141:29145   */\n      0x24\n        /* \"#utility.yul\":29138:29139   */\n      0x00\n        /* \"#utility.yul\":29131:29146   */\n      revert\n        /* \"#utility.yul\":29158:29568   */\n    tag_151:\n        /* \"#utility.yul\":29198:29205   */\n      0x00\n        /* \"#utility.yul\":29221:29241   */\n      tag_533\n        /* \"#utility.yul\":29239:29240   */\n      dup3\n        /* \"#utility.yul\":29221:29241   */\n      tag_187\n      jump\t// in\n    tag_533:\n        /* \"#utility.yul\":29216:29241   */\n      swap2\n      pop\n        /* \"#utility.yul\":29255:29275   */\n      tag_534\n        /* \"#utility.yul\":29273:29274   */\n      dup4\n        /* \"#utility.yul\":29255:29275   */\n      tag_187\n      jump\t// in\n    tag_534:\n        /* \"#utility.yul\":29250:29275   */\n      swap3\n      pop\n        /* \"#utility.yul\":29310:29311   */\n      dup3\n        /* \"#utility.yul\":29307:29308   */\n      dup3\n        /* \"#utility.yul\":29303:29312   */\n      mul\n        /* \"#utility.yul\":29332:29362   */\n      tag_535\n        /* \"#utility.yul\":29350:29361   */\n      dup2\n        /* \"#utility.yul\":29332:29362   */\n      tag_187\n      jump\t// in\n    tag_535:\n        /* \"#utility.yul\":29321:29362   */\n      swap2\n      pop\n        /* \"#utility.yul\":29511:29512   */\n      dup3\n        /* \"#utility.yul\":29502:29509   */\n      dup3\n        /* \"#utility.yul\":29498:29513   */\n      div\n        /* \"#utility.yul\":29495:29496   */\n      dup5\n        /* \"#utility.yul\":29492:29514   */\n      eq\n        /* \"#utility.yul\":29472:29473   */\n      dup4\n        /* \"#utility.yul\":29465:29474   */\n      iszero\n        /* \"#utility.yul\":29445:29528   */\n      or\n        /* \"#utility.yul\":29422:29561   */\n      tag_536\n      jumpi\n        /* \"#utility.yul\":29541:29559   */\n      tag_537\n      tag_233\n      jump\t// in\n    tag_537:\n        /* \"#utility.yul\":29422:29561   */\n    tag_536:\n        /* \"#utility.yul\":29206:29568   */\n      pop\n        /* \"#utility.yul\":29158:29568   */\n      swap3\n      swap2\n      pop\n      pop\n      jump\t// out\n        /* \"#utility.yul\":29574:29746   */\n    tag_255:\n        /* \"#utility.yul\":29714:29738   */\n      0x57696e6e6572207472616e73666572206661696c656400000000000000000000\n        /* \"#utility.yul\":29710:29711   */\n      0x00\n        /* \"#utility.yul\":29702:29708   */\n      dup3\n        /* \"#utility.yul\":29698:29712   */\n      add\n        /* \"#utility.yul\":29691:29739   */\n      mstore\n        /* \"#utility.yul\":29574:29746   */\n      pop\n      jump\t// out\n        /* \"#utility.yul\":29752:30118   */\n    tag_256:\n        /* \"#utility.yul\":29894:29897   */\n      0x00\n        /* \"#utility.yul\":29915:29982   */\n      tag_540\n        /* \"#utility.yul\":29979:29981   */\n      0x16\n        /* \"#utility.yul\":29974:29977   */\n      dup4\n        /* \"#utility.yul\":29915:29982   */\n      tag_200\n      jump\t// in\n    tag_540:\n        /* \"#utility.yul\":29908:29982   */\n      swap2\n      pop\n        /* \"#utility.yul\":29991:30084   */\n      tag_541\n        /* \"#utility.yul\":30080:30083   */\n      dup3\n        /* \"#utility.yul\":29991:30084   */\n      tag_255\n      jump\t// in\n    tag_541:\n        /* \"#utility.yul\":30109:30111   */\n      0x20\n        /* \"#utility.yul\":30104:30107   */\n      dup3\n        /* \"#utility.yul\":30100:30112   */\n      add\n        /* \"#utility.yul\":30093:30112   */\n      swap1\n      pop\n        /* \"#utility.yul\":29752:30118   */\n      swap2\n      swap1\n      pop\n      jump\t// out\n        /* \"#utility.yul\":30124:30543   */\n    tag_159:\n        /* \"#utility.yul\":30290:30294   */\n      0x00\n        /* \"#utility.yul\":30328:30330   */\n      0x20\n        /* \"#utility.yul\":30317:30326   */\n      dup3\n        /* \"#utility.yul\":30313:30331   */\n      add\n        /* \"#utility.yul\":30305:30331   */\n      swap1\n      pop\n        /* \"#utility.yul\":30377:30386   */\n      dup2\n        /* \"#utility.yul\":30371:30375   */\n      dup2\n        /* \"#utility.yul\":30367:30387   */\n      sub\n        /* \"#utility.yul\":30363:30364   */\n      0x00\n        /* \"#utility.yul\":30352:30361   */\n      dup4\n        /* \"#utility.yul\":30348:30365   */\n      add\n        /* \"#utility.yul\":30341:30388   */\n      mstore\n        /* \"#utility.yul\":30405:30536   */\n      tag_543\n        /* \"#utility.yul\":30531:30535   */\n      dup2\n        /* \"#utility.yul\":30405:30536   */\n      tag_256\n      jump\t// in\n    tag_543:\n        /* \"#utility.yul\":30397:30536   */\n      swap1\n      pop\n        /* \"#utility.yul\":30124:30543   */\n      swap2\n      swap1\n      pop\n      jump\t// out\n        /* \"#utility.yul\":30549:30661   */\n    tag_257:\n        /* \"#utility.yul\":30632:30654   */\n      tag_545\n        /* \"#utility.yul\":30648:30653   */\n      dup2\n        /* \"#utility.yul\":30632:30654   */\n      tag_193\n      jump\t// in\n    tag_545:\n        /* \"#utility.yul\":30627:30630   */\n      dup3\n        /* \"#utility.yul\":30620:30655   */\n      mstore\n        /* \"#utility.yul\":30549:30661   */\n      pop\n      pop\n      jump\t// out\n        /* \"#utility.yul\":30667:30881   */\n    tag_162:\n        /* \"#utility.yul\":30756:30760   */\n      0x00\n        /* \"#utility.yul\":30794:30796   */\n      0x20\n        /* \"#utility.yul\":30783:30792   */\n      dup3\n        /* \"#utility.yul\":30779:30797   */\n      add\n        /* \"#utility.yul\":30771:30797   */\n      swap1\n      pop\n        /* \"#utility.yul\":30807:30874   */\n      tag_547\n        /* \"#utility.yul\":30871:30872   */\n      0x00\n        /* \"#utility.yul\":30860:30869   */\n      dup4\n        /* \"#utility.yul\":30856:30873   */\n      add\n        /* \"#utility.yul\":30847:30853   */\n      dup5\n        /* \"#utility.yul\":30807:30874   */\n      tag_257\n      jump\t// in\n    tag_547:\n        /* \"#utility.yul\":30667:30881   */\n      swap3\n      swap2\n      pop\n      pop\n      jump\t// out\n        /* \"#utility.yul\":30887:30972   */\n    tag_258:\n        /* \"#utility.yul\":30932:30939   */\n      0x00\n        /* \"#utility.yul\":30961:30966   */\n      dup2\n        /* \"#utility.yul\":30950:30966   */\n      swap1\n      pop\n        /* \"#utility.yul\":30887:30972   */\n      swap2\n      swap1\n      pop\n      jump\t// out\n        /* \"#utility.yul\":30978:31132   */\n    tag_259:\n        /* \"#utility.yul\":31034:31043   */\n      0x00\n        /* \"#utility.yul\":31067:31126   */\n      tag_550\n        /* \"#utility.yul\":31083:31125   */\n      tag_551\n        /* \"#utility.yul\":31092:31124   */\n      tag_552\n        /* \"#utility.yul\":31118:31123   */\n      dup5\n        /* \"#utility.yul\":31092:31124   */\n      tag_258\n      jump\t// in\n    tag_552:\n        /* \"#utility.yul\":31083:31125   */\n      tag_209\n      jump\t// in\n    tag_551:\n        /* \"#utility.yul\":31067:31126   */\n      tag_193\n      jump\t// in\n    tag_550:\n        /* \"#utility.yul\":31054:31126   */\n      swap1\n      pop\n        /* \"#utility.yul\":30978:31132   */\n      swap2\n      swap1\n      pop\n      jump\t// out\n        /* \"#utility.yul\":31138:31281   */\n    tag_260:\n        /* \"#utility.yul\":31231:31274   */\n      tag_554\n        /* \"#utility.yul\":31268:31273   */\n      dup2\n        /* \"#utility.yul\":31231:31274   */\n      tag_259\n      jump\t// in\n    tag_554:\n        /* \"#utility.yul\":31226:31229   */\n      dup3\n        /* \"#utility.yul\":31219:31275   */\n      mstore\n        /* \"#utility.yul\":31138:31281   */\n      pop\n      pop\n      jump\t// out\n        /* \"#utility.yul\":31287:31631   */\n    tag_179:\n        /* \"#utility.yul\":31414:31418   */\n      0x00\n        /* \"#utility.yul\":31452:31454   */\n      0x40\n        /* \"#utility.yul\":31441:31450   */\n      dup3\n        /* \"#utility.yul\":31437:31455   */\n      add\n        /* \"#utility.yul\":31429:31455   */\n      swap1\n      pop\n        /* \"#utility.yul\":31465:31536   */\n      tag_556\n        /* \"#utility.yul\":31533:31534   */\n      0x00\n        /* \"#utility.yul\":31522:31531   */\n      dup4\n        /* \"#utility.yul\":31518:31535   */\n      add\n        /* \"#utility.yul\":31509:31515   */\n      dup6\n        /* \"#utility.yul\":31465:31536   */\n      tag_190\n      jump\t// in\n    tag_556:\n        /* \"#utility.yul\":31546:31624   */\n      tag_557\n        /* \"#utility.yul\":31620:31622   */\n      0x20\n        /* \"#utility.yul\":31609:31618   */\n      dup4\n        /* \"#utility.yul\":31605:31623   */\n      add\n        /* \"#utility.yul\":31596:31602   */\n      dup5\n        /* \"#utility.yul\":31546:31624   */\n      tag_260\n      jump\t// in\n    tag_557:\n        /* \"#utility.yul\":31287:31631   */\n      swap4\n      swap3\n      pop\n      pop\n      pop\n      jump\t// out\n\n    auxdata: 0xa2646970667358221220524ed80ce71d16c895b43d07f1d5b507fb28de93788d828ac20279ec111e877164736f6c634300081a0033\n}\n",
				"bytecode": {
					"linkReferences": {},
					"object": "6080604052348015600e575f80fd5b50733d2bd0e15829aa5c362a4144fdf4a1112fa29b5c60025f6101000a81548173ffffffffffffffffffffffffffffffffffffffff021916908373ffffffffffffffffffffffffffffffffffffffff160217905550612407806100705f395ff3fe608060405234801561000f575f80fd5b506004361061007b575f3560e01c806385148cce1161005957806385148cce146100eb5780638d865b3b14610107578063dd9f424214610123578063f85b1ad41461013f5761007b565b80633cfbf7211461007f5780635f4dbd411461009b5780637fe0dbc7146100b7575b5f80fd5b610099600480360381019061009491906114a5565b61015b565b005b6100b560048036038101906100b09190611569565b6102d4565b005b6100d160048036038101906100cc91906115c6565b610610565b6040516100e295949392919061163a565b60405180910390f35b610105600480360381019061010091906115c6565b610687565b005b610121600480360381019061011c91906115c6565b6107be565b005b61013d600480360381019061013891906116c1565b61093a565b005b61015960048036038101906101549190611569565b6110cd565b005b5f6001888860405161016e92919061175a565b90815260200160405180910390205f0180546101899061179f565b9050146101cb576040517f08c379a00000000000000000000000000000000000000000000000000000000081526004016101c29061184f565b60405180910390fd5b5f600188886040516101de92919061175a565b908152602001604051809103902090508787825f019182610200929190611a41565b508585826001019182610214929190611a41565b508383826002019182610228929190611a41565b5033816009015f6101000a81548173ffffffffffffffffffffffffffffffffffffffff021916908373ffffffffffffffffffffffffffffffffffffffff160217905550815f81905550878760405161028192919061175a565b60405180910390207fb2bf4cb1e7d2d0aa3dbfb1dc17f06225b4e12b43536a29adeb8e6c58f8d8508c3388888888886040516102c296959493929190611b89565b60405180910390a25050505050505050565b5f600184846040516102e792919061175a565b908152602001604051809103902090508060090160149054906101000a900460ff1615610349576040517f08c379a000000000000000000000000000000000000000000000000000000000815260040161034090611c28565b60405180910390fd5b5f5482101561038d576040517f08c379a000000000000000000000000000000000000000000000000000000000815260040161038490611c90565b60405180910390fd5b60025f9054906101000a900473ffffffffffffffffffffffffffffffffffffffff1673ffffffffffffffffffffffffffffffffffffffff166323b872dd3330856040518463ffffffff1660e01b81526004016103eb93929190611cae565b6020604051808303815f875af1158015610407573d5f803e3d5ffd5b505050506040513d601f19601f8201168201806040525081019061042b9190611d0d565b61046a576040517f08c379a000000000000000000000000000000000000000000000000000000000815260040161046190611d82565b60405180910390fd5b81816003015f82825461047d9190611dcd565b9250508190555060405180604001604052803373ffffffffffffffffffffffffffffffffffffffff16815260200183815250816005015f3373ffffffffffffffffffffffffffffffffffffffff1673ffffffffffffffffffffffffffffffffffffffff1681526020019081526020015f205f820151815f015f6101000a81548173ffffffffffffffffffffffffffffffffffffffff021916908373ffffffffffffffffffffffffffffffffffffffff160217905550602082015181600101559050508060070133908060018154018082558091505060019003905f5260205f20015f9091909190916101000a81548173ffffffffffffffffffffffffffffffffffffffff021916908373ffffffffffffffffffffffffffffffffffffffff1602179055503373ffffffffffffffffffffffffffffffffffffffff1684846040516105c892919061175a565b60405180910390207f25d0b2e7d8a0da3bb9aa3019cd218e49ea828b3201ec9ed950ce9709357b4ee4846001604051610602929190611e39565b60405180910390a350505050565b5f805f805f806001888860405161062892919061175a565b90815260200160405180910390209050806003015494508060040154935083856106529190611dcd565b95508060090160149054906101000a900460ff1692508060090160159054906101000a900460ff169150509295509295909350565b81818080601f0160208091040260200160405190810160405280939291908181526020018383808284375f81840152601f19601f820116905080830192505050505050506001816040516106db9190611ea8565b90815260200160405180910390206009015f9054906101000a900473ffffffffffffffffffffffffffffffffffffffff1673ffffffffffffffffffffffffffffffffffffffff163373ffffffffffffffffffffffffffffffffffffffff1614610779576040517f08c379a000000000000000000000000000000000000000000000000000000000815260040161077090611f08565b60405180910390fd5b5f6001848460405161078c92919061175a565b908152602001604051809103902090505f8160090160146101000a81548160ff02191690831515021790555050505050565b81818080601f0160208091040260200160405190810160405280939291908181526020018383808284375f81840152601f19601f820116905080830192505050505050506001816040516108129190611ea8565b90815260200160405180910390206009015f9054906101000a900473ffffffffffffffffffffffffffffffffffffffff1673ffffffffffffffffffffffffffffffffffffffff163373ffffffffffffffffffffffffffffffffffffffff16146108b0576040517f08c379a00000000000000000000000000000000000000000000000000000000081526004016108a790611f08565b60405180910390fd5b5f600184846040516108c392919061175a565b9081526020016040518091039020905060018160090160146101000a81548160ff021916908315150217905550838360405161090092919061175a565b60405180910390207f7b02cf1900235aacaf412760f88ae7e04c207bc4a1cae3d6a08b65d3542efab060405160405180910390a250505050565b82828080601f0160208091040260200160405190810160405280939291908181526020018383808284375f81840152601f19601f8201169050808301925050505050505060018160405161098e9190611ea8565b90815260200160405180910390206009015f9054906101000a900473ffffffffffffffffffffffffffffffffffffffff1673ffffffffffffffffffffffffffffffffffffffff163373ffffffffffffffffffffffffffffffffffffffff1614610a2c576040517f08c379a0000000000000000000000000000000000000000000000000000000008152600401610a2390611f08565b60405180910390fd5b60018260ff161480610a41575060028260ff16145b610a80576040517f08c379a0000000000000000000000000000000000000000000000000000000008152600401610a7790611f70565b60405180910390fd5b5f60018585604051610a9392919061175a565b908152602001604051809103902090508060090160149054906101000a900460ff168015610ad057508060090160159054906101000a900460ff16155b610b0f576040517f08c379a0000000000000000000000000000000000000000000000000000000008152600401610b0690611ffe565b60405180910390fd5b5f81600401548260030154610b249190611dcd565b90505f60018560ff1603610b84575f836003015411610b78576040517f08c379a0000000000000000000000000000000000000000000000000000000008152600401610b6f90612066565b60405180910390fd5b82600301549050610bd2565b5f836004015411610bca576040517f08c379a0000000000000000000000000000000000000000000000000000000008152600401610bc1906120ce565b60405180910390fd5b826004015490505b5f606483610be09190612119565b90505f8190505f818386610bf49190612149565b610bfe9190612149565b905060025f9054906101000a900473ffffffffffffffffffffffffffffffffffffffff1673ffffffffffffffffffffffffffffffffffffffff1663a9059cbb73d7bf67d127ea9c7f58122e965f2f7ae8f1b5032e856040518363ffffffff1660e01b8152600401610c7092919061217c565b6020604051808303815f875af1158015610c8c573d5f803e3d5ffd5b505050506040513d601f19601f82011682018060405250810190610cb09190611d0d565b610cef576040517f08c379a0000000000000000000000000000000000000000000000000000000008152600401610ce6906121ed565b60405180910390fd5b60025f9054906101000a900473ffffffffffffffffffffffffffffffffffffffff1673ffffffffffffffffffffffffffffffffffffffff1663a9059cbb876009015f9054906101000a900473ffffffffffffffffffffffffffffffffffffffff16846040518363ffffffff1660e01b8152600401610d6e92919061217c565b6020604051808303815f875af1158015610d8a573d5f803e3d5ffd5b505050506040513d601f19601f82011682018060405250810190610dae9190611d0d565b610ded576040517f08c379a0000000000000000000000000000000000000000000000000000000008152600401610de490612255565b60405180910390fd5b5f60018960ff1614610e025786600801610e07565b866007015b805480602002602001604051908101604052809291908181526020018280548015610e8457602002820191905f5260205f20905b815f9054906101000a900473ffffffffffffffffffffffffffffffffffffffff1673ffffffffffffffffffffffffffffffffffffffff1681526020019060010190808311610e3b575b505050505090505f5b8151811015611053575f828281518110610eaa57610ea9612273565b5b602002602001015190505f60018c60ff1614610f0857896006015f8373ffffffffffffffffffffffffffffffffffffffff1673ffffffffffffffffffffffffffffffffffffffff1681526020019081526020015f2060010154610f4c565b896005015f8373ffffffffffffffffffffffffffffffffffffffff1673ffffffffffffffffffffffffffffffffffffffff1681526020019081526020015f20600101545b90505f888683610f5c91906122a0565b610f669190612119565b905060025f9054906101000a900473ffffffffffffffffffffffffffffffffffffffff1673ffffffffffffffffffffffffffffffffffffffff1663a9059cbb84836040518363ffffffff1660e01b8152600401610fc492919061217c565b6020604051808303815f875af1158015610fe0573d5f803e3d5ffd5b505050506040513d601f19601f820116820180604052508101906110049190611d0d565b611043576040517f08c379a000000000000000000000000000000000000000000000000000000000815260040161103a9061232b565b60405180910390fd5b5050508080600101915050610e8d565b5060018760090160156101000a81548160ff0219169083151502179055508a8a60405161108192919061175a565b60405180910390207f5e80dc66ae7f04a06755bfcd4aa1e9a2c7bb4bddbde5169b27869190ebf950028a6040516110b89190612358565b60405180910390a25050505050505050505050565b5f600184846040516110e092919061175a565b908152602001604051809103902090508060090160149054906101000a900460ff1615611142576040517f08c379a000000000000000000000000000000000000000000000000000000000815260040161113990611c28565b60405180910390fd5b5f54821015611186576040517f08c379a000000000000000000000000000000000000000000000000000000000815260040161117d90611c90565b60405180910390fd5b60025f9054906101000a900473ffffffffffffffffffffffffffffffffffffffff1673ffffffffffffffffffffffffffffffffffffffff166323b872dd3330856040518463ffffffff1660e01b81526004016111e493929190611cae565b6020604051808303815f875af1158015611200573d5f803e3d5ffd5b505050506040513d601f19601f820116820180604052508101906112249190611d0d565b611263576040517f08c379a000000000000000000000000000000000000000000000000000000000815260040161125a90611d82565b60405180910390fd5b81816004015f8282546112769190611dcd565b9250508190555060405180604001604052803373ffffffffffffffffffffffffffffffffffffffff16815260200183815250816006015f3373ffffffffffffffffffffffffffffffffffffffff1673ffffffffffffffffffffffffffffffffffffffff1681526020019081526020015f205f820151815f015f6101000a81548173ffffffffffffffffffffffffffffffffffffffff021916908373ffffffffffffffffffffffffffffffffffffffff160217905550602082015181600101559050508060080133908060018154018082558091505060019003905f5260205f20015f9091909190916101000a81548173ffffffffffffffffffffffffffffffffffffffff021916908373ffffffffffffffffffffffffffffffffffffffff1602179055503373ffffffffffffffffffffffffffffffffffffffff1684846040516113c192919061175a565b60405180910390207f25d0b2e7d8a0da3bb9aa3019cd218e49ea828b3201ec9ed950ce9709357b4ee48460026040516113fb9291906123aa565b60405180910390a350505050565b5f80fd5b5f80fd5b5f80fd5b5f80fd5b5f80fd5b5f8083601f84011261143257611431611411565b5b8235905067ffffffffffffffff81111561144f5761144e611415565b5b60208301915083600182028301111561146b5761146a611419565b5b9250929050565b5f819050919050565b61148481611472565b811461148e575f80fd5b50565b5f8135905061149f8161147b565b92915050565b5f805f805f805f6080888a0312156114c0576114bf611409565b5b5f88013567ffffffffffffffff8111156114dd576114dc61140d565b5b6114e98a828b0161141d565b9750975050602088013567ffffffffffffffff81111561150c5761150b61140d565b5b6115188a828b0161141d565b9550955050604088013567ffffffffffffffff81111561153b5761153a61140d565b5b6115478a828b0161141d565b9350935050606061155a8a828b01611491565b91505092959891949750929550565b5f805f604084860312156115805761157f611409565b5b5f84013567ffffffffffffffff81111561159d5761159c61140d565b5b6115a98682870161141d565b935093505060206115bc86828701611491565b9150509250925092565b5f80602083850312156115dc576115db611409565b5b5f83013567ffffffffffffffff8111156115f9576115f861140d565b5b6116058582860161141d565b92509250509250929050565b61161a81611472565b82525050565b5f8115159050919050565b61163481611620565b82525050565b5f60a08201905061164d5f830188611611565b61165a6020830187611611565b6116676040830186611611565b611674606083018561162b565b611681608083018461162b565b9695505050505050565b5f60ff82169050919050565b6116a08161168b565b81146116aa575f80fd5b50565b5f813590506116bb81611697565b92915050565b5f805f604084860312156116d8576116d7611409565b5b5f84013567ffffffffffffffff8111156116f5576116f461140d565b5b6117018682870161141d565b93509350506020611714868287016116ad565b9150509250925092565b5f81905092915050565b828183375f83830152505050565b5f611741838561171e565b935061174e838584611728565b82840190509392505050565b5f611766828486611736565b91508190509392505050565b7f4e487b71000000000000000000000000000000000000000000000000000000005f52602260045260245ffd5b5f60028204905060018216806117b657607f821691505b6020821081036117c9576117c8611772565b5b50919050565b5f82825260208201905092915050565b7f42657420696e7374616e63652077697468207468697320494420616c726561645f8201527f7920657869737473000000000000000000000000000000000000000000000000602082015250565b5f6118396028836117cf565b9150611844826117df565b604082019050919050565b5f6020820190508181035f8301526118668161182d565b9050919050565b5f82905092915050565b7f4e487b71000000000000000000000000000000000000000000000000000000005f52604160045260245ffd5b5f819050815f5260205f209050919050565b5f6020601f8301049050919050565b5f82821b905092915050565b5f600883026119007fffffffffffffffffffffffffffffffffffffffffffffffffffffffffffffffff826118c5565b61190a86836118c5565b95508019841693508086168417925050509392505050565b5f819050919050565b5f61194561194061193b84611472565b611922565b611472565b9050919050565b5f819050919050565b61195e8361192b565b61197261196a8261194c565b8484546118d1565b825550505050565b5f90565b61198661197a565b611991818484611955565b505050565b5b818110156119b4576119a95f8261197e565b600181019050611997565b5050565b601f8211156119f9576119ca816118a4565b6119d3846118b6565b810160208510156119e2578190505b6119f66119ee856118b6565b830182611996565b50505b505050565b5f82821c905092915050565b5f611a195f19846008026119fe565b1980831691505092915050565b5f611a318383611a0a565b9150826002028217905092915050565b611a4b838361186d565b67ffffffffffffffff811115611a6457611a63611877565b5b611a6e825461179f565b611a798282856119b8565b5f601f831160018114611aa6575f8415611a94578287013590505b611a9e8582611a26565b865550611b05565b601f198416611ab4866118a4565b5f5b82811015611adb57848901358255600182019150602085019450602081019050611ab6565b86831015611af85784890135611af4601f891682611a0a565b8355505b6001600288020188555050505b50505050505050565b5f73ffffffffffffffffffffffffffffffffffffffff82169050919050565b5f611b3782611b0e565b9050919050565b611b4781611b2d565b82525050565b5f601f19601f8301169050919050565b5f611b6883856117cf565b9350611b75838584611728565b611b7e83611b4d565b840190509392505050565b5f608082019050611b9c5f830189611b3e565b8181036020830152611baf818789611b5d565b90508181036040830152611bc4818587611b5d565b9050611bd36060830184611611565b979650505050505050565b7f42657474696e6720697320636c6f7365640000000000000000000000000000005f82015250565b5f611c126011836117cf565b9150611c1d82611bde565b602082019050919050565b5f6020820190508181035f830152611c3f81611c06565b9050919050565b7f42657420616d6f756e74206973206c657373207468616e206d696e696d756d005f82015250565b5f611c7a601f836117cf565b9150611c8582611c46565b602082019050919050565b5f6020820190508181035f830152611ca781611c6e565b9050919050565b5f606082019050611cc15f830186611b3e565b611cce6020830185611b3e565b611cdb6040830184611611565b949350505050565b611cec81611620565b8114611cf6575f80fd5b50565b5f81519050611d0781611ce3565b92915050565b5f60208284031215611d2257611d21611409565b5b5f611d2f84828501611cf9565b91505092915050565b7f5472616e73666572206661696c656400000000000000000000000000000000005f82015250565b5f611d6c600f836117cf565b9150611d7782611d38565b602082019050919050565b5f6020820190508181035f830152611d9981611d60565b9050919050565b7f4e487b71000000000000000000000000000000000000000000000000000000005f52601160045260245ffd5b5f611dd782611472565b9150611de283611472565b9250828201905080821115611dfa57611df9611da0565b5b92915050565b5f819050919050565b5f611e23611e1e611e1984611e00565b611922565b61168b565b9050919050565b611e3381611e09565b82525050565b5f604082019050611e4c5f830185611611565b611e596020830184611e2a565b9392505050565b5f81519050919050565b8281835e5f83830152505050565b5f611e8282611e60565b611e8c818561171e565b9350611e9c818560208601611e6a565b80840191505092915050565b5f611eb38284611e78565b915081905092915050565b7f4e6f7420617574686f72697a65640000000000000000000000000000000000005f82015250565b5f611ef2600e836117cf565b9150611efd82611ebe565b602082019050919050565b5f6020820190508181035f830152611f1f81611ee6565b9050919050565b7f496e76616c69642077696e6e696e67207465616d0000000000000000000000005f82015250565b5f611f5a6014836117cf565b9150611f6582611f26565b602082019050919050565b5f6020820190508181035f830152611f8781611f4e565b9050919050565b7f42657474696e67206d75737420626520636c6f73656420616e64206e6f7420725f8201527f65736f6c76656400000000000000000000000000000000000000000000000000602082015250565b5f611fe86027836117cf565b9150611ff382611f8e565b604082019050919050565b5f6020820190508181035f83015261201581611fdc565b9050919050565b7f4e6f2062657473206f6e205465616d20310000000000000000000000000000005f82015250565b5f6120506011836117cf565b915061205b8261201c565b602082019050919050565b5f6020820190508181035f83015261207d81612044565b9050919050565b7f4e6f2062657473206f6e205465616d20320000000000000000000000000000005f82015250565b5f6120b86011836117cf565b91506120c382612084565b602082019050919050565b5f6020820190508181035f8301526120e5816120ac565b9050919050565b7f4e487b71000000000000000000000000000000000000000000000000000000005f52601260045260245ffd5b5f61212382611472565b915061212e83611472565b92508261213e5761213d6120ec565b5b828204905092915050565b5f61215382611472565b915061215e83611472565b925082820390508181111561217657612175611da0565b5b92915050565b5f60408201905061218f5f830185611b3e565b61219c6020830184611611565b9392505050565b7f466565207472616e73666572206661696c6564000000000000000000000000005f82015250565b5f6121d76013836117cf565b91506121e2826121a3565b602082019050919050565b5f6020820190508181035f830152612204816121cb565b9050919050565b7f43726561746f7220666565207472616e73666572206661696c656400000000005f82015250565b5f61223f601b836117cf565b915061224a8261220b565b602082019050919050565b5f6020820190508181035f83015261226c81612233565b9050919050565b7f4e487b71000000000000000000000000000000000000000000000000000000005f52603260045260245ffd5b5f6122aa82611472565b91506122b583611472565b92508282026122c381611472565b915082820484148315176122da576122d9611da0565b5b5092915050565b7f57696e6e6572207472616e73666572206661696c6564000000000000000000005f82015250565b5f6123156016836117cf565b9150612320826122e1565b602082019050919050565b5f6020820190508181035f83015261234281612309565b9050919050565b6123528161168b565b82525050565b5f60208201905061236b5f830184612349565b92915050565b5f819050919050565b5f61239461238f61238a84612371565b611922565b61168b565b9050919050565b6123a48161237a565b82525050565b5f6040820190506123bd5f830185611611565b6123ca602083018461239b565b939250505056fea2646970667358221220524ed80ce71d16c895b43d07f1d5b507fb28de93788d828ac20279ec111e877164736f6c634300081a0033",
					"opcodes": "PUSH1 0x80 PUSH1 0x40 MSTORE CALLVALUE DUP1 ISZERO PUSH1 0xE JUMPI PUSH0 DUP1 REVERT JUMPDEST POP PUSH20 0x3D2BD0E15829AA5C362A4144FDF4A1112FA29B5C PUSH1 0x2 PUSH0 PUSH2 0x100 EXP DUP2 SLOAD DUP2 PUSH20 0xFFFFFFFFFFFFFFFFFFFFFFFFFFFFFFFFFFFFFFFF MUL NOT AND SWAP1 DUP4 PUSH20 0xFFFFFFFFFFFFFFFFFFFFFFFFFFFFFFFFFFFFFFFF AND MUL OR SWAP1 SSTORE POP PUSH2 0x2407 DUP1 PUSH2 0x70 PUSH0 CODECOPY PUSH0 RETURN INVALID PUSH1 0x80 PUSH1 0x40 MSTORE CALLVALUE DUP1 ISZERO PUSH2 0xF JUMPI PUSH0 DUP1 REVERT JUMPDEST POP PUSH1 0x4 CALLDATASIZE LT PUSH2 0x7B JUMPI PUSH0 CALLDATALOAD PUSH1 0xE0 SHR DUP1 PUSH4 0x85148CCE GT PUSH2 0x59 JUMPI DUP1 PUSH4 0x85148CCE EQ PUSH2 0xEB JUMPI DUP1 PUSH4 0x8D865B3B EQ PUSH2 0x107 JUMPI DUP1 PUSH4 0xDD9F4242 EQ PUSH2 0x123 JUMPI DUP1 PUSH4 0xF85B1AD4 EQ PUSH2 0x13F JUMPI PUSH2 0x7B JUMP JUMPDEST DUP1 PUSH4 0x3CFBF721 EQ PUSH2 0x7F JUMPI DUP1 PUSH4 0x5F4DBD41 EQ PUSH2 0x9B JUMPI DUP1 PUSH4 0x7FE0DBC7 EQ PUSH2 0xB7 JUMPI JUMPDEST PUSH0 DUP1 REVERT JUMPDEST PUSH2 0x99 PUSH1 0x4 DUP1 CALLDATASIZE SUB DUP2 ADD SWAP1 PUSH2 0x94 SWAP2 SWAP1 PUSH2 0x14A5 JUMP JUMPDEST PUSH2 0x15B JUMP JUMPDEST STOP JUMPDEST PUSH2 0xB5 PUSH1 0x4 DUP1 CALLDATASIZE SUB DUP2 ADD SWAP1 PUSH2 0xB0 SWAP2 SWAP1 PUSH2 0x1569 JUMP JUMPDEST PUSH2 0x2D4 JUMP JUMPDEST STOP JUMPDEST PUSH2 0xD1 PUSH1 0x4 DUP1 CALLDATASIZE SUB DUP2 ADD SWAP1 PUSH2 0xCC SWAP2 SWAP1 PUSH2 0x15C6 JUMP JUMPDEST PUSH2 0x610 JUMP JUMPDEST PUSH1 0x40 MLOAD PUSH2 0xE2 SWAP6 SWAP5 SWAP4 SWAP3 SWAP2 SWAP1 PUSH2 0x163A JUMP JUMPDEST PUSH1 0x40 MLOAD DUP1 SWAP2 SUB SWAP1 RETURN JUMPDEST PUSH2 0x105 PUSH1 0x4 DUP1 CALLDATASIZE SUB DUP2 ADD SWAP1 PUSH2 0x100 SWAP2 SWAP1 PUSH2 0x15C6 JUMP JUMPDEST PUSH2 0x687 JUMP JUMPDEST STOP JUMPDEST PUSH2 0x121 PUSH1 0x4 DUP1 CALLDATASIZE SUB DUP2 ADD SWAP1 PUSH2 0x11C SWAP2 SWAP1 PUSH2 0x15C6 JUMP JUMPDEST PUSH2 0x7BE JUMP JUMPDEST STOP JUMPDEST PUSH2 0x13D PUSH1 0x4 DUP1 CALLDATASIZE SUB DUP2 ADD SWAP1 PUSH2 0x138 SWAP2 SWAP1 PUSH2 0x16C1 JUMP JUMPDEST PUSH2 0x93A JUMP JUMPDEST STOP JUMPDEST PUSH2 0x159 PUSH1 0x4 DUP1 CALLDATASIZE SUB DUP2 ADD SWAP1 PUSH2 0x154 SWAP2 SWAP1 PUSH2 0x1569 JUMP JUMPDEST PUSH2 0x10CD JUMP JUMPDEST STOP JUMPDEST PUSH0 PUSH1 0x1 DUP9 DUP9 PUSH1 0x40 MLOAD PUSH2 0x16E SWAP3 SWAP2 SWAP1 PUSH2 0x175A JUMP JUMPDEST SWAP1 DUP2 MSTORE PUSH1 0x20 ADD PUSH1 0x40 MLOAD DUP1 SWAP2 SUB SWAP1 KECCAK256 PUSH0 ADD DUP1 SLOAD PUSH2 0x189 SWAP1 PUSH2 0x179F JUMP JUMPDEST SWAP1 POP EQ PUSH2 0x1CB JUMPI PUSH1 0x40 MLOAD PUSH32 0x8C379A000000000000000000000000000000000000000000000000000000000 DUP2 MSTORE PUSH1 0x4 ADD PUSH2 0x1C2 SWAP1 PUSH2 0x184F JUMP JUMPDEST PUSH1 0x40 MLOAD DUP1 SWAP2 SUB SWAP1 REVERT JUMPDEST PUSH0 PUSH1 0x1 DUP9 DUP9 PUSH1 0x40 MLOAD PUSH2 0x1DE SWAP3 SWAP2 SWAP1 PUSH2 0x175A JUMP JUMPDEST SWAP1 DUP2 MSTORE PUSH1 0x20 ADD PUSH1 0x40 MLOAD DUP1 SWAP2 SUB SWAP1 KECCAK256 SWAP1 POP DUP8 DUP8 DUP3 PUSH0 ADD SWAP2 DUP3 PUSH2 0x200 SWAP3 SWAP2 SWAP1 PUSH2 0x1A41 JUMP JUMPDEST POP DUP6 DUP6 DUP3 PUSH1 0x1 ADD SWAP2 DUP3 PUSH2 0x214 SWAP3 SWAP2 SWAP1 PUSH2 0x1A41 JUMP JUMPDEST POP DUP4 DUP4 DUP3 PUSH1 0x2 ADD SWAP2 DUP3 PUSH2 0x228 SWAP3 SWAP2 SWAP1 PUSH2 0x1A41 JUMP JUMPDEST POP CALLER DUP2 PUSH1 0x9 ADD PUSH0 PUSH2 0x100 EXP DUP2 SLOAD DUP2 PUSH20 0xFFFFFFFFFFFFFFFFFFFFFFFFFFFFFFFFFFFFFFFF MUL NOT AND SWAP1 DUP4 PUSH20 0xFFFFFFFFFFFFFFFFFFFFFFFFFFFFFFFFFFFFFFFF AND MUL OR SWAP1 SSTORE POP DUP2 PUSH0 DUP2 SWAP1 SSTORE POP DUP8 DUP8 PUSH1 0x40 MLOAD PUSH2 0x281 SWAP3 SWAP2 SWAP1 PUSH2 0x175A JUMP JUMPDEST PUSH1 0x40 MLOAD DUP1 SWAP2 SUB SWAP1 KECCAK256 PUSH32 0xB2BF4CB1E7D2D0AA3DBFB1DC17F06225B4E12B43536A29ADEB8E6C58F8D8508C CALLER DUP9 DUP9 DUP9 DUP9 DUP9 PUSH1 0x40 MLOAD PUSH2 0x2C2 SWAP7 SWAP6 SWAP5 SWAP4 SWAP3 SWAP2 SWAP1 PUSH2 0x1B89 JUMP JUMPDEST PUSH1 0x40 MLOAD DUP1 SWAP2 SUB SWAP1 LOG2 POP POP POP POP POP POP POP POP JUMP JUMPDEST PUSH0 PUSH1 0x1 DUP5 DUP5 PUSH1 0x40 MLOAD PUSH2 0x2E7 SWAP3 SWAP2 SWAP1 PUSH2 0x175A JUMP JUMPDEST SWAP1 DUP2 MSTORE PUSH1 0x20 ADD PUSH1 0x40 MLOAD DUP1 SWAP2 SUB SWAP1 KECCAK256 SWAP1 POP DUP1 PUSH1 0x9 ADD PUSH1 0x14 SWAP1 SLOAD SWAP1 PUSH2 0x100 EXP SWAP1 DIV PUSH1 0xFF AND ISZERO PUSH2 0x349 JUMPI PUSH1 0x40 MLOAD PUSH32 0x8C379A000000000000000000000000000000000000000000000000000000000 DUP2 MSTORE PUSH1 0x4 ADD PUSH2 0x340 SWAP1 PUSH2 0x1C28 JUMP JUMPDEST PUSH1 0x40 MLOAD DUP1 SWAP2 SUB SWAP1 REVERT JUMPDEST PUSH0 SLOAD DUP3 LT ISZERO PUSH2 0x38D JUMPI PUSH1 0x40 MLOAD PUSH32 0x8C379A000000000000000000000000000000000000000000000000000000000 DUP2 MSTORE PUSH1 0x4 ADD PUSH2 0x384 SWAP1 PUSH2 0x1C90 JUMP JUMPDEST PUSH1 0x40 MLOAD DUP1 SWAP2 SUB SWAP1 REVERT JUMPDEST PUSH1 0x2 PUSH0 SWAP1 SLOAD SWAP1 PUSH2 0x100 EXP SWAP1 DIV PUSH20 0xFFFFFFFFFFFFFFFFFFFFFFFFFFFFFFFFFFFFFFFF AND PUSH20 0xFFFFFFFFFFFFFFFFFFFFFFFFFFFFFFFFFFFFFFFF AND PUSH4 0x23B872DD CALLER ADDRESS DUP6 PUSH1 0x40 MLOAD DUP5 PUSH4 0xFFFFFFFF AND PUSH1 0xE0 SHL DUP2 MSTORE PUSH1 0x4 ADD PUSH2 0x3EB SWAP4 SWAP3 SWAP2 SWAP1 PUSH2 0x1CAE JUMP JUMPDEST PUSH1 0x20 PUSH1 0x40 MLOAD DUP1 DUP4 SUB DUP2 PUSH0 DUP8 GAS CALL ISZERO DUP1 ISZERO PUSH2 0x407 JUMPI RETURNDATASIZE PUSH0 DUP1 RETURNDATACOPY RETURNDATASIZE PUSH0 REVERT JUMPDEST POP POP POP POP PUSH1 0x40 MLOAD RETURNDATASIZE PUSH1 0x1F NOT PUSH1 0x1F DUP3 ADD AND DUP3 ADD DUP1 PUSH1 0x40 MSTORE POP DUP2 ADD SWAP1 PUSH2 0x42B SWAP2 SWAP1 PUSH2 0x1D0D JUMP JUMPDEST PUSH2 0x46A JUMPI PUSH1 0x40 MLOAD PUSH32 0x8C379A000000000000000000000000000000000000000000000000000000000 DUP2 MSTORE PUSH1 0x4 ADD PUSH2 0x461 SWAP1 PUSH2 0x1D82 JUMP JUMPDEST PUSH1 0x40 MLOAD DUP1 SWAP2 SUB SWAP1 REVERT JUMPDEST DUP2 DUP2 PUSH1 0x3 ADD PUSH0 DUP3 DUP3 SLOAD PUSH2 0x47D SWAP2 SWAP1 PUSH2 0x1DCD JUMP JUMPDEST SWAP3 POP POP DUP2 SWAP1 SSTORE POP PUSH1 0x40 MLOAD DUP1 PUSH1 0x40 ADD PUSH1 0x40 MSTORE DUP1 CALLER PUSH20 0xFFFFFFFFFFFFFFFFFFFFFFFFFFFFFFFFFFFFFFFF AND DUP2 MSTORE PUSH1 0x20 ADD DUP4 DUP2 MSTORE POP DUP2 PUSH1 0x5 ADD PUSH0 CALLER PUSH20 0xFFFFFFFFFFFFFFFFFFFFFFFFFFFFFFFFFFFFFFFF AND PUSH20 0xFFFFFFFFFFFFFFFFFFFFFFFFFFFFFFFFFFFFFFFF AND DUP2 MSTORE PUSH1 0x20 ADD SWAP1 DUP2 MSTORE PUSH1 0x20 ADD PUSH0 KECCAK256 PUSH0 DUP3 ADD MLOAD DUP2 PUSH0 ADD PUSH0 PUSH2 0x100 EXP DUP2 SLOAD DUP2 PUSH20 0xFFFFFFFFFFFFFFFFFFFFFFFFFFFFFFFFFFFFFFFF MUL NOT AND SWAP1 DUP4 PUSH20 0xFFFFFFFFFFFFFFFFFFFFFFFFFFFFFFFFFFFFFFFF AND MUL OR SWAP1 SSTORE POP PUSH1 0x20 DUP3 ADD MLOAD DUP2 PUSH1 0x1 ADD SSTORE SWAP1 POP POP DUP1 PUSH1 0x7 ADD CALLER SWAP1 DUP1 PUSH1 0x1 DUP2 SLOAD ADD DUP1 DUP3 SSTORE DUP1 SWAP2 POP POP PUSH1 0x1 SWAP1 SUB SWAP1 PUSH0 MSTORE PUSH1 0x20 PUSH0 KECCAK256 ADD PUSH0 SWAP1 SWAP2 SWAP1 SWAP2 SWAP1 SWAP2 PUSH2 0x100 EXP DUP2 SLOAD DUP2 PUSH20 0xFFFFFFFFFFFFFFFFFFFFFFFFFFFFFFFFFFFFFFFF MUL NOT AND SWAP1 DUP4 PUSH20 0xFFFFFFFFFFFFFFFFFFFFFFFFFFFFFFFFFFFFFFFF AND MUL OR SWAP1 SSTORE POP CALLER PUSH20 0xFFFFFFFFFFFFFFFFFFFFFFFFFFFFFFFFFFFFFFFF AND DUP5 DUP5 PUSH1 0x40 MLOAD PUSH2 0x5C8 SWAP3 SWAP2 SWAP1 PUSH2 0x175A JUMP JUMPDEST PUSH1 0x40 MLOAD DUP1 SWAP2 SUB SWAP1 KECCAK256 PUSH32 0x25D0B2E7D8A0DA3BB9AA3019CD218E49EA828B3201EC9ED950CE9709357B4EE4 DUP5 PUSH1 0x1 PUSH1 0x40 MLOAD PUSH2 0x602 SWAP3 SWAP2 SWAP1 PUSH2 0x1E39 JUMP JUMPDEST PUSH1 0x40 MLOAD DUP1 SWAP2 SUB SWAP1 LOG3 POP POP POP POP JUMP JUMPDEST PUSH0 DUP1 PUSH0 DUP1 PUSH0 DUP1 PUSH1 0x1 DUP9 DUP9 PUSH1 0x40 MLOAD PUSH2 0x628 SWAP3 SWAP2 SWAP1 PUSH2 0x175A JUMP JUMPDEST SWAP1 DUP2 MSTORE PUSH1 0x20 ADD PUSH1 0x40 MLOAD DUP1 SWAP2 SUB SWAP1 KECCAK256 SWAP1 POP DUP1 PUSH1 0x3 ADD SLOAD SWAP5 POP DUP1 PUSH1 0x4 ADD SLOAD SWAP4 POP DUP4 DUP6 PUSH2 0x652 SWAP2 SWAP1 PUSH2 0x1DCD JUMP JUMPDEST SWAP6 POP DUP1 PUSH1 0x9 ADD PUSH1 0x14 SWAP1 SLOAD SWAP1 PUSH2 0x100 EXP SWAP1 DIV PUSH1 0xFF AND SWAP3 POP DUP1 PUSH1 0x9 ADD PUSH1 0x15 SWAP1 SLOAD SWAP1 PUSH2 0x100 EXP SWAP1 DIV PUSH1 0xFF AND SWAP2 POP POP SWAP3 SWAP6 POP SWAP3 SWAP6 SWAP1 SWAP4 POP JUMP JUMPDEST DUP2 DUP2 DUP1 DUP1 PUSH1 0x1F ADD PUSH1 0x20 DUP1 SWAP2 DIV MUL PUSH1 0x20 ADD PUSH1 0x40 MLOAD SWAP1 DUP2 ADD PUSH1 0x40 MSTORE DUP1 SWAP4 SWAP3 SWAP2 SWAP1 DUP2 DUP2 MSTORE PUSH1 0x20 ADD DUP4 DUP4 DUP1 DUP3 DUP5 CALLDATACOPY PUSH0 DUP2 DUP5 ADD MSTORE PUSH1 0x1F NOT PUSH1 0x1F DUP3 ADD AND SWAP1 POP DUP1 DUP4 ADD SWAP3 POP POP POP POP POP POP POP PUSH1 0x1 DUP2 PUSH1 0x40 MLOAD PUSH2 0x6DB SWAP2 SWAP1 PUSH2 0x1EA8 JUMP JUMPDEST SWAP1 DUP2 MSTORE PUSH1 0x20 ADD PUSH1 0x40 MLOAD DUP1 SWAP2 SUB SWAP1 KECCAK256 PUSH1 0x9 ADD PUSH0 SWAP1 SLOAD SWAP1 PUSH2 0x100 EXP SWAP1 DIV PUSH20 0xFFFFFFFFFFFFFFFFFFFFFFFFFFFFFFFFFFFFFFFF AND PUSH20 0xFFFFFFFFFFFFFFFFFFFFFFFFFFFFFFFFFFFFFFFF AND CALLER PUSH20 0xFFFFFFFFFFFFFFFFFFFFFFFFFFFFFFFFFFFFFFFF AND EQ PUSH2 0x779 JUMPI PUSH1 0x40 MLOAD PUSH32 0x8C379A000000000000000000000000000000000000000000000000000000000 DUP2 MSTORE PUSH1 0x4 ADD PUSH2 0x770 SWAP1 PUSH2 0x1F08 JUMP JUMPDEST PUSH1 0x40 MLOAD DUP1 SWAP2 SUB SWAP1 REVERT JUMPDEST PUSH0 PUSH1 0x1 DUP5 DUP5 PUSH1 0x40 MLOAD PUSH2 0x78C SWAP3 SWAP2 SWAP1 PUSH2 0x175A JUMP JUMPDEST SWAP1 DUP2 MSTORE PUSH1 0x20 ADD PUSH1 0x40 MLOAD DUP1 SWAP2 SUB SWAP1 KECCAK256 SWAP1 POP PUSH0 DUP2 PUSH1 0x9 ADD PUSH1 0x14 PUSH2 0x100 EXP DUP2 SLOAD DUP2 PUSH1 0xFF MUL NOT AND SWAP1 DUP4 ISZERO ISZERO MUL OR SWAP1 SSTORE POP POP POP POP POP JUMP JUMPDEST DUP2 DUP2 DUP1 DUP1 PUSH1 0x1F ADD PUSH1 0x20 DUP1 SWAP2 DIV MUL PUSH1 0x20 ADD PUSH1 0x40 MLOAD SWAP1 DUP2 ADD PUSH1 0x40 MSTORE DUP1 SWAP4 SWAP3 SWAP2 SWAP1 DUP2 DUP2 MSTORE PUSH1 0x20 ADD DUP4 DUP4 DUP1 DUP3 DUP5 CALLDATACOPY PUSH0 DUP2 DUP5 ADD MSTORE PUSH1 0x1F NOT PUSH1 0x1F DUP3 ADD AND SWAP1 POP DUP1 DUP4 ADD SWAP3 POP POP POP POP POP POP POP PUSH1 0x1 DUP2 PUSH1 0x40 MLOAD PUSH2 0x812 SWAP2 SWAP1 PUSH2 0x1EA8 JUMP JUMPDEST SWAP1 DUP2 MSTORE PUSH1 0x20 ADD PUSH1 0x40 MLOAD DUP1 SWAP2 SUB SWAP1 KECCAK256 PUSH1 0x9 ADD PUSH0 SWAP1 SLOAD SWAP1 PUSH2 0x100 EXP SWAP1 DIV PUSH20 0xFFFFFFFFFFFFFFFFFFFFFFFFFFFFFFFFFFFFFFFF AND PUSH20 0xFFFFFFFFFFFFFFFFFFFFFFFFFFFFFFFFFFFFFFFF AND CALLER PUSH20 0xFFFFFFFFFFFFFFFFFFFFFFFFFFFFFFFFFFFFFFFF AND EQ PUSH2 0x8B0 JUMPI PUSH1 0x40 MLOAD PUSH32 0x8C379A000000000000000000000000000000000000000000000000000000000 DUP2 MSTORE PUSH1 0x4 ADD PUSH2 0x8A7 SWAP1 PUSH2 0x1F08 JUMP JUMPDEST PUSH1 0x40 MLOAD DUP1 SWAP2 SUB SWAP1 REVERT JUMPDEST PUSH0 PUSH1 0x1 DUP5 DUP5 PUSH1 0x40 MLOAD PUSH2 0x8C3 SWAP3 SWAP2 SWAP1 PUSH2 0x175A JUMP JUMPDEST SWAP1 DUP2 MSTORE PUSH1 0x20 ADD PUSH1 0x40 MLOAD DUP1 SWAP2 SUB SWAP1 KECCAK256 SWAP1 POP PUSH1 0x1 DUP2 PUSH1 0x9 ADD PUSH1 0x14 PUSH2 0x100 EXP DUP2 SLOAD DUP2 PUSH1 0xFF MUL NOT AND SWAP1 DUP4 ISZERO ISZERO MUL OR SWAP1 SSTORE POP DUP4 DUP4 PUSH1 0x40 MLOAD PUSH2 0x900 SWAP3 SWAP2 SWAP1 PUSH2 0x175A JUMP JUMPDEST PUSH1 0x40 MLOAD DUP1 SWAP2 SUB SWAP1 KECCAK256 PUSH32 0x7B02CF1900235AACAF412760F88AE7E04C207BC4A1CAE3D6A08B65D3542EFAB0 PUSH1 0x40 MLOAD PUSH1 0x40 MLOAD DUP1 SWAP2 SUB SWAP1 LOG2 POP POP POP POP JUMP JUMPDEST DUP3 DUP3 DUP1 DUP1 PUSH1 0x1F ADD PUSH1 0x20 DUP1 SWAP2 DIV MUL PUSH1 0x20 ADD PUSH1 0x40 MLOAD SWAP1 DUP2 ADD PUSH1 0x40 MSTORE DUP1 SWAP4 SWAP3 SWAP2 SWAP1 DUP2 DUP2 MSTORE PUSH1 0x20 ADD DUP4 DUP4 DUP1 DUP3 DUP5 CALLDATACOPY PUSH0 DUP2 DUP5 ADD MSTORE PUSH1 0x1F NOT PUSH1 0x1F DUP3 ADD AND SWAP1 POP DUP1 DUP4 ADD SWAP3 POP POP POP POP POP POP POP PUSH1 0x1 DUP2 PUSH1 0x40 MLOAD PUSH2 0x98E SWAP2 SWAP1 PUSH2 0x1EA8 JUMP JUMPDEST SWAP1 DUP2 MSTORE PUSH1 0x20 ADD PUSH1 0x40 MLOAD DUP1 SWAP2 SUB SWAP1 KECCAK256 PUSH1 0x9 ADD PUSH0 SWAP1 SLOAD SWAP1 PUSH2 0x100 EXP SWAP1 DIV PUSH20 0xFFFFFFFFFFFFFFFFFFFFFFFFFFFFFFFFFFFFFFFF AND PUSH20 0xFFFFFFFFFFFFFFFFFFFFFFFFFFFFFFFFFFFFFFFF AND CALLER PUSH20 0xFFFFFFFFFFFFFFFFFFFFFFFFFFFFFFFFFFFFFFFF AND EQ PUSH2 0xA2C JUMPI PUSH1 0x40 MLOAD PUSH32 0x8C379A000000000000000000000000000000000000000000000000000000000 DUP2 MSTORE PUSH1 0x4 ADD PUSH2 0xA23 SWAP1 PUSH2 0x1F08 JUMP JUMPDEST PUSH1 0x40 MLOAD DUP1 SWAP2 SUB SWAP1 REVERT JUMPDEST PUSH1 0x1 DUP3 PUSH1 0xFF AND EQ DUP1 PUSH2 0xA41 JUMPI POP PUSH1 0x2 DUP3 PUSH1 0xFF AND EQ JUMPDEST PUSH2 0xA80 JUMPI PUSH1 0x40 MLOAD PUSH32 0x8C379A000000000000000000000000000000000000000000000000000000000 DUP2 MSTORE PUSH1 0x4 ADD PUSH2 0xA77 SWAP1 PUSH2 0x1F70 JUMP JUMPDEST PUSH1 0x40 MLOAD DUP1 SWAP2 SUB SWAP1 REVERT JUMPDEST PUSH0 PUSH1 0x1 DUP6 DUP6 PUSH1 0x40 MLOAD PUSH2 0xA93 SWAP3 SWAP2 SWAP1 PUSH2 0x175A JUMP JUMPDEST SWAP1 DUP2 MSTORE PUSH1 0x20 ADD PUSH1 0x40 MLOAD DUP1 SWAP2 SUB SWAP1 KECCAK256 SWAP1 POP DUP1 PUSH1 0x9 ADD PUSH1 0x14 SWAP1 SLOAD SWAP1 PUSH2 0x100 EXP SWAP1 DIV PUSH1 0xFF AND DUP1 ISZERO PUSH2 0xAD0 JUMPI POP DUP1 PUSH1 0x9 ADD PUSH1 0x15 SWAP1 SLOAD SWAP1 PUSH2 0x100 EXP SWAP1 DIV PUSH1 0xFF AND ISZERO JUMPDEST PUSH2 0xB0F JUMPI PUSH1 0x40 MLOAD PUSH32 0x8C379A000000000000000000000000000000000000000000000000000000000 DUP2 MSTORE PUSH1 0x4 ADD PUSH2 0xB06 SWAP1 PUSH2 0x1FFE JUMP JUMPDEST PUSH1 0x40 MLOAD DUP1 SWAP2 SUB SWAP1 REVERT JUMPDEST PUSH0 DUP2 PUSH1 0x4 ADD SLOAD DUP3 PUSH1 0x3 ADD SLOAD PUSH2 0xB24 SWAP2 SWAP1 PUSH2 0x1DCD JUMP JUMPDEST SWAP1 POP PUSH0 PUSH1 0x1 DUP6 PUSH1 0xFF AND SUB PUSH2 0xB84 JUMPI PUSH0 DUP4 PUSH1 0x3 ADD SLOAD GT PUSH2 0xB78 JUMPI PUSH1 0x40 MLOAD PUSH32 0x8C379A000000000000000000000000000000000000000000000000000000000 DUP2 MSTORE PUSH1 0x4 ADD PUSH2 0xB6F SWAP1 PUSH2 0x2066 JUMP JUMPDEST PUSH1 0x40 MLOAD DUP1 SWAP2 SUB SWAP1 REVERT JUMPDEST DUP3 PUSH1 0x3 ADD SLOAD SWAP1 POP PUSH2 0xBD2 JUMP JUMPDEST PUSH0 DUP4 PUSH1 0x4 ADD SLOAD GT PUSH2 0xBCA JUMPI PUSH1 0x40 MLOAD PUSH32 0x8C379A000000000000000000000000000000000000000000000000000000000 DUP2 MSTORE PUSH1 0x4 ADD PUSH2 0xBC1 SWAP1 PUSH2 0x20CE JUMP JUMPDEST PUSH1 0x40 MLOAD DUP1 SWAP2 SUB SWAP1 REVERT JUMPDEST DUP3 PUSH1 0x4 ADD SLOAD SWAP1 POP JUMPDEST PUSH0 PUSH1 0x64 DUP4 PUSH2 0xBE0 SWAP2 SWAP1 PUSH2 0x2119 JUMP JUMPDEST SWAP1 POP PUSH0 DUP2 SWAP1 POP PUSH0 DUP2 DUP4 DUP7 PUSH2 0xBF4 SWAP2 SWAP1 PUSH2 0x2149 JUMP JUMPDEST PUSH2 0xBFE SWAP2 SWAP1 PUSH2 0x2149 JUMP JUMPDEST SWAP1 POP PUSH1 0x2 PUSH0 SWAP1 SLOAD SWAP1 PUSH2 0x100 EXP SWAP1 DIV PUSH20 0xFFFFFFFFFFFFFFFFFFFFFFFFFFFFFFFFFFFFFFFF AND PUSH20 0xFFFFFFFFFFFFFFFFFFFFFFFFFFFFFFFFFFFFFFFF AND PUSH4 0xA9059CBB PUSH20 0xD7BF67D127EA9C7F58122E965F2F7AE8F1B5032E DUP6 PUSH1 0x40 MLOAD DUP4 PUSH4 0xFFFFFFFF AND PUSH1 0xE0 SHL DUP2 MSTORE PUSH1 0x4 ADD PUSH2 0xC70 SWAP3 SWAP2 SWAP1 PUSH2 0x217C JUMP JUMPDEST PUSH1 0x20 PUSH1 0x40 MLOAD DUP1 DUP4 SUB DUP2 PUSH0 DUP8 GAS CALL ISZERO DUP1 ISZERO PUSH2 0xC8C JUMPI RETURNDATASIZE PUSH0 DUP1 RETURNDATACOPY RETURNDATASIZE PUSH0 REVERT JUMPDEST POP POP POP POP PUSH1 0x40 MLOAD RETURNDATASIZE PUSH1 0x1F NOT PUSH1 0x1F DUP3 ADD AND DUP3 ADD DUP1 PUSH1 0x40 MSTORE POP DUP2 ADD SWAP1 PUSH2 0xCB0 SWAP2 SWAP1 PUSH2 0x1D0D JUMP JUMPDEST PUSH2 0xCEF JUMPI PUSH1 0x40 MLOAD PUSH32 0x8C379A000000000000000000000000000000000000000000000000000000000 DUP2 MSTORE PUSH1 0x4 ADD PUSH2 0xCE6 SWAP1 PUSH2 0x21ED JUMP JUMPDEST PUSH1 0x40 MLOAD DUP1 SWAP2 SUB SWAP1 REVERT JUMPDEST PUSH1 0x2 PUSH0 SWAP1 SLOAD SWAP1 PUSH2 0x100 EXP SWAP1 DIV PUSH20 0xFFFFFFFFFFFFFFFFFFFFFFFFFFFFFFFFFFFFFFFF AND PUSH20 0xFFFFFFFFFFFFFFFFFFFFFFFFFFFFFFFFFFFFFFFF AND PUSH4 0xA9059CBB DUP8 PUSH1 0x9 ADD PUSH0 SWAP1 SLOAD SWAP1 PUSH2 0x100 EXP SWAP1 DIV PUSH20 0xFFFFFFFFFFFFFFFFFFFFFFFFFFFFFFFFFFFFFFFF AND DUP5 PUSH1 0x40 MLOAD DUP4 PUSH4 0xFFFFFFFF AND PUSH1 0xE0 SHL DUP2 MSTORE PUSH1 0x4 ADD PUSH2 0xD6E SWAP3 SWAP2 SWAP1 PUSH2 0x217C JUMP JUMPDEST PUSH1 0x20 PUSH1 0x40 MLOAD DUP1 DUP4 SUB DUP2 PUSH0 DUP8 GAS CALL ISZERO DUP1 ISZERO PUSH2 0xD8A JUMPI RETURNDATASIZE PUSH0 DUP1 RETURNDATACOPY RETURNDATASIZE PUSH0 REVERT JUMPDEST POP POP POP POP PUSH1 0x40 MLOAD RETURNDATASIZE PUSH1 0x1F NOT PUSH1 0x1F DUP3 ADD AND DUP3 ADD DUP1 PUSH1 0x40 MSTORE POP DUP2 ADD SWAP1 PUSH2 0xDAE SWAP2 SWAP1 PUSH2 0x1D0D JUMP JUMPDEST PUSH2 0xDED JUMPI PUSH1 0x40 MLOAD PUSH32 0x8C379A000000000000000000000000000000000000000000000000000000000 DUP2 MSTORE PUSH1 0x4 ADD PUSH2 0xDE4 SWAP1 PUSH2 0x2255 JUMP JUMPDEST PUSH1 0x40 MLOAD DUP1 SWAP2 SUB SWAP1 REVERT JUMPDEST PUSH0 PUSH1 0x1 DUP10 PUSH1 0xFF AND EQ PUSH2 0xE02 JUMPI DUP7 PUSH1 0x8 ADD PUSH2 0xE07 JUMP JUMPDEST DUP7 PUSH1 0x7 ADD JUMPDEST DUP1 SLOAD DUP1 PUSH1 0x20 MUL PUSH1 0x20 ADD PUSH1 0x40 MLOAD SWAP1 DUP2 ADD PUSH1 0x40 MSTORE DUP1 SWAP3 SWAP2 SWAP1 DUP2 DUP2 MSTORE PUSH1 0x20 ADD DUP3 DUP1 SLOAD DUP1 ISZERO PUSH2 0xE84 JUMPI PUSH1 0x20 MUL DUP3 ADD SWAP2 SWAP1 PUSH0 MSTORE PUSH1 0x20 PUSH0 KECCAK256 SWAP1 JUMPDEST DUP2 PUSH0 SWAP1 SLOAD SWAP1 PUSH2 0x100 EXP SWAP1 DIV PUSH20 0xFFFFFFFFFFFFFFFFFFFFFFFFFFFFFFFFFFFFFFFF AND PUSH20 0xFFFFFFFFFFFFFFFFFFFFFFFFFFFFFFFFFFFFFFFF AND DUP2 MSTORE PUSH1 0x20 ADD SWAP1 PUSH1 0x1 ADD SWAP1 DUP1 DUP4 GT PUSH2 0xE3B JUMPI JUMPDEST POP POP POP POP POP SWAP1 POP PUSH0 JUMPDEST DUP2 MLOAD DUP2 LT ISZERO PUSH2 0x1053 JUMPI PUSH0 DUP3 DUP3 DUP2 MLOAD DUP2 LT PUSH2 0xEAA JUMPI PUSH2 0xEA9 PUSH2 0x2273 JUMP JUMPDEST JUMPDEST PUSH1 0x20 MUL PUSH1 0x20 ADD ADD MLOAD SWAP1 POP PUSH0 PUSH1 0x1 DUP13 PUSH1 0xFF AND EQ PUSH2 0xF08 JUMPI DUP10 PUSH1 0x6 ADD PUSH0 DUP4 PUSH20 0xFFFFFFFFFFFFFFFFFFFFFFFFFFFFFFFFFFFFFFFF AND PUSH20 0xFFFFFFFFFFFFFFFFFFFFFFFFFFFFFFFFFFFFFFFF AND DUP2 MSTORE PUSH1 0x20 ADD SWAP1 DUP2 MSTORE PUSH1 0x20 ADD PUSH0 KECCAK256 PUSH1 0x1 ADD SLOAD PUSH2 0xF4C JUMP JUMPDEST DUP10 PUSH1 0x5 ADD PUSH0 DUP4 PUSH20 0xFFFFFFFFFFFFFFFFFFFFFFFFFFFFFFFFFFFFFFFF AND PUSH20 0xFFFFFFFFFFFFFFFFFFFFFFFFFFFFFFFFFFFFFFFF AND DUP2 MSTORE PUSH1 0x20 ADD SWAP1 DUP2 MSTORE PUSH1 0x20 ADD PUSH0 KECCAK256 PUSH1 0x1 ADD SLOAD JUMPDEST SWAP1 POP PUSH0 DUP9 DUP7 DUP4 PUSH2 0xF5C SWAP2 SWAP1 PUSH2 0x22A0 JUMP JUMPDEST PUSH2 0xF66 SWAP2 SWAP1 PUSH2 0x2119 JUMP JUMPDEST SWAP1 POP PUSH1 0x2 PUSH0 SWAP1 SLOAD SWAP1 PUSH2 0x100 EXP SWAP1 DIV PUSH20 0xFFFFFFFFFFFFFFFFFFFFFFFFFFFFFFFFFFFFFFFF AND PUSH20 0xFFFFFFFFFFFFFFFFFFFFFFFFFFFFFFFFFFFFFFFF AND PUSH4 0xA9059CBB DUP5 DUP4 PUSH1 0x40 MLOAD DUP4 PUSH4 0xFFFFFFFF AND PUSH1 0xE0 SHL DUP2 MSTORE PUSH1 0x4 ADD PUSH2 0xFC4 SWAP3 SWAP2 SWAP1 PUSH2 0x217C JUMP JUMPDEST PUSH1 0x20 PUSH1 0x40 MLOAD DUP1 DUP4 SUB DUP2 PUSH0 DUP8 GAS CALL ISZERO DUP1 ISZERO PUSH2 0xFE0 JUMPI RETURNDATASIZE PUSH0 DUP1 RETURNDATACOPY RETURNDATASIZE PUSH0 REVERT JUMPDEST POP POP POP POP PUSH1 0x40 MLOAD RETURNDATASIZE PUSH1 0x1F NOT PUSH1 0x1F DUP3 ADD AND DUP3 ADD DUP1 PUSH1 0x40 MSTORE POP DUP2 ADD SWAP1 PUSH2 0x1004 SWAP2 SWAP1 PUSH2 0x1D0D JUMP JUMPDEST PUSH2 0x1043 JUMPI PUSH1 0x40 MLOAD PUSH32 0x8C379A000000000000000000000000000000000000000000000000000000000 DUP2 MSTORE PUSH1 0x4 ADD PUSH2 0x103A SWAP1 PUSH2 0x232B JUMP JUMPDEST PUSH1 0x40 MLOAD DUP1 SWAP2 SUB SWAP1 REVERT JUMPDEST POP POP POP DUP1 DUP1 PUSH1 0x1 ADD SWAP2 POP POP PUSH2 0xE8D JUMP JUMPDEST POP PUSH1 0x1 DUP8 PUSH1 0x9 ADD PUSH1 0x15 PUSH2 0x100 EXP DUP2 SLOAD DUP2 PUSH1 0xFF MUL NOT AND SWAP1 DUP4 ISZERO ISZERO MUL OR SWAP1 SSTORE POP DUP11 DUP11 PUSH1 0x40 MLOAD PUSH2 0x1081 SWAP3 SWAP2 SWAP1 PUSH2 0x175A JUMP JUMPDEST PUSH1 0x40 MLOAD DUP1 SWAP2 SUB SWAP1 KECCAK256 PUSH32 0x5E80DC66AE7F04A06755BFCD4AA1E9A2C7BB4BDDBDE5169B27869190EBF95002 DUP11 PUSH1 0x40 MLOAD PUSH2 0x10B8 SWAP2 SWAP1 PUSH2 0x2358 JUMP JUMPDEST PUSH1 0x40 MLOAD DUP1 SWAP2 SUB SWAP1 LOG2 POP POP POP POP POP POP POP POP POP POP POP JUMP JUMPDEST PUSH0 PUSH1 0x1 DUP5 DUP5 PUSH1 0x40 MLOAD PUSH2 0x10E0 SWAP3 SWAP2 SWAP1 PUSH2 0x175A JUMP JUMPDEST SWAP1 DUP2 MSTORE PUSH1 0x20 ADD PUSH1 0x40 MLOAD DUP1 SWAP2 SUB SWAP1 KECCAK256 SWAP1 POP DUP1 PUSH1 0x9 ADD PUSH1 0x14 SWAP1 SLOAD SWAP1 PUSH2 0x100 EXP SWAP1 DIV PUSH1 0xFF AND ISZERO PUSH2 0x1142 JUMPI PUSH1 0x40 MLOAD PUSH32 0x8C379A000000000000000000000000000000000000000000000000000000000 DUP2 MSTORE PUSH1 0x4 ADD PUSH2 0x1139 SWAP1 PUSH2 0x1C28 JUMP JUMPDEST PUSH1 0x40 MLOAD DUP1 SWAP2 SUB SWAP1 REVERT JUMPDEST PUSH0 SLOAD DUP3 LT ISZERO PUSH2 0x1186 JUMPI PUSH1 0x40 MLOAD PUSH32 0x8C379A000000000000000000000000000000000000000000000000000000000 DUP2 MSTORE PUSH1 0x4 ADD PUSH2 0x117D SWAP1 PUSH2 0x1C90 JUMP JUMPDEST PUSH1 0x40 MLOAD DUP1 SWAP2 SUB SWAP1 REVERT JUMPDEST PUSH1 0x2 PUSH0 SWAP1 SLOAD SWAP1 PUSH2 0x100 EXP SWAP1 DIV PUSH20 0xFFFFFFFFFFFFFFFFFFFFFFFFFFFFFFFFFFFFFFFF AND PUSH20 0xFFFFFFFFFFFFFFFFFFFFFFFFFFFFFFFFFFFFFFFF AND PUSH4 0x23B872DD CALLER ADDRESS DUP6 PUSH1 0x40 MLOAD DUP5 PUSH4 0xFFFFFFFF AND PUSH1 0xE0 SHL DUP2 MSTORE PUSH1 0x4 ADD PUSH2 0x11E4 SWAP4 SWAP3 SWAP2 SWAP1 PUSH2 0x1CAE JUMP JUMPDEST PUSH1 0x20 PUSH1 0x40 MLOAD DUP1 DUP4 SUB DUP2 PUSH0 DUP8 GAS CALL ISZERO DUP1 ISZERO PUSH2 0x1200 JUMPI RETURNDATASIZE PUSH0 DUP1 RETURNDATACOPY RETURNDATASIZE PUSH0 REVERT JUMPDEST POP POP POP POP PUSH1 0x40 MLOAD RETURNDATASIZE PUSH1 0x1F NOT PUSH1 0x1F DUP3 ADD AND DUP3 ADD DUP1 PUSH1 0x40 MSTORE POP DUP2 ADD SWAP1 PUSH2 0x1224 SWAP2 SWAP1 PUSH2 0x1D0D JUMP JUMPDEST PUSH2 0x1263 JUMPI PUSH1 0x40 MLOAD PUSH32 0x8C379A000000000000000000000000000000000000000000000000000000000 DUP2 MSTORE PUSH1 0x4 ADD PUSH2 0x125A SWAP1 PUSH2 0x1D82 JUMP JUMPDEST PUSH1 0x40 MLOAD DUP1 SWAP2 SUB SWAP1 REVERT JUMPDEST DUP2 DUP2 PUSH1 0x4 ADD PUSH0 DUP3 DUP3 SLOAD PUSH2 0x1276 SWAP2 SWAP1 PUSH2 0x1DCD JUMP JUMPDEST SWAP3 POP POP DUP2 SWAP1 SSTORE POP PUSH1 0x40 MLOAD DUP1 PUSH1 0x40 ADD PUSH1 0x40 MSTORE DUP1 CALLER PUSH20 0xFFFFFFFFFFFFFFFFFFFFFFFFFFFFFFFFFFFFFFFF AND DUP2 MSTORE PUSH1 0x20 ADD DUP4 DUP2 MSTORE POP DUP2 PUSH1 0x6 ADD PUSH0 CALLER PUSH20 0xFFFFFFFFFFFFFFFFFFFFFFFFFFFFFFFFFFFFFFFF AND PUSH20 0xFFFFFFFFFFFFFFFFFFFFFFFFFFFFFFFFFFFFFFFF AND DUP2 MSTORE PUSH1 0x20 ADD SWAP1 DUP2 MSTORE PUSH1 0x20 ADD PUSH0 KECCAK256 PUSH0 DUP3 ADD MLOAD DUP2 PUSH0 ADD PUSH0 PUSH2 0x100 EXP DUP2 SLOAD DUP2 PUSH20 0xFFFFFFFFFFFFFFFFFFFFFFFFFFFFFFFFFFFFFFFF MUL NOT AND SWAP1 DUP4 PUSH20 0xFFFFFFFFFFFFFFFFFFFFFFFFFFFFFFFFFFFFFFFF AND MUL OR SWAP1 SSTORE POP PUSH1 0x20 DUP3 ADD MLOAD DUP2 PUSH1 0x1 ADD SSTORE SWAP1 POP POP DUP1 PUSH1 0x8 ADD CALLER SWAP1 DUP1 PUSH1 0x1 DUP2 SLOAD ADD DUP1 DUP3 SSTORE DUP1 SWAP2 POP POP PUSH1 0x1 SWAP1 SUB SWAP1 PUSH0 MSTORE PUSH1 0x20 PUSH0 KECCAK256 ADD PUSH0 SWAP1 SWAP2 SWAP1 SWAP2 SWAP1 SWAP2 PUSH2 0x100 EXP DUP2 SLOAD DUP2 PUSH20 0xFFFFFFFFFFFFFFFFFFFFFFFFFFFFFFFFFFFFFFFF MUL NOT AND SWAP1 DUP4 PUSH20 0xFFFFFFFFFFFFFFFFFFFFFFFFFFFFFFFFFFFFFFFF AND MUL OR SWAP1 SSTORE POP CALLER PUSH20 0xFFFFFFFFFFFFFFFFFFFFFFFFFFFFFFFFFFFFFFFF AND DUP5 DUP5 PUSH1 0x40 MLOAD PUSH2 0x13C1 SWAP3 SWAP2 SWAP1 PUSH2 0x175A JUMP JUMPDEST PUSH1 0x40 MLOAD DUP1 SWAP2 SUB SWAP1 KECCAK256 PUSH32 0x25D0B2E7D8A0DA3BB9AA3019CD218E49EA828B3201EC9ED950CE9709357B4EE4 DUP5 PUSH1 0x2 PUSH1 0x40 MLOAD PUSH2 0x13FB SWAP3 SWAP2 SWAP1 PUSH2 0x23AA JUMP JUMPDEST PUSH1 0x40 MLOAD DUP1 SWAP2 SUB SWAP1 LOG3 POP POP POP POP JUMP JUMPDEST PUSH0 DUP1 REVERT JUMPDEST PUSH0 DUP1 REVERT JUMPDEST PUSH0 DUP1 REVERT JUMPDEST PUSH0 DUP1 REVERT JUMPDEST PUSH0 DUP1 REVERT JUMPDEST PUSH0 DUP1 DUP4 PUSH1 0x1F DUP5 ADD SLT PUSH2 0x1432 JUMPI PUSH2 0x1431 PUSH2 0x1411 JUMP JUMPDEST JUMPDEST DUP3 CALLDATALOAD SWAP1 POP PUSH8 0xFFFFFFFFFFFFFFFF DUP2 GT ISZERO PUSH2 0x144F JUMPI PUSH2 0x144E PUSH2 0x1415 JUMP JUMPDEST JUMPDEST PUSH1 0x20 DUP4 ADD SWAP2 POP DUP4 PUSH1 0x1 DUP3 MUL DUP4 ADD GT ISZERO PUSH2 0x146B JUMPI PUSH2 0x146A PUSH2 0x1419 JUMP JUMPDEST JUMPDEST SWAP3 POP SWAP3 SWAP1 POP JUMP JUMPDEST PUSH0 DUP2 SWAP1 POP SWAP2 SWAP1 POP JUMP JUMPDEST PUSH2 0x1484 DUP2 PUSH2 0x1472 JUMP JUMPDEST DUP2 EQ PUSH2 0x148E JUMPI PUSH0 DUP1 REVERT JUMPDEST POP JUMP JUMPDEST PUSH0 DUP2 CALLDATALOAD SWAP1 POP PUSH2 0x149F DUP2 PUSH2 0x147B JUMP JUMPDEST SWAP3 SWAP2 POP POP JUMP JUMPDEST PUSH0 DUP1 PUSH0 DUP1 PUSH0 DUP1 PUSH0 PUSH1 0x80 DUP9 DUP11 SUB SLT ISZERO PUSH2 0x14C0 JUMPI PUSH2 0x14BF PUSH2 0x1409 JUMP JUMPDEST JUMPDEST PUSH0 DUP9 ADD CALLDATALOAD PUSH8 0xFFFFFFFFFFFFFFFF DUP2 GT ISZERO PUSH2 0x14DD JUMPI PUSH2 0x14DC PUSH2 0x140D JUMP JUMPDEST JUMPDEST PUSH2 0x14E9 DUP11 DUP3 DUP12 ADD PUSH2 0x141D JUMP JUMPDEST SWAP8 POP SWAP8 POP POP PUSH1 0x20 DUP9 ADD CALLDATALOAD PUSH8 0xFFFFFFFFFFFFFFFF DUP2 GT ISZERO PUSH2 0x150C JUMPI PUSH2 0x150B PUSH2 0x140D JUMP JUMPDEST JUMPDEST PUSH2 0x1518 DUP11 DUP3 DUP12 ADD PUSH2 0x141D JUMP JUMPDEST SWAP6 POP SWAP6 POP POP PUSH1 0x40 DUP9 ADD CALLDATALOAD PUSH8 0xFFFFFFFFFFFFFFFF DUP2 GT ISZERO PUSH2 0x153B JUMPI PUSH2 0x153A PUSH2 0x140D JUMP JUMPDEST JUMPDEST PUSH2 0x1547 DUP11 DUP3 DUP12 ADD PUSH2 0x141D JUMP JUMPDEST SWAP4 POP SWAP4 POP POP PUSH1 0x60 PUSH2 0x155A DUP11 DUP3 DUP12 ADD PUSH2 0x1491 JUMP JUMPDEST SWAP2 POP POP SWAP3 SWAP6 SWAP9 SWAP2 SWAP5 SWAP8 POP SWAP3 SWAP6 POP JUMP JUMPDEST PUSH0 DUP1 PUSH0 PUSH1 0x40 DUP5 DUP7 SUB SLT ISZERO PUSH2 0x1580 JUMPI PUSH2 0x157F PUSH2 0x1409 JUMP JUMPDEST JUMPDEST PUSH0 DUP5 ADD CALLDATALOAD PUSH8 0xFFFFFFFFFFFFFFFF DUP2 GT ISZERO PUSH2 0x159D JUMPI PUSH2 0x159C PUSH2 0x140D JUMP JUMPDEST JUMPDEST PUSH2 0x15A9 DUP7 DUP3 DUP8 ADD PUSH2 0x141D JUMP JUMPDEST SWAP4 POP SWAP4 POP POP PUSH1 0x20 PUSH2 0x15BC DUP7 DUP3 DUP8 ADD PUSH2 0x1491 JUMP JUMPDEST SWAP2 POP POP SWAP3 POP SWAP3 POP SWAP3 JUMP JUMPDEST PUSH0 DUP1 PUSH1 0x20 DUP4 DUP6 SUB SLT ISZERO PUSH2 0x15DC JUMPI PUSH2 0x15DB PUSH2 0x1409 JUMP JUMPDEST JUMPDEST PUSH0 DUP4 ADD CALLDATALOAD PUSH8 0xFFFFFFFFFFFFFFFF DUP2 GT ISZERO PUSH2 0x15F9 JUMPI PUSH2 0x15F8 PUSH2 0x140D JUMP JUMPDEST JUMPDEST PUSH2 0x1605 DUP6 DUP3 DUP7 ADD PUSH2 0x141D JUMP JUMPDEST SWAP3 POP SWAP3 POP POP SWAP3 POP SWAP3 SWAP1 POP JUMP JUMPDEST PUSH2 0x161A DUP2 PUSH2 0x1472 JUMP JUMPDEST DUP3 MSTORE POP POP JUMP JUMPDEST PUSH0 DUP2 ISZERO ISZERO SWAP1 POP SWAP2 SWAP1 POP JUMP JUMPDEST PUSH2 0x1634 DUP2 PUSH2 0x1620 JUMP JUMPDEST DUP3 MSTORE POP POP JUMP JUMPDEST PUSH0 PUSH1 0xA0 DUP3 ADD SWAP1 POP PUSH2 0x164D PUSH0 DUP4 ADD DUP9 PUSH2 0x1611 JUMP JUMPDEST PUSH2 0x165A PUSH1 0x20 DUP4 ADD DUP8 PUSH2 0x1611 JUMP JUMPDEST PUSH2 0x1667 PUSH1 0x40 DUP4 ADD DUP7 PUSH2 0x1611 JUMP JUMPDEST PUSH2 0x1674 PUSH1 0x60 DUP4 ADD DUP6 PUSH2 0x162B JUMP JUMPDEST PUSH2 0x1681 PUSH1 0x80 DUP4 ADD DUP5 PUSH2 0x162B JUMP JUMPDEST SWAP7 SWAP6 POP POP POP POP POP POP JUMP JUMPDEST PUSH0 PUSH1 0xFF DUP3 AND SWAP1 POP SWAP2 SWAP1 POP JUMP JUMPDEST PUSH2 0x16A0 DUP2 PUSH2 0x168B JUMP JUMPDEST DUP2 EQ PUSH2 0x16AA JUMPI PUSH0 DUP1 REVERT JUMPDEST POP JUMP JUMPDEST PUSH0 DUP2 CALLDATALOAD SWAP1 POP PUSH2 0x16BB DUP2 PUSH2 0x1697 JUMP JUMPDEST SWAP3 SWAP2 POP POP JUMP JUMPDEST PUSH0 DUP1 PUSH0 PUSH1 0x40 DUP5 DUP7 SUB SLT ISZERO PUSH2 0x16D8 JUMPI PUSH2 0x16D7 PUSH2 0x1409 JUMP JUMPDEST JUMPDEST PUSH0 DUP5 ADD CALLDATALOAD PUSH8 0xFFFFFFFFFFFFFFFF DUP2 GT ISZERO PUSH2 0x16F5 JUMPI PUSH2 0x16F4 PUSH2 0x140D JUMP JUMPDEST JUMPDEST PUSH2 0x1701 DUP7 DUP3 DUP8 ADD PUSH2 0x141D JUMP JUMPDEST SWAP4 POP SWAP4 POP POP PUSH1 0x20 PUSH2 0x1714 DUP7 DUP3 DUP8 ADD PUSH2 0x16AD JUMP JUMPDEST SWAP2 POP POP SWAP3 POP SWAP3 POP SWAP3 JUMP JUMPDEST PUSH0 DUP2 SWAP1 POP SWAP3 SWAP2 POP POP JUMP JUMPDEST DUP3 DUP2 DUP4 CALLDATACOPY PUSH0 DUP4 DUP4 ADD MSTORE POP POP POP JUMP JUMPDEST PUSH0 PUSH2 0x1741 DUP4 DUP6 PUSH2 0x171E JUMP JUMPDEST SWAP4 POP PUSH2 0x174E DUP4 DUP6 DUP5 PUSH2 0x1728 JUMP JUMPDEST DUP3 DUP5 ADD SWAP1 POP SWAP4 SWAP3 POP POP POP JUMP JUMPDEST PUSH0 PUSH2 0x1766 DUP3 DUP5 DUP7 PUSH2 0x1736 JUMP JUMPDEST SWAP2 POP DUP2 SWAP1 POP SWAP4 SWAP3 POP POP POP JUMP JUMPDEST PUSH32 0x4E487B7100000000000000000000000000000000000000000000000000000000 PUSH0 MSTORE PUSH1 0x22 PUSH1 0x4 MSTORE PUSH1 0x24 PUSH0 REVERT JUMPDEST PUSH0 PUSH1 0x2 DUP3 DIV SWAP1 POP PUSH1 0x1 DUP3 AND DUP1 PUSH2 0x17B6 JUMPI PUSH1 0x7F DUP3 AND SWAP2 POP JUMPDEST PUSH1 0x20 DUP3 LT DUP2 SUB PUSH2 0x17C9 JUMPI PUSH2 0x17C8 PUSH2 0x1772 JUMP JUMPDEST JUMPDEST POP SWAP2 SWAP1 POP JUMP JUMPDEST PUSH0 DUP3 DUP3 MSTORE PUSH1 0x20 DUP3 ADD SWAP1 POP SWAP3 SWAP2 POP POP JUMP JUMPDEST PUSH32 0x42657420696E7374616E63652077697468207468697320494420616C72656164 PUSH0 DUP3 ADD MSTORE PUSH32 0x7920657869737473000000000000000000000000000000000000000000000000 PUSH1 0x20 DUP3 ADD MSTORE POP JUMP JUMPDEST PUSH0 PUSH2 0x1839 PUSH1 0x28 DUP4 PUSH2 0x17CF JUMP JUMPDEST SWAP2 POP PUSH2 0x1844 DUP3 PUSH2 0x17DF JUMP JUMPDEST PUSH1 0x40 DUP3 ADD SWAP1 POP SWAP2 SWAP1 POP JUMP JUMPDEST PUSH0 PUSH1 0x20 DUP3 ADD SWAP1 POP DUP2 DUP2 SUB PUSH0 DUP4 ADD MSTORE PUSH2 0x1866 DUP2 PUSH2 0x182D JUMP JUMPDEST SWAP1 POP SWAP2 SWAP1 POP JUMP JUMPDEST PUSH0 DUP3 SWAP1 POP SWAP3 SWAP2 POP POP JUMP JUMPDEST PUSH32 0x4E487B7100000000000000000000000000000000000000000000000000000000 PUSH0 MSTORE PUSH1 0x41 PUSH1 0x4 MSTORE PUSH1 0x24 PUSH0 REVERT JUMPDEST PUSH0 DUP2 SWAP1 POP DUP2 PUSH0 MSTORE PUSH1 0x20 PUSH0 KECCAK256 SWAP1 POP SWAP2 SWAP1 POP JUMP JUMPDEST PUSH0 PUSH1 0x20 PUSH1 0x1F DUP4 ADD DIV SWAP1 POP SWAP2 SWAP1 POP JUMP JUMPDEST PUSH0 DUP3 DUP3 SHL SWAP1 POP SWAP3 SWAP2 POP POP JUMP JUMPDEST PUSH0 PUSH1 0x8 DUP4 MUL PUSH2 0x1900 PUSH32 0xFFFFFFFFFFFFFFFFFFFFFFFFFFFFFFFFFFFFFFFFFFFFFFFFFFFFFFFFFFFFFFFF DUP3 PUSH2 0x18C5 JUMP JUMPDEST PUSH2 0x190A DUP7 DUP4 PUSH2 0x18C5 JUMP JUMPDEST SWAP6 POP DUP1 NOT DUP5 AND SWAP4 POP DUP1 DUP7 AND DUP5 OR SWAP3 POP POP POP SWAP4 SWAP3 POP POP POP JUMP JUMPDEST PUSH0 DUP2 SWAP1 POP SWAP2 SWAP1 POP JUMP JUMPDEST PUSH0 PUSH2 0x1945 PUSH2 0x1940 PUSH2 0x193B DUP5 PUSH2 0x1472 JUMP JUMPDEST PUSH2 0x1922 JUMP JUMPDEST PUSH2 0x1472 JUMP JUMPDEST SWAP1 POP SWAP2 SWAP1 POP JUMP JUMPDEST PUSH0 DUP2 SWAP1 POP SWAP2 SWAP1 POP JUMP JUMPDEST PUSH2 0x195E DUP4 PUSH2 0x192B JUMP JUMPDEST PUSH2 0x1972 PUSH2 0x196A DUP3 PUSH2 0x194C JUMP JUMPDEST DUP5 DUP5 SLOAD PUSH2 0x18D1 JUMP JUMPDEST DUP3 SSTORE POP POP POP POP JUMP JUMPDEST PUSH0 SWAP1 JUMP JUMPDEST PUSH2 0x1986 PUSH2 0x197A JUMP JUMPDEST PUSH2 0x1991 DUP2 DUP5 DUP5 PUSH2 0x1955 JUMP JUMPDEST POP POP POP JUMP JUMPDEST JUMPDEST DUP2 DUP2 LT ISZERO PUSH2 0x19B4 JUMPI PUSH2 0x19A9 PUSH0 DUP3 PUSH2 0x197E JUMP JUMPDEST PUSH1 0x1 DUP2 ADD SWAP1 POP PUSH2 0x1997 JUMP JUMPDEST POP POP JUMP JUMPDEST PUSH1 0x1F DUP3 GT ISZERO PUSH2 0x19F9 JUMPI PUSH2 0x19CA DUP2 PUSH2 0x18A4 JUMP JUMPDEST PUSH2 0x19D3 DUP5 PUSH2 0x18B6 JUMP JUMPDEST DUP2 ADD PUSH1 0x20 DUP6 LT ISZERO PUSH2 0x19E2 JUMPI DUP2 SWAP1 POP JUMPDEST PUSH2 0x19F6 PUSH2 0x19EE DUP6 PUSH2 0x18B6 JUMP JUMPDEST DUP4 ADD DUP3 PUSH2 0x1996 JUMP JUMPDEST POP POP JUMPDEST POP POP POP JUMP JUMPDEST PUSH0 DUP3 DUP3 SHR SWAP1 POP SWAP3 SWAP2 POP POP JUMP JUMPDEST PUSH0 PUSH2 0x1A19 PUSH0 NOT DUP5 PUSH1 0x8 MUL PUSH2 0x19FE JUMP JUMPDEST NOT DUP1 DUP4 AND SWAP2 POP POP SWAP3 SWAP2 POP POP JUMP JUMPDEST PUSH0 PUSH2 0x1A31 DUP4 DUP4 PUSH2 0x1A0A JUMP JUMPDEST SWAP2 POP DUP3 PUSH1 0x2 MUL DUP3 OR SWAP1 POP SWAP3 SWAP2 POP POP JUMP JUMPDEST PUSH2 0x1A4B DUP4 DUP4 PUSH2 0x186D JUMP JUMPDEST PUSH8 0xFFFFFFFFFFFFFFFF DUP2 GT ISZERO PUSH2 0x1A64 JUMPI PUSH2 0x1A63 PUSH2 0x1877 JUMP JUMPDEST JUMPDEST PUSH2 0x1A6E DUP3 SLOAD PUSH2 0x179F JUMP JUMPDEST PUSH2 0x1A79 DUP3 DUP3 DUP6 PUSH2 0x19B8 JUMP JUMPDEST PUSH0 PUSH1 0x1F DUP4 GT PUSH1 0x1 DUP2 EQ PUSH2 0x1AA6 JUMPI PUSH0 DUP5 ISZERO PUSH2 0x1A94 JUMPI DUP3 DUP8 ADD CALLDATALOAD SWAP1 POP JUMPDEST PUSH2 0x1A9E DUP6 DUP3 PUSH2 0x1A26 JUMP JUMPDEST DUP7 SSTORE POP PUSH2 0x1B05 JUMP JUMPDEST PUSH1 0x1F NOT DUP5 AND PUSH2 0x1AB4 DUP7 PUSH2 0x18A4 JUMP JUMPDEST PUSH0 JUMPDEST DUP3 DUP2 LT ISZERO PUSH2 0x1ADB JUMPI DUP5 DUP10 ADD CALLDATALOAD DUP3 SSTORE PUSH1 0x1 DUP3 ADD SWAP2 POP PUSH1 0x20 DUP6 ADD SWAP5 POP PUSH1 0x20 DUP2 ADD SWAP1 POP PUSH2 0x1AB6 JUMP JUMPDEST DUP7 DUP4 LT ISZERO PUSH2 0x1AF8 JUMPI DUP5 DUP10 ADD CALLDATALOAD PUSH2 0x1AF4 PUSH1 0x1F DUP10 AND DUP3 PUSH2 0x1A0A JUMP JUMPDEST DUP4 SSTORE POP JUMPDEST PUSH1 0x1 PUSH1 0x2 DUP9 MUL ADD DUP9 SSTORE POP POP POP JUMPDEST POP POP POP POP POP POP POP JUMP JUMPDEST PUSH0 PUSH20 0xFFFFFFFFFFFFFFFFFFFFFFFFFFFFFFFFFFFFFFFF DUP3 AND SWAP1 POP SWAP2 SWAP1 POP JUMP JUMPDEST PUSH0 PUSH2 0x1B37 DUP3 PUSH2 0x1B0E JUMP JUMPDEST SWAP1 POP SWAP2 SWAP1 POP JUMP JUMPDEST PUSH2 0x1B47 DUP2 PUSH2 0x1B2D JUMP JUMPDEST DUP3 MSTORE POP POP JUMP JUMPDEST PUSH0 PUSH1 0x1F NOT PUSH1 0x1F DUP4 ADD AND SWAP1 POP SWAP2 SWAP1 POP JUMP JUMPDEST PUSH0 PUSH2 0x1B68 DUP4 DUP6 PUSH2 0x17CF JUMP JUMPDEST SWAP4 POP PUSH2 0x1B75 DUP4 DUP6 DUP5 PUSH2 0x1728 JUMP JUMPDEST PUSH2 0x1B7E DUP4 PUSH2 0x1B4D JUMP JUMPDEST DUP5 ADD SWAP1 POP SWAP4 SWAP3 POP POP POP JUMP JUMPDEST PUSH0 PUSH1 0x80 DUP3 ADD SWAP1 POP PUSH2 0x1B9C PUSH0 DUP4 ADD DUP10 PUSH2 0x1B3E JUMP JUMPDEST DUP2 DUP2 SUB PUSH1 0x20 DUP4 ADD MSTORE PUSH2 0x1BAF DUP2 DUP8 DUP10 PUSH2 0x1B5D JUMP JUMPDEST SWAP1 POP DUP2 DUP2 SUB PUSH1 0x40 DUP4 ADD MSTORE PUSH2 0x1BC4 DUP2 DUP6 DUP8 PUSH2 0x1B5D JUMP JUMPDEST SWAP1 POP PUSH2 0x1BD3 PUSH1 0x60 DUP4 ADD DUP5 PUSH2 0x1611 JUMP JUMPDEST SWAP8 SWAP7 POP POP POP POP POP POP POP JUMP JUMPDEST PUSH32 0x42657474696E6720697320636C6F736564000000000000000000000000000000 PUSH0 DUP3 ADD MSTORE POP JUMP JUMPDEST PUSH0 PUSH2 0x1C12 PUSH1 0x11 DUP4 PUSH2 0x17CF JUMP JUMPDEST SWAP2 POP PUSH2 0x1C1D DUP3 PUSH2 0x1BDE JUMP JUMPDEST PUSH1 0x20 DUP3 ADD SWAP1 POP SWAP2 SWAP1 POP JUMP JUMPDEST PUSH0 PUSH1 0x20 DUP3 ADD SWAP1 POP DUP2 DUP2 SUB PUSH0 DUP4 ADD MSTORE PUSH2 0x1C3F DUP2 PUSH2 0x1C06 JUMP JUMPDEST SWAP1 POP SWAP2 SWAP1 POP JUMP JUMPDEST PUSH32 0x42657420616D6F756E74206973206C657373207468616E206D696E696D756D00 PUSH0 DUP3 ADD MSTORE POP JUMP JUMPDEST PUSH0 PUSH2 0x1C7A PUSH1 0x1F DUP4 PUSH2 0x17CF JUMP JUMPDEST SWAP2 POP PUSH2 0x1C85 DUP3 PUSH2 0x1C46 JUMP JUMPDEST PUSH1 0x20 DUP3 ADD SWAP1 POP SWAP2 SWAP1 POP JUMP JUMPDEST PUSH0 PUSH1 0x20 DUP3 ADD SWAP1 POP DUP2 DUP2 SUB PUSH0 DUP4 ADD MSTORE PUSH2 0x1CA7 DUP2 PUSH2 0x1C6E JUMP JUMPDEST SWAP1 POP SWAP2 SWAP1 POP JUMP JUMPDEST PUSH0 PUSH1 0x60 DUP3 ADD SWAP1 POP PUSH2 0x1CC1 PUSH0 DUP4 ADD DUP7 PUSH2 0x1B3E JUMP JUMPDEST PUSH2 0x1CCE PUSH1 0x20 DUP4 ADD DUP6 PUSH2 0x1B3E JUMP JUMPDEST PUSH2 0x1CDB PUSH1 0x40 DUP4 ADD DUP5 PUSH2 0x1611 JUMP JUMPDEST SWAP5 SWAP4 POP POP POP POP JUMP JUMPDEST PUSH2 0x1CEC DUP2 PUSH2 0x1620 JUMP JUMPDEST DUP2 EQ PUSH2 0x1CF6 JUMPI PUSH0 DUP1 REVERT JUMPDEST POP JUMP JUMPDEST PUSH0 DUP2 MLOAD SWAP1 POP PUSH2 0x1D07 DUP2 PUSH2 0x1CE3 JUMP JUMPDEST SWAP3 SWAP2 POP POP JUMP JUMPDEST PUSH0 PUSH1 0x20 DUP3 DUP5 SUB SLT ISZERO PUSH2 0x1D22 JUMPI PUSH2 0x1D21 PUSH2 0x1409 JUMP JUMPDEST JUMPDEST PUSH0 PUSH2 0x1D2F DUP5 DUP3 DUP6 ADD PUSH2 0x1CF9 JUMP JUMPDEST SWAP2 POP POP SWAP3 SWAP2 POP POP JUMP JUMPDEST PUSH32 0x5472616E73666572206661696C65640000000000000000000000000000000000 PUSH0 DUP3 ADD MSTORE POP JUMP JUMPDEST PUSH0 PUSH2 0x1D6C PUSH1 0xF DUP4 PUSH2 0x17CF JUMP JUMPDEST SWAP2 POP PUSH2 0x1D77 DUP3 PUSH2 0x1D38 JUMP JUMPDEST PUSH1 0x20 DUP3 ADD SWAP1 POP SWAP2 SWAP1 POP JUMP JUMPDEST PUSH0 PUSH1 0x20 DUP3 ADD SWAP1 POP DUP2 DUP2 SUB PUSH0 DUP4 ADD MSTORE PUSH2 0x1D99 DUP2 PUSH2 0x1D60 JUMP JUMPDEST SWAP1 POP SWAP2 SWAP1 POP JUMP JUMPDEST PUSH32 0x4E487B7100000000000000000000000000000000000000000000000000000000 PUSH0 MSTORE PUSH1 0x11 PUSH1 0x4 MSTORE PUSH1 0x24 PUSH0 REVERT JUMPDEST PUSH0 PUSH2 0x1DD7 DUP3 PUSH2 0x1472 JUMP JUMPDEST SWAP2 POP PUSH2 0x1DE2 DUP4 PUSH2 0x1472 JUMP JUMPDEST SWAP3 POP DUP3 DUP3 ADD SWAP1 POP DUP1 DUP3 GT ISZERO PUSH2 0x1DFA JUMPI PUSH2 0x1DF9 PUSH2 0x1DA0 JUMP JUMPDEST JUMPDEST SWAP3 SWAP2 POP POP JUMP JUMPDEST PUSH0 DUP2 SWAP1 POP SWAP2 SWAP1 POP JUMP JUMPDEST PUSH0 PUSH2 0x1E23 PUSH2 0x1E1E PUSH2 0x1E19 DUP5 PUSH2 0x1E00 JUMP JUMPDEST PUSH2 0x1922 JUMP JUMPDEST PUSH2 0x168B JUMP JUMPDEST SWAP1 POP SWAP2 SWAP1 POP JUMP JUMPDEST PUSH2 0x1E33 DUP2 PUSH2 0x1E09 JUMP JUMPDEST DUP3 MSTORE POP POP JUMP JUMPDEST PUSH0 PUSH1 0x40 DUP3 ADD SWAP1 POP PUSH2 0x1E4C PUSH0 DUP4 ADD DUP6 PUSH2 0x1611 JUMP JUMPDEST PUSH2 0x1E59 PUSH1 0x20 DUP4 ADD DUP5 PUSH2 0x1E2A JUMP JUMPDEST SWAP4 SWAP3 POP POP POP JUMP JUMPDEST PUSH0 DUP2 MLOAD SWAP1 POP SWAP2 SWAP1 POP JUMP JUMPDEST DUP3 DUP2 DUP4 MCOPY PUSH0 DUP4 DUP4 ADD MSTORE POP POP POP JUMP JUMPDEST PUSH0 PUSH2 0x1E82 DUP3 PUSH2 0x1E60 JUMP JUMPDEST PUSH2 0x1E8C DUP2 DUP6 PUSH2 0x171E JUMP JUMPDEST SWAP4 POP PUSH2 0x1E9C DUP2 DUP6 PUSH1 0x20 DUP7 ADD PUSH2 0x1E6A JUMP JUMPDEST DUP1 DUP5 ADD SWAP2 POP POP SWAP3 SWAP2 POP POP JUMP JUMPDEST PUSH0 PUSH2 0x1EB3 DUP3 DUP5 PUSH2 0x1E78 JUMP JUMPDEST SWAP2 POP DUP2 SWAP1 POP SWAP3 SWAP2 POP POP JUMP JUMPDEST PUSH32 0x4E6F7420617574686F72697A6564000000000000000000000000000000000000 PUSH0 DUP3 ADD MSTORE POP JUMP JUMPDEST PUSH0 PUSH2 0x1EF2 PUSH1 0xE DUP4 PUSH2 0x17CF JUMP JUMPDEST SWAP2 POP PUSH2 0x1EFD DUP3 PUSH2 0x1EBE JUMP JUMPDEST PUSH1 0x20 DUP3 ADD SWAP1 POP SWAP2 SWAP1 POP JUMP JUMPDEST PUSH0 PUSH1 0x20 DUP3 ADD SWAP1 POP DUP2 DUP2 SUB PUSH0 DUP4 ADD MSTORE PUSH2 0x1F1F DUP2 PUSH2 0x1EE6 JUMP JUMPDEST SWAP1 POP SWAP2 SWAP1 POP JUMP JUMPDEST PUSH32 0x496E76616C69642077696E6E696E67207465616D000000000000000000000000 PUSH0 DUP3 ADD MSTORE POP JUMP JUMPDEST PUSH0 PUSH2 0x1F5A PUSH1 0x14 DUP4 PUSH2 0x17CF JUMP JUMPDEST SWAP2 POP PUSH2 0x1F65 DUP3 PUSH2 0x1F26 JUMP JUMPDEST PUSH1 0x20 DUP3 ADD SWAP1 POP SWAP2 SWAP1 POP JUMP JUMPDEST PUSH0 PUSH1 0x20 DUP3 ADD SWAP1 POP DUP2 DUP2 SUB PUSH0 DUP4 ADD MSTORE PUSH2 0x1F87 DUP2 PUSH2 0x1F4E JUMP JUMPDEST SWAP1 POP SWAP2 SWAP1 POP JUMP JUMPDEST PUSH32 0x42657474696E67206D75737420626520636C6F73656420616E64206E6F742072 PUSH0 DUP3 ADD MSTORE PUSH32 0x65736F6C76656400000000000000000000000000000000000000000000000000 PUSH1 0x20 DUP3 ADD MSTORE POP JUMP JUMPDEST PUSH0 PUSH2 0x1FE8 PUSH1 0x27 DUP4 PUSH2 0x17CF JUMP JUMPDEST SWAP2 POP PUSH2 0x1FF3 DUP3 PUSH2 0x1F8E JUMP JUMPDEST PUSH1 0x40 DUP3 ADD SWAP1 POP SWAP2 SWAP1 POP JUMP JUMPDEST PUSH0 PUSH1 0x20 DUP3 ADD SWAP1 POP DUP2 DUP2 SUB PUSH0 DUP4 ADD MSTORE PUSH2 0x2015 DUP2 PUSH2 0x1FDC JUMP JUMPDEST SWAP1 POP SWAP2 SWAP1 POP JUMP JUMPDEST PUSH32 0x4E6F2062657473206F6E205465616D2031000000000000000000000000000000 PUSH0 DUP3 ADD MSTORE POP JUMP JUMPDEST PUSH0 PUSH2 0x2050 PUSH1 0x11 DUP4 PUSH2 0x17CF JUMP JUMPDEST SWAP2 POP PUSH2 0x205B DUP3 PUSH2 0x201C JUMP JUMPDEST PUSH1 0x20 DUP3 ADD SWAP1 POP SWAP2 SWAP1 POP JUMP JUMPDEST PUSH0 PUSH1 0x20 DUP3 ADD SWAP1 POP DUP2 DUP2 SUB PUSH0 DUP4 ADD MSTORE PUSH2 0x207D DUP2 PUSH2 0x2044 JUMP JUMPDEST SWAP1 POP SWAP2 SWAP1 POP JUMP JUMPDEST PUSH32 0x4E6F2062657473206F6E205465616D2032000000000000000000000000000000 PUSH0 DUP3 ADD MSTORE POP JUMP JUMPDEST PUSH0 PUSH2 0x20B8 PUSH1 0x11 DUP4 PUSH2 0x17CF JUMP JUMPDEST SWAP2 POP PUSH2 0x20C3 DUP3 PUSH2 0x2084 JUMP JUMPDEST PUSH1 0x20 DUP3 ADD SWAP1 POP SWAP2 SWAP1 POP JUMP JUMPDEST PUSH0 PUSH1 0x20 DUP3 ADD SWAP1 POP DUP2 DUP2 SUB PUSH0 DUP4 ADD MSTORE PUSH2 0x20E5 DUP2 PUSH2 0x20AC JUMP JUMPDEST SWAP1 POP SWAP2 SWAP1 POP JUMP JUMPDEST PUSH32 0x4E487B7100000000000000000000000000000000000000000000000000000000 PUSH0 MSTORE PUSH1 0x12 PUSH1 0x4 MSTORE PUSH1 0x24 PUSH0 REVERT JUMPDEST PUSH0 PUSH2 0x2123 DUP3 PUSH2 0x1472 JUMP JUMPDEST SWAP2 POP PUSH2 0x212E DUP4 PUSH2 0x1472 JUMP JUMPDEST SWAP3 POP DUP3 PUSH2 0x213E JUMPI PUSH2 0x213D PUSH2 0x20EC JUMP JUMPDEST JUMPDEST DUP3 DUP3 DIV SWAP1 POP SWAP3 SWAP2 POP POP JUMP JUMPDEST PUSH0 PUSH2 0x2153 DUP3 PUSH2 0x1472 JUMP JUMPDEST SWAP2 POP PUSH2 0x215E DUP4 PUSH2 0x1472 JUMP JUMPDEST SWAP3 POP DUP3 DUP3 SUB SWAP1 POP DUP2 DUP2 GT ISZERO PUSH2 0x2176 JUMPI PUSH2 0x2175 PUSH2 0x1DA0 JUMP JUMPDEST JUMPDEST SWAP3 SWAP2 POP POP JUMP JUMPDEST PUSH0 PUSH1 0x40 DUP3 ADD SWAP1 POP PUSH2 0x218F PUSH0 DUP4 ADD DUP6 PUSH2 0x1B3E JUMP JUMPDEST PUSH2 0x219C PUSH1 0x20 DUP4 ADD DUP5 PUSH2 0x1611 JUMP JUMPDEST SWAP4 SWAP3 POP POP POP JUMP JUMPDEST PUSH32 0x466565207472616E73666572206661696C656400000000000000000000000000 PUSH0 DUP3 ADD MSTORE POP JUMP JUMPDEST PUSH0 PUSH2 0x21D7 PUSH1 0x13 DUP4 PUSH2 0x17CF JUMP JUMPDEST SWAP2 POP PUSH2 0x21E2 DUP3 PUSH2 0x21A3 JUMP JUMPDEST PUSH1 0x20 DUP3 ADD SWAP1 POP SWAP2 SWAP1 POP JUMP JUMPDEST PUSH0 PUSH1 0x20 DUP3 ADD SWAP1 POP DUP2 DUP2 SUB PUSH0 DUP4 ADD MSTORE PUSH2 0x2204 DUP2 PUSH2 0x21CB JUMP JUMPDEST SWAP1 POP SWAP2 SWAP1 POP JUMP JUMPDEST PUSH32 0x43726561746F7220666565207472616E73666572206661696C65640000000000 PUSH0 DUP3 ADD MSTORE POP JUMP JUMPDEST PUSH0 PUSH2 0x223F PUSH1 0x1B DUP4 PUSH2 0x17CF JUMP JUMPDEST SWAP2 POP PUSH2 0x224A DUP3 PUSH2 0x220B JUMP JUMPDEST PUSH1 0x20 DUP3 ADD SWAP1 POP SWAP2 SWAP1 POP JUMP JUMPDEST PUSH0 PUSH1 0x20 DUP3 ADD SWAP1 POP DUP2 DUP2 SUB PUSH0 DUP4 ADD MSTORE PUSH2 0x226C DUP2 PUSH2 0x2233 JUMP JUMPDEST SWAP1 POP SWAP2 SWAP1 POP JUMP JUMPDEST PUSH32 0x4E487B7100000000000000000000000000000000000000000000000000000000 PUSH0 MSTORE PUSH1 0x32 PUSH1 0x4 MSTORE PUSH1 0x24 PUSH0 REVERT JUMPDEST PUSH0 PUSH2 0x22AA DUP3 PUSH2 0x1472 JUMP JUMPDEST SWAP2 POP PUSH2 0x22B5 DUP4 PUSH2 0x1472 JUMP JUMPDEST SWAP3 POP DUP3 DUP3 MUL PUSH2 0x22C3 DUP2 PUSH2 0x1472 JUMP JUMPDEST SWAP2 POP DUP3 DUP3 DIV DUP5 EQ DUP4 ISZERO OR PUSH2 0x22DA JUMPI PUSH2 0x22D9 PUSH2 0x1DA0 JUMP JUMPDEST JUMPDEST POP SWAP3 SWAP2 POP POP JUMP JUMPDEST PUSH32 0x57696E6E6572207472616E73666572206661696C656400000000000000000000 PUSH0 DUP3 ADD MSTORE POP JUMP JUMPDEST PUSH0 PUSH2 0x2315 PUSH1 0x16 DUP4 PUSH2 0x17CF JUMP JUMPDEST SWAP2 POP PUSH2 0x2320 DUP3 PUSH2 0x22E1 JUMP JUMPDEST PUSH1 0x20 DUP3 ADD SWAP1 POP SWAP2 SWAP1 POP JUMP JUMPDEST PUSH0 PUSH1 0x20 DUP3 ADD SWAP1 POP DUP2 DUP2 SUB PUSH0 DUP4 ADD MSTORE PUSH2 0x2342 DUP2 PUSH2 0x2309 JUMP JUMPDEST SWAP1 POP SWAP2 SWAP1 POP JUMP JUMPDEST PUSH2 0x2352 DUP2 PUSH2 0x168B JUMP JUMPDEST DUP3 MSTORE POP POP JUMP JUMPDEST PUSH0 PUSH1 0x20 DUP3 ADD SWAP1 POP PUSH2 0x236B PUSH0 DUP4 ADD DUP5 PUSH2 0x2349 JUMP JUMPDEST SWAP3 SWAP2 POP POP JUMP JUMPDEST PUSH0 DUP2 SWAP1 POP SWAP2 SWAP1 POP JUMP JUMPDEST PUSH0 PUSH2 0x2394 PUSH2 0x238F PUSH2 0x238A DUP5 PUSH2 0x2371 JUMP JUMPDEST PUSH2 0x1922 JUMP JUMPDEST PUSH2 0x168B JUMP JUMPDEST SWAP1 POP SWAP2 SWAP1 POP JUMP JUMPDEST PUSH2 0x23A4 DUP2 PUSH2 0x237A JUMP JUMPDEST DUP3 MSTORE POP POP JUMP JUMPDEST PUSH0 PUSH1 0x40 DUP3 ADD SWAP1 POP PUSH2 0x23BD PUSH0 DUP4 ADD DUP6 PUSH2 0x1611 JUMP JUMPDEST PUSH2 0x23CA PUSH1 0x20 DUP4 ADD DUP5 PUSH2 0x239B JUMP JUMPDEST SWAP4 SWAP3 POP POP POP JUMP INVALID LOG2 PUSH5 0x6970667358 0x22 SLT KECCAK256 MSTORE 0x4E 0xD8 0xC 0xE7 SAR AND 0xC8 SWAP6 0xB4 RETURNDATASIZE SMOD CALL 0xD5 0xB5 SMOD 0xFB 0x28 0xDE SWAP4 PUSH25 0x8D828AC20279EC111E877164736F6C634300081A0033000000 "
				},
				"gasEstimates": {
					"creation": {
						"codeDepositCost": "1844600",
						"executionCost": "26212",
						"totalCost": "1870812"
					},
					"external": {
						"closeBetting(string)": "infinite",
						"createBetInstance(string,string,string,uint256)": "infinite",
						"distributeWinnings(string,uint8)": "infinite",
						"getTotalAmounts(string)": "infinite",
						"openBetting(string)": "infinite",
						"placeBetOnoption1(string,uint256)": "infinite",
						"placeBetOnoption2(string,uint256)": "infinite"
					}
				},
				"methodIdentifiers": {
					"closeBetting(string)": "8d865b3b",
					"createBetInstance(string,string,string,uint256)": "3cfbf721",
					"distributeWinnings(string,uint8)": "dd9f4242",
					"getTotalAmounts(string)": "7fe0dbc7",
					"openBetting(string)": "85148cce",
					"placeBetOnoption1(string,uint256)": "5f4dbd41",
					"placeBetOnoption2(string,uint256)": "f85b1ad4"
				}
			},
			"storageLayout": {
				"storage": [
					{
						"astId": 37,
						"contract": "contracts/Bet.sol:FootballBetting",
						"label": "minimumBetAmount",
						"offset": 0,
						"slot": "0",
						"type": "t_uint256"
					},
					{
						"astId": 80,
						"contract": "contracts/Bet.sol:FootballBetting",
						"label": "betInstances",
						"offset": 0,
						"slot": "1",
						"type": "t_mapping(t_string_memory_ptr,t_struct(BetInstance)75_storage)"
					},
					{
						"astId": 83,
						"contract": "contracts/Bet.sol:FootballBetting",
						"label": "bonsaiToken",
						"offset": 0,
						"slot": "2",
						"type": "t_contract(IERC20)29"
					}
				],
				"types": {
					"t_address": {
						"encoding": "inplace",
						"label": "address",
						"numberOfBytes": "20"
					},
					"t_array(t_address)dyn_storage": {
						"base": "t_address",
						"encoding": "dynamic_array",
						"label": "address[]",
						"numberOfBytes": "32"
					},
					"t_bool": {
						"encoding": "inplace",
						"label": "bool",
						"numberOfBytes": "1"
					},
					"t_contract(IERC20)29": {
						"encoding": "inplace",
						"label": "contract IERC20",
						"numberOfBytes": "20"
					},
					"t_mapping(t_address,t_struct(Bet)42_storage)": {
						"encoding": "mapping",
						"key": "t_address",
						"label": "mapping(address => struct FootballBetting.Bet)",
						"numberOfBytes": "32",
						"value": "t_struct(Bet)42_storage"
					},
					"t_mapping(t_string_memory_ptr,t_struct(BetInstance)75_storage)": {
						"encoding": "mapping",
						"key": "t_string_memory_ptr",
						"label": "mapping(string => struct FootballBetting.BetInstance)",
						"numberOfBytes": "32",
						"value": "t_struct(BetInstance)75_storage"
					},
					"t_string_memory_ptr": {
						"encoding": "bytes",
						"label": "string",
						"numberOfBytes": "32"
					},
					"t_string_storage": {
						"encoding": "bytes",
						"label": "string",
						"numberOfBytes": "32"
					},
					"t_struct(Bet)42_storage": {
						"encoding": "inplace",
						"label": "struct FootballBetting.Bet",
						"members": [
							{
								"astId": 39,
								"contract": "contracts/Bet.sol:FootballBetting",
								"label": "bettor",
								"offset": 0,
								"slot": "0",
								"type": "t_address"
							},
							{
								"astId": 41,
								"contract": "contracts/Bet.sol:FootballBetting",
								"label": "amount",
								"offset": 0,
								"slot": "1",
								"type": "t_uint256"
							}
						],
						"numberOfBytes": "64"
					},
					"t_struct(BetInstance)75_storage": {
						"encoding": "inplace",
						"label": "struct FootballBetting.BetInstance",
						"members": [
							{
								"astId": 44,
								"contract": "contracts/Bet.sol:FootballBetting",
								"label": "id",
								"offset": 0,
								"slot": "0",
								"type": "t_string_storage"
							},
							{
								"astId": 46,
								"contract": "contracts/Bet.sol:FootballBetting",
								"label": "option1",
								"offset": 0,
								"slot": "1",
								"type": "t_string_storage"
							},
							{
								"astId": 48,
								"contract": "contracts/Bet.sol:FootballBetting",
								"label": "option2",
								"offset": 0,
								"slot": "2",
								"type": "t_string_storage"
							},
							{
								"astId": 50,
								"contract": "contracts/Bet.sol:FootballBetting",
								"label": "totalAmountOption1",
								"offset": 0,
								"slot": "3",
								"type": "t_uint256"
							},
							{
								"astId": 52,
								"contract": "contracts/Bet.sol:FootballBetting",
								"label": "totalAmountOption2",
								"offset": 0,
								"slot": "4",
								"type": "t_uint256"
							},
							{
								"astId": 57,
								"contract": "contracts/Bet.sol:FootballBetting",
								"label": "betsoption1",
								"offset": 0,
								"slot": "5",
								"type": "t_mapping(t_address,t_struct(Bet)42_storage)"
							},
							{
								"astId": 62,
								"contract": "contracts/Bet.sol:FootballBetting",
								"label": "betsoption2",
								"offset": 0,
								"slot": "6",
								"type": "t_mapping(t_address,t_struct(Bet)42_storage)"
							},
							{
								"astId": 65,
								"contract": "contracts/Bet.sol:FootballBetting",
								"label": "bettorsoption1",
								"offset": 0,
								"slot": "7",
								"type": "t_array(t_address)dyn_storage"
							},
							{
								"astId": 68,
								"contract": "contracts/Bet.sol:FootballBetting",
								"label": "bettorsoption2",
								"offset": 0,
								"slot": "8",
								"type": "t_array(t_address)dyn_storage"
							},
							{
								"astId": 70,
								"contract": "contracts/Bet.sol:FootballBetting",
								"label": "creator",
								"offset": 0,
								"slot": "9",
								"type": "t_address"
							},
							{
								"astId": 72,
								"contract": "contracts/Bet.sol:FootballBetting",
								"label": "isClosed",
								"offset": 20,
								"slot": "9",
								"type": "t_bool"
							},
							{
								"astId": 74,
								"contract": "contracts/Bet.sol:FootballBetting",
								"label": "isResolved",
								"offset": 21,
								"slot": "9",
								"type": "t_bool"
							}
						],
						"numberOfBytes": "320"
					},
					"t_uint256": {
						"encoding": "inplace",
						"label": "uint256",
						"numberOfBytes": "32"
					}
				}
			},
			"userdoc": {
				"kind": "user",
				"methods": {},
				"version": 1
			}
		}
	}
}